{
  "_format": "hh-sol-artifact-1",
  "contractName": "CapIssueModel",
  "sourceName": "contracts/CapIssueModel.sol",
  "abi": [
    {
      "anonymous": false,
      "inputs": [
        {
          "indexed": false,
          "internalType": "uint256",
          "name": "issuedTokenAmount",
          "type": "uint256"
        },
        {
          "indexed": false,
          "internalType": "uint256",
          "name": "price",
          "type": "uint256"
        },
        {
          "indexed": false,
          "internalType": "uint256",
          "name": "targetRaised",
          "type": "uint256"
        }
      ],
      "name": "CapIssueModelEventInitialized",
      "type": "event"
    },
    {
      "anonymous": false,
      "inputs": [
        {
          "indexed": true,
          "internalType": "address",
          "name": "user",
          "type": "address"
        },
        {
          "indexed": false,
          "internalType": "uint256",
          "name": "fees",
          "type": "uint256"
        }
      ],
      "name": "FeeCharged",
      "type": "event"
    },
    {
      "anonymous": false,
      "inputs": [
        {
          "indexed": false,
          "internalType": "uint256",
          "name": "targetRaised",
          "type": "uint256"
        },
        {
          "indexed": false,
          "internalType": "uint256",
          "name": "paymentTokenReserve",
          "type": "uint256"
        },
        {
          "indexed": false,
          "internalType": "uint256",
          "name": "fee",
          "type": "uint256"
        }
      ],
      "name": "IssueSoldOut",
      "type": "event"
    },
    {
      "anonymous": false,
      "inputs": [
        {
          "indexed": true,
          "internalType": "address",
          "name": "issuer",
          "type": "address"
        },
        {
          "indexed": false,
          "internalType": "uint256",
          "name": "amount",
          "type": "uint256"
        },
        {
          "indexed": false,
          "internalType": "uint256",
          "name": "accAmount",
          "type": "uint256"
        }
      ],
      "name": "IssuerChargedRaised",
      "type": "event"
    },
    {
      "anonymous": false,
      "inputs": [
        {
          "indexed": true,
          "internalType": "address",
          "name": "user",
          "type": "address"
        },
        {
          "indexed": false,
          "internalType": "uint256",
          "name": "amount",
          "type": "uint256"
        }
      ],
      "name": "PaymentTokenEmergencyWithdraw",
      "type": "event"
    },
    {
      "anonymous": false,
      "inputs": [],
      "name": "Stopped",
      "type": "event"
    },
    {
      "anonymous": false,
      "inputs": [
        {
          "indexed": true,
          "internalType": "address",
          "name": "user",
          "type": "address"
        },
        {
          "indexed": false,
          "internalType": "uint256",
          "name": "paidAmount",
          "type": "uint256"
        },
        {
          "indexed": false,
          "internalType": "uint256",
          "name": "desiredAmount",
          "type": "uint256"
        }
      ],
      "name": "UserParticipated",
      "type": "event"
    },
    {
      "anonymous": false,
      "inputs": [
        {
          "indexed": true,
          "internalType": "address",
          "name": "user",
          "type": "address"
        },
        {
          "indexed": false,
          "internalType": "uint256",
          "name": "paidAmount",
          "type": "uint256"
        },
        {
          "indexed": false,
          "internalType": "uint256",
          "name": "refunds",
          "type": "uint256"
        }
      ],
      "name": "UserRefunds",
      "type": "event"
    },
    {
      "inputs": [],
      "name": "DEPOSIT_DURATION",
      "outputs": [
        {
          "internalType": "uint256",
          "name": "",
          "type": "uint256"
        }
      ],
      "stateMutability": "view",
      "type": "function"
    },
    {
      "inputs": [],
      "name": "PRICE_DECIMALS",
      "outputs": [
        {
          "internalType": "uint256",
          "name": "",
          "type": "uint256"
        }
      ],
      "stateMutability": "view",
      "type": "function"
    },
    {
      "inputs": [],
      "name": "accIssuerCharged",
      "outputs": [
        {
          "internalType": "uint256",
          "name": "",
          "type": "uint256"
        }
      ],
      "stateMutability": "view",
      "type": "function"
    },
    {
      "inputs": [],
      "name": "allowEmergencyWithdraw",
      "outputs": [],
      "stateMutability": "nonpayable",
      "type": "function"
    },
    {
      "inputs": [],
      "name": "autoSetAlloc",
      "outputs": [],
      "stateMutability": "nonpayable",
      "type": "function"
    },
    {
      "inputs": [],
      "name": "chargeFees",
      "outputs": [],
      "stateMutability": "nonpayable",
      "type": "function"
    },
    {
      "inputs": [
        {
          "internalType": "uint256",
          "name": "_amount",
          "type": "uint256"
        }
      ],
      "name": "chargeRaised",
      "outputs": [],
      "stateMutability": "nonpayable",
      "type": "function"
    },
    {
      "inputs": [],
      "name": "claimIssuedToken",
      "outputs": [],
      "stateMutability": "nonpayable",
      "type": "function"
    },
    {
      "inputs": [],
      "name": "currentPhase",
      "outputs": [
        {
          "internalType": "enum CapIssueModel.Phase",
          "name": "",
          "type": "uint8"
        }
      ],
      "stateMutability": "view",
      "type": "function"
    },
    {
      "inputs": [
        {
          "internalType": "uint256",
          "name": "amount",
          "type": "uint256"
        }
      ],
      "name": "deposit",
      "outputs": [],
      "stateMutability": "payable",
      "type": "function"
    },
    {
      "inputs": [],
      "name": "depositStart",
      "outputs": [
        {
          "internalType": "uint256",
          "name": "",
          "type": "uint256"
        }
      ],
      "stateMutability": "view",
      "type": "function"
    },
    {
      "inputs": [],
      "name": "emergencyWithdraw",
      "outputs": [],
      "stateMutability": "nonpayable",
      "type": "function"
    },
    {
      "inputs": [],
      "name": "emergencyWithdrawIssuedToken",
      "outputs": [],
      "stateMutability": "nonpayable",
      "type": "function"
    },
    {
      "inputs": [],
      "name": "feeRate",
      "outputs": [
        {
          "internalType": "uint256",
          "name": "",
          "type": "uint256"
        }
      ],
      "stateMutability": "view",
      "type": "function"
    },
    {
      "inputs": [],
      "name": "getAllUserInfo",
      "outputs": [
        {
          "components": [
            {
              "internalType": "uint256",
              "name": "allocation",
              "type": "uint256"
            },
            {
              "internalType": "uint256",
              "name": "balance",
              "type": "uint256"
            },
            {
              "internalType": "uint256",
              "name": "refunds",
              "type": "uint256"
            },
            {
              "internalType": "bool",
              "name": "hasClaimedRefunds",
              "type": "bool"
            },
            {
              "internalType": "bool",
              "name": "hasClaimedIssuedToken",
              "type": "bool"
            }
          ],
          "internalType": "struct IIssueModel.UserInfo[]",
          "name": "",
          "type": "tuple[]"
        }
      ],
      "stateMutability": "view",
      "type": "function"
    },
    {
      "inputs": [],
      "name": "getAllUsers",
      "outputs": [
        {
          "internalType": "address[]",
          "name": "",
          "type": "address[]"
        }
      ],
      "stateMutability": "view",
      "type": "function"
    },
    {
      "inputs": [],
      "name": "getFundsDistribution",
      "outputs": [
        {
          "internalType": "uint256",
          "name": "totalRaised",
          "type": "uint256"
        },
        {
          "internalType": "uint256",
          "name": "issuerCharged",
          "type": "uint256"
        },
        {
          "internalType": "uint256",
          "name": "fees",
          "type": "uint256"
        },
        {
          "internalType": "uint256",
          "name": "refunds",
          "type": "uint256"
        }
      ],
      "stateMutability": "view",
      "type": "function"
    },
    {
      "inputs": [
        {
          "internalType": "uint256",
          "name": "_index",
          "type": "uint256"
        }
      ],
      "name": "getUserAddress",
      "outputs": [
        {
          "internalType": "address",
          "name": "",
          "type": "address"
        }
      ],
      "stateMutability": "view",
      "type": "function"
    },
    {
      "inputs": [
        {
          "internalType": "address",
          "name": "_user",
          "type": "address"
        }
      ],
      "name": "getUserAllocation",
      "outputs": [
        {
          "internalType": "uint256",
          "name": "",
          "type": "uint256"
        }
      ],
      "stateMutability": "view",
      "type": "function"
    },
    {
      "inputs": [
        {
          "internalType": "address",
          "name": "",
          "type": "address"
        }
      ],
      "name": "getUserInfo",
      "outputs": [
        {
          "internalType": "uint256",
          "name": "allocation",
          "type": "uint256"
        },
        {
          "internalType": "uint256",
          "name": "balance",
          "type": "uint256"
        },
        {
          "internalType": "uint256",
          "name": "refunds",
          "type": "uint256"
        },
        {
          "internalType": "bool",
          "name": "hasClaimedRefunds",
          "type": "bool"
        },
        {
          "internalType": "bool",
          "name": "hasClaimedIssuedToken",
          "type": "bool"
        }
      ],
      "stateMutability": "view",
      "type": "function"
    },
    {
      "inputs": [
        {
          "internalType": "address",
          "name": "_user",
          "type": "address"
        }
      ],
      "name": "getUserInfoFromMapping",
      "outputs": [
        {
          "components": [
            {
              "internalType": "uint256",
              "name": "allocation",
              "type": "uint256"
            },
            {
              "internalType": "uint256",
              "name": "balance",
              "type": "uint256"
            },
            {
              "internalType": "uint256",
              "name": "refunds",
              "type": "uint256"
            },
            {
              "internalType": "bool",
              "name": "hasClaimedRefunds",
              "type": "bool"
            },
            {
              "internalType": "bool",
              "name": "hasClaimedIssuedToken",
              "type": "bool"
            }
          ],
          "internalType": "struct IIssueModel.UserInfo",
          "name": "",
          "type": "tuple"
        }
      ],
      "stateMutability": "view",
      "type": "function"
    },
    {
      "inputs": [],
      "name": "hasFeeCharged",
      "outputs": [
        {
          "internalType": "bool",
          "name": "",
          "type": "bool"
        }
      ],
      "stateMutability": "view",
      "type": "function"
    },
    {
      "inputs": [
        {
          "internalType": "address",
          "name": "_issuer",
          "type": "address"
        },
        {
          "internalType": "address",
          "name": "_issuedToken",
          "type": "address"
        },
        {
          "internalType": "address",
          "name": "_paymentToken",
          "type": "address"
        },
        {
          "internalType": "uint256",
          "name": "_issuedTokenAmount",
          "type": "uint256"
        },
        {
          "internalType": "uint256",
          "name": "_price",
          "type": "uint256"
        },
        {
          "internalType": "uint256",
          "name": "_depositStartTime",
          "type": "uint256"
        },
        {
          "internalType": "uint256",
          "name": "_depositDuration",
          "type": "uint256"
        },
        {
          "internalType": "uint256",
          "name": "_launchTime",
          "type": "uint256"
        },
        {
          "internalType": "uint256",
          "name": "_decimals",
          "type": "uint256"
        },
        {
          "internalType": "uint256",
          "name": "_minDeposit",
          "type": "uint256"
        },
        {
          "internalType": "uint256",
          "name": "_maxDeposit",
          "type": "uint256"
        },
        {
          "internalType": "uint256",
          "name": "_feeRate",
          "type": "uint256"
        },
        {
          "internalType": "bool",
          "name": "_needAutoDistribution",
          "type": "bool"
        },
        {
          "internalType": "bool",
          "name": "_isPaymentNative",
          "type": "bool"
        }
      ],
      "name": "initialize",
      "outputs": [],
      "stateMutability": "nonpayable",
      "type": "function"
    },
    {
      "inputs": [],
      "name": "isPaymentNative",
      "outputs": [
        {
          "internalType": "bool",
          "name": "",
          "type": "bool"
        }
      ],
      "stateMutability": "view",
      "type": "function"
    },
    {
      "inputs": [],
      "name": "issuedToken",
      "outputs": [
        {
          "internalType": "contract IERC20MetadataUpgradeable",
          "name": "",
          "type": "address"
        }
      ],
      "stateMutability": "view",
      "type": "function"
    },
    {
      "inputs": [],
      "name": "issuedTokenAmount",
      "outputs": [
        {
          "internalType": "uint256",
          "name": "",
          "type": "uint256"
        }
      ],
      "stateMutability": "view",
      "type": "function"
    },
    {
      "inputs": [],
      "name": "issuedTokenDecimals",
      "outputs": [
        {
          "internalType": "uint256",
          "name": "",
          "type": "uint256"
        }
      ],
      "stateMutability": "view",
      "type": "function"
    },
    {
      "inputs": [],
      "name": "issuer",
      "outputs": [
        {
          "internalType": "address",
          "name": "",
          "type": "address"
        }
      ],
      "stateMutability": "view",
      "type": "function"
    },
    {
      "inputs": [],
      "name": "launchTime",
      "outputs": [
        {
          "internalType": "uint256",
          "name": "",
          "type": "uint256"
        }
      ],
      "stateMutability": "view",
      "type": "function"
    },
    {
      "inputs": [
        {
          "internalType": "uint256",
          "name": "_start",
          "type": "uint256"
        },
        {
          "internalType": "uint256",
          "name": "_end",
          "type": "uint256"
        }
      ],
      "name": "manullySetAlloc",
      "outputs": [],
      "stateMutability": "nonpayable",
      "type": "function"
    },
    {
      "inputs": [],
      "name": "maxDeposit",
      "outputs": [
        {
          "internalType": "uint256",
          "name": "",
          "type": "uint256"
        }
      ],
      "stateMutability": "view",
      "type": "function"
    },
    {
      "inputs": [],
      "name": "minDeposit",
      "outputs": [
        {
          "internalType": "uint256",
          "name": "",
          "type": "uint256"
        }
      ],
      "stateMutability": "view",
      "type": "function"
    },
    {
      "inputs": [],
      "name": "needAutoDistribution",
      "outputs": [
        {
          "internalType": "bool",
          "name": "",
          "type": "bool"
        }
      ],
      "stateMutability": "view",
      "type": "function"
    },
    {
      "inputs": [],
      "name": "padFactory",
      "outputs": [
        {
          "internalType": "contract LaunchPadFactory",
          "name": "",
          "type": "address"
        }
      ],
      "stateMutability": "view",
      "type": "function"
    },
    {
      "inputs": [
        {
          "internalType": "uint256",
          "name": "",
          "type": "uint256"
        }
      ],
      "name": "participants",
      "outputs": [
        {
          "internalType": "address",
          "name": "",
          "type": "address"
        }
      ],
      "stateMutability": "view",
      "type": "function"
    },
    {
      "inputs": [],
      "name": "paymentToken",
      "outputs": [
        {
          "internalType": "contract IERC20MetadataUpgradeable",
          "name": "",
          "type": "address"
        }
      ],
      "stateMutability": "view",
      "type": "function"
    },
    {
      "inputs": [],
      "name": "paymentTokenDecimals",
      "outputs": [
        {
          "internalType": "uint256",
          "name": "",
          "type": "uint256"
        }
      ],
      "stateMutability": "view",
      "type": "function"
    },
    {
      "inputs": [],
      "name": "paymentTokenReserve",
      "outputs": [
        {
          "internalType": "uint256",
          "name": "",
          "type": "uint256"
        }
      ],
      "stateMutability": "view",
      "type": "function"
    },
    {
      "inputs": [],
      "name": "price",
      "outputs": [
        {
          "internalType": "uint256",
          "name": "",
          "type": "uint256"
        }
      ],
      "stateMutability": "view",
      "type": "function"
    },
    {
      "inputs": [],
      "name": "recoverStop",
      "outputs": [],
      "stateMutability": "nonpayable",
      "type": "function"
    },
    {
      "inputs": [],
      "name": "skim",
      "outputs": [],
      "stateMutability": "nonpayable",
      "type": "function"
    },
    {
      "inputs": [],
      "name": "skimIssuedToken",
      "outputs": [],
      "stateMutability": "nonpayable",
      "type": "function"
    },
    {
      "inputs": [],
      "name": "soldOut",
      "outputs": [
        {
          "internalType": "bool",
          "name": "",
          "type": "bool"
        }
      ],
      "stateMutability": "view",
      "type": "function"
    },
    {
      "inputs": [],
      "name": "stopped",
      "outputs": [
        {
          "internalType": "bool",
          "name": "",
          "type": "bool"
        }
      ],
      "stateMutability": "view",
      "type": "function"
    },
    {
      "inputs": [],
      "name": "storageIssuedTokenAmount",
      "outputs": [
        {
          "internalType": "uint256",
          "name": "",
          "type": "uint256"
        }
      ],
      "stateMutability": "view",
      "type": "function"
    },
    {
      "inputs": [],
      "name": "targetRaised",
      "outputs": [
        {
          "internalType": "uint256",
          "name": "",
          "type": "uint256"
        }
      ],
      "stateMutability": "view",
      "type": "function"
    },
    {
      "inputs": [],
      "name": "test22",
      "outputs": [
        {
          "internalType": "bool",
          "name": "",
          "type": "bool"
        }
      ],
      "stateMutability": "view",
      "type": "function"
    },
    {
      "inputs": [],
      "name": "test222",
      "outputs": [
        {
          "internalType": "bool",
          "name": "",
          "type": "bool"
        }
      ],
      "stateMutability": "view",
      "type": "function"
    },
    {
      "inputs": [
        {
          "internalType": "uint256",
          "name": "amount",
          "type": "uint256"
        }
      ],
      "name": "transferIssuedToken",
      "outputs": [],
      "stateMutability": "nonpayable",
      "type": "function"
    },
    {
      "inputs": [
        {
          "internalType": "uint256",
          "name": "_newDuration",
          "type": "uint256"
        }
      ],
      "name": "updateDepositDuration",
      "outputs": [],
      "stateMutability": "nonpayable",
      "type": "function"
    },
    {
      "inputs": [
        {
          "internalType": "uint256",
          "name": "_newLaunchTime",
          "type": "uint256"
        }
      ],
      "name": "updateLaunchTime",
      "outputs": [],
      "stateMutability": "nonpayable",
      "type": "function"
    },
    {
      "inputs": [],
      "name": "userCount",
      "outputs": [
        {
          "internalType": "uint256",
          "name": "",
          "type": "uint256"
        }
      ],
      "stateMutability": "view",
      "type": "function"
    }
  ],
  "bytecode": "0x6080806040523461001657612b99908161001c8239f35b600080fdfe608060408181526004918236101561001657600080fd5b600092833560e01c9182628f2abe1461231a575081630205ab5b146122f257816303dcaa5b14612282578163055ad42e1461224257816307973ccf146122235781631a26af7a146121875781631b2b322b1461206d5781631d143848146120475781631dd19cb414611f07578163240b39e314611ee857816324ac39ff14611abc5781633013ce2914611a94578163325cd79614611a7557816335c1d34914611a425781633728ae9314611a23578163417d845c146119fb57816341b3d185146119dc5781634e862acc146119bd57816355873ec01461195d57816356feb51e146112555781636083e59a1461193e5781636386c1c7146118d357816368027e43146118155781636e984f471461171357816375f12b21146116ec578163790ca413146116cd57816384d93a8c146116ae578163853b9ddf1461156e578163856344291461146857816386a61b2414611355578163893da6c91461132e57816390d976e2146112f7578163940a950e146112d8578163978bbdb9146112b95781639a4208141461129a578163a035b1fe1461127c578163a1ca68bd14611255578163b0e7073c14611022578163b6b55f2514610a69578163b920ade214610a3c578163c15fc6881461084e578163c629b6091461079d578163d223e23614610776578163d3f42d2414610605578163d9c146de146105e6578163da89d56c146104fb578163db2e21bc146103c157508063e2842d79146102f9578063eb85342a146102c5578063f1a640f8146102a7578063f4cbdcfc146102895763f962f7fe1461026057600080fd5b3461028557816003193601126102855760209060ff60125460b01c1690519015158152f35b5080fd5b5034610285578160031936011261028557602090600b549051908152f35b5034610285578160031936011261028557602090600d549051908152f35b50346102855781600319360112610285576080906102e161279d565b92939091815194855260208501528301526060820152f35b5090346103be57806003193601126103be579080519182906011549182855260208095018093601184527f31ecc21a745e3968a04e9570e4425bc18fa8019c68028196b546d1669c200c6890845b8181106103a1575050508161035d9103826123d8565b83519485948186019282875251809352850193925b82811061038157505050500390f35b83516001600160a01b031685528695509381019392810192600101610372565b82546001600160a01b031684529288019260019283019201610347565b80fd5b919050346104f757826003193601126104f7576103dc6129ee565b3383526014602052808320916001830192835491821561046857508482945560ff600382015416610450575b505061041682601354612583565b60135561042382336127ef565b519081527fb98968b75159bd58dc3ea861d5a3e326bcb8cc1aedcad12469b9386cbb3a17f060203392a280f35b6104609293506002015490612583565b903880610408565b60a490602085519162461bcd60e51b8352820152605360248201527f43617049737375654d6f64656c3a206578706563746564207573657220746f2060448201527f68617665206e6f6e2d7a65726f2062616c616e636520746f20706572666f726d60648201527f20656d657267656e6379207769746864726177000000000000000000000000006084820152fd5b8280fd5b919050346104f75760203660031901126104f75781359161051a61295a565b610522612a42565b6105376001600160a01b0385541633146125db565b61053f61279d565b5050600e54929150610551838661248a565b116105a35750906105837f26d39082d7f855ce2435a8386aa6c62dc14ae272e8ec397390d6ec2f57c141a0928461248a565b600e5561059083336127ef565b600e54815193845260208401523392a280f35b606490602084519162461bcd60e51b8352820152601760248201527f43617049737375654d6f64656c3a204f766572666c6f770000000000000000006044820152fd5b5050346102855781600319360112610285576020906001549051908152f35b8284346103be57806003193601126103be57906011549061062582612771565b90610632815192836123d8565b82825261063e83612771565b60209390601f1901855b818110610757575050845b8181106106ce5750508051928080850192818652845180945285019301945b82811061067f5784840385f35b9091928260a0826106bf6001948a516080809180518452602081015160208501526040810151604085015260608101511515606085015201511515910152565b01960191019492919094610672565b806001600160a01b036106e76001939897959698612359565b919054600392831b1c1687526014855285872090865191610707836123a6565b805483528481015487840152600281015488840152015460ff908181161515606084015260081c16151560808201526107408289612789565b5261074b8188612789565b50019492919394610653565b948093949695610765612746565b82828a010152019593929495610648565b50503461028557816003193601126102855760209060ff60125460b81c1690519015158152f35b5050346102855760203660031901126102855761084c8160a0936001600160a01b036107c761233e565b6107cf612746565b501681526014602052209160ff60038251946107ea866123a6565b805486526001810154602087015260028101548487015201548181161515606086015260081c16151560808401525180926080809180518452602081015160208501526040810151604085015260608101511515606085015201511515910152565bf35b9050346104f757826003193601126104f75761086861295a565b610870612a42565b601254916001600160a01b0391815192638da5cb5b60e01b845260209384818481858a165afa908115610a32578791610a05575b5016330361099e5760ff8460a01c166109385750907f55bb3cade9d43b798a4fe5ffdd05024b2d7870df53920673bfc7e68047cd0ab191740100000000000000000000000000000000000000007fffffffffffffffffffffff00ffffffffffffffffffffffffffffffffffffffff61091a61279d565b5097915050161760125561092e84336127ef565b519283523392a280f35b82608492519162461bcd60e51b83528201526024808201527f43617049737375654d6f64656c3a206665657320686173206265656e2063686160448201527f72676564000000000000000000000000000000000000000000000000000000006064820152fd5b82608492519162461bcd60e51b8352820152602360248201527f43617049737375654d6f64656c3a206e6f7420706164466163746f7279206f7760448201527f6e657200000000000000000000000000000000000000000000000000000000006064820152fd5b610a259150853d8711610a2b575b610a1d81836123d8565b8101906123fa565b386108a4565b503d610a13565b84513d89823e3d90fd5b50503461028557602036600319011261028557602090610a62610a5d61233e565b6126bd565b9051908152f35b91602091503660031901821361101e578235610a83612a42565b610a8b6124f8565b8481101561100b57600103610fc9576013928354600854601054808202908282041482151715610fb6576127108291049283808211610f5d575b50505060ff60125460b81c16600014610f4d57610ae334151561264c565b833403610ee5575b338852601483526001610b01868a20928461248a565b910195865415610dae575b84968990825484610b1d898361248a565b1015610d8e575b50610b3089825461248a565b90600a548211610d00575560125460b81c60ff16610cb357508387610b9c99610b5a82855461248a565b845560065489516323b872dd60e01b8152339281019283523060208401526040830193909352919a8b926001600160a01b03169183918e918391606090910190565b03925af1978815610ca9577fdf263dfdd75a72e5829e34d350ee8711b919e31df66d67aac31f6ed7d7cc82339798610c7c575b505b54908114610bea575b505082519485528401523392a280f35b7f96baae34504d78de1c35d2d189f8246647b0ffaa98f7b4bcc9bb74224e7284d39178010000000000000000000000000000000000000000000000007fffffffffffffff00ffffffffffffffffffffffffffffffffffffffffffffffff6012541617601255610c72600854918751938493846040919493926060820195825260208201520152565b0390a13880610bda565b610c9b90853d8711610ca2575b610c9381836123d8565b81019061256b565b5038610bcf565b503d610c89565b86513d8b823e3d90fd5b879850610ce27fdf263dfdd75a72e5829e34d350ee8711b919e31df66d67aac31f6ed7d7cc823398835461248a565b825580610cf0575b50610bd1565b610cfa90336127ef565b38610cea565b60a48b888b519162461bcd60e51b8352820152604160248201527f43617049737375654d6f64656c3a746f74616c20616d6f756e74206d7573742060448201527f6265206c657373207468616e206f7220657175616c206d6178206465706f736960648201527f74000000000000000000000000000000000000000000000000000000000000006084820152fd5b909850610d9c915083612583565b96610da78887612583565b9038610b24565b6009548510610e7d57600a548511610e155760115468010000000000000000811015610e0257806001610de49201601155612359565b81549060031b906001600160a01b0333831b921b1916179055610b0c565b60248a60418b634e487b7160e01b835252fd5b6084888588519162461bcd60e51b8352820152603560248201527f43617049737375654d6f64656c3a206d757374206265206c657373207468616e60448201527f206f7220657175616c206d6178206465706f73697400000000000000000000006064820152fd5b6084888588519162461bcd60e51b8352820152602560248201527f43617049737375654d6f64656c3a206d757374207265616368206d696e20646560448201527f706f7369740000000000000000000000000000000000000000000000000000006064820152fd5b6084878487519162461bcd60e51b8352820152603960248201527f43617049737375654d6f64656c3a20706172616d20616d6f756e7420616e642060448201527f6d73672076616c75652073686f756c6420626520657175616c000000000000006064820152fd5b610f5884151561264c565b610aeb565b610f6691612583565b1015610f7457803883610ac5565b6064878487519162461bcd60e51b8352820152601b60248201527f43617049737375654d6f64656c3a206465706f7369742066756c6c00000000006044820152fd5b60248960118a634e487b7160e01b835252fd5b5060649350519162461bcd60e51b8352820152601a60248201527f43617049737375654d6f64656c3a2077726f6e672070686173650000000000006044820152fd5b602486602187634e487b7160e01b835252fd5b8380fd5b83833461028557816003193601126102855761103c612a42565b6110446124f8565b83811015611242576003036112005760ff60125460b01c16156111be5733825260209060148252808320936003850180549560ff8760081c1661117c575495861561113a5761ff001916610100179055600f546110f59291849190878083111561112f576110b3908093612583565b600f556001600160a01b03600554169087855180978195829463a9059cbb60e01b845233908401602090939291936001600160a01b0360408201951681520152565b03925af19081156111265750611109578280f35b8161111f92903d10610ca257610c9381836123d8565b5081808280f35b513d85823e3d90fd5b506110b38280612583565b6064838686519162461bcd60e51b8352820152601760248201527f6e6f20616c6c6f636174696f6e20746f20636c61696d210000000000000000006044820152fd5b6064838686519162461bcd60e51b8352820152601260248201527f68617320636c61696d656420746f6b656e2100000000000000000000000000006044820152fd5b5162461bcd60e51b8152602081840152601360248201527f63616e206e6f7420636c61696d20746f6b656e000000000000000000000000006044820152606490fd5b5162461bcd60e51b8152602081840152601a60248201527f43617049737375654d6f64656c3a2077726f6e672070686173650000000000006044820152606490fd5b602483602186634e487b7160e01b835252fd5b50503461028557816003193601126102855760209060ff60125460c81c1690519015158152f35b9050346104f757826003193601126104f75760209250549051908152f35b505034610285578160031936011261028557602090600e549051908152f35b5050346102855781600319360112610285576020906010549051908152f35b5050346102855781600319360112610285576020906007549051908152f35b8284346103be5760203660031901126103be57506001600160a01b0361131f60209335612359565b92905490519260031b1c168152f35b50503461028557816003193601126102855760209060ff60125460c01c1690519015158152f35b9050346104f757816003193601126104f757602435916001600160a01b03918260125416908251638da5cb5b60e01b8152602081838183965afa908115610a32576113ac9186918991611449575b50163314612419565b6113b46124f8565b8181101561143657600214801561141d575b6113cf90612590565b355b8481106113dc578580f35b80846113e9600193612359565b919054600392831b1c1688526014845261141586868a209261140a85612359565b9054911b1c166126bd565b9055016113d1565b506114266124f8565b81811015611436576003146113c6565b602487602184634e487b7160e01b835252fd5b611462915060203d602011610a2b57610a1d81836123d8565b386113a3565b919050346104f757826003193601126104f7576114836129ee565b6001600160a01b036114998185541633146125db565b600554169080516370a0823160e01b815230848201526020938482602481875afa9182156115645790859291879261152d575b5083516323b872dd60e01b8152309181019182523360208301526040820192909252909384918290889082906060015b03925af19081156111265750611510578280f35b8161152692903d10610ca257610c9381836123d8565b5038808280f35b8381949293503d831161155d575b61154581836123d8565b8101031261155957905184916114fc6114cc565b8580fd5b503d61153b565b83513d88823e3d90fd5b9050346104f757826003193601126104f75732330361166c576001600160a01b0391826012541681519384916312fde4b760e01b8352828560209485935afa94851561156457869561164b575b508190600554169360248451809681936370a0823160e01b835230908301525afa91821561164257508491611612575b506115fa9150600f5490612583565b80611603578280f35b61160c916127ef565b38808280f35b905081813d831161163b575b61162881836123d8565b810103126104f7576115fa9051386115eb565b503d61161e565b513d86823e3d90fd5b8291955061166590823d8411610a2b57610a1d81836123d8565b94906115bb565b6020606492519162461bcd60e51b8352820152601460248201527f4e6f43617049737375653a20454f41206f6e6c790000000000000000000000006044820152fd5b505034610285578160031936011261028557602090600f549051908152f35b5050346102855781600319360112610285576020906003549051908152f35b50503461028557816003193601126102855760209060ff60125460a81c1690519015158152f35b919050346104f757826003193601126104f7576001600160a01b03908160125416928151638da5cb5b60e01b8152602081838183985afa9081156115645761176691859188916114495750163314612419565b61176e6124f8565b818110156118025760021480156117d0575b61178a9150612590565b835b6011548110156117cc5780836117a3600193612359565b919054600392831b1c168752601486526117c4858589209261140a85612359565b90550161178c565b8480f35b506117d96124f8565b90808210156117ef5750600361178a9114611780565b856021602492634e487b7160e01b835252fd5b602486602184634e487b7160e01b835252fd5b9050346104f75760203660031901126104f7578035906118336124f8565b818110156118c05760021480156118a7575b61184e90612590565b6001600160a01b039060208260125416855192838092638da5cb5b60e01b82525afa90811561189d5761188c93945085916114495750163314612419565b6118974282116124ad565b60035580f35b84513d87823e3d90fd5b506118b06124f8565b818110156118c057600314611845565b602485602184634e487b7160e01b835252fd5b5050346102855760203660031901126102855760ff8160a0936001600160a01b036118fc61233e565b168152601460205220918254926001810154916003600283015492015492815195865260208601528401528181161515606084015260081c1615156080820152f35b505034610285578160031936011261028557602090600a549051908152f35b919050346104f757826003193601126104f757601254906001600160a01b0392602082518092638da5cb5b60e01b8252818787165afa9182156116425750926119b69160ff60a81b199486916114495750163314612419565b1660125580f35b5050346102855781600319360112610285576020906013549051908152f35b5050346102855781600319360112610285576020906009549051908152f35b5050346102855781600319360112610285576020906001600160a01b03600554169051908152f35b5050346102855781600319360112610285576020906002549051908152f35b9050346104f75760203660031901126104f75735916011548310156103be57506001600160a01b0361131f602093612359565b505034610285578160031936011261028557602090600c549051908152f35b5050346102855781600319360112610285576020906001600160a01b03600654169051908152f35b83915034610285576101c036600319011261028557611ad961233e565b6001600160a01b03936024918235868116908190036115595760443593878516809503611ee457606435946084359660a4356101043592610184359b8c1515809d03611ee0576101a43590811515809203611edc57611b366124f8565b85811015611eca57611e8857600154611e20576012549816968715611db85742841115611d50579077ff0000000000000000000000000000000000000000000000918d7fffffffffffffffffffffffff0000000000000000000000000000000000000000998a82541617905588600554161760055560b81b169560ff877fffffffffffffffff00ffffffffffffffffffffffffffffffffffffffffffffff33167fffffffffffffffff00ffffff00000000000000000000000000000000000000008b16171760b81c1615611d41575b50508760075588825560015560c43560025560e43560035581600b55670de0b6b3a76400009283600c5583600d55888802918883048a1489151715611d305784830292808404861490151715611d305750507f519ce2da4186674c9f5aaf86a7345c04e976c596990d2efb35baacefdf0710ca98999492611ca3611d2a97959376ff00000000000000000000000000000000000000000000936129ce565b0494856008556101243560095561014435600a556101643560105560b01b16917fffffffffffffffff0000ffff00000000000000000000000000000000000000007fffffffffffffffff0000ffffffffffffffffffffffffffffffffffffffffffff3316911617171760125551938493846040919493926060820195825260208201520152565b0390a180f35b60118b91634e487b7160e01b835252fd5b60065416176006558b80611c05565b60848560398960208e519362461bcd60e51b85528401528201527f43617049737375654d6f64656c3a207374617274206f66206465706f7369746960448201527f6e672063616e206e6f7420626520696e207468652070617374000000000000006064820152fd5b608485602a8960208e519362461bcd60e51b85528401528201527f43617049737375654d6f64656c3a20697373756572206d75737420626520616460448201527f6472657373207a65726f000000000000000000000000000000000000000000006064820152fd5b60848560228960208e519362461bcd60e51b85528401528201527f43617049737375654d6f64656c3a20616c726561647920696e697469616c697a60448201527f65640000000000000000000000000000000000000000000000000000000000006064820152fd5b606485601a8960208e519362461bcd60e51b85528401528201527f43617049737375654d6f64656c3a2077726f6e672070686173650000000000006044820152fd5b878e602188634e487b7160e01b835252fd5b8c80fd5b8b80fd5b8680fd5b5050346102855781600319360112610285576020906008549051908152f35b9050346104f757826003193601126104f75732330361200557601254916001600160a01b03928151936312fde4b760e01b8552602091828686818585165afa958615610a32578796611fe3575b5060b81c60ff16611fcd578190600654169360248451809681936370a0823160e01b835230908301525afa91821561164257508491611f9d575b506115fa915060135490612583565b905081813d8311611fc6575b611fb381836123d8565b810103126104f7576115fa905138611f8e565b503d611fa9565b50505050611fde4760135490612583565b6115fa565b60ff919650611ffe90843d8611610a2b57610a1d81836123d8565b9590611f54565b6020606492519162461bcd60e51b8352820152601760248201527f43617049737375654d6f64656c3a20454f41206f6e6c790000000000000000006044820152fd5b5050346102855781600319360112610285576001600160a01b0360209254169051908152f35b9050346104f75760203660031901126104f757600754908181351061211e57600554845484516323b872dd60e01b81526001600160a01b039182169381019384523060208086019190915260408501959095529493928592908390036060019183918891165af190811561211557506120f6575b506120f0600754600f5461248a565b600f5580f35b61210e9060203d602011610ca257610c9381836123d8565b50386120e1565b513d84823e3d90fd5b608490602084519162461bcd60e51b8352820152602660248201527f616d6f756e74206e6f74206c657373207468616e20697373756564546f6b656e60448201527f416d6f756e7400000000000000000000000000000000000000000000000000006064820152fd5b9050346104f757826003193601126104f757601254916001600160a01b0391602082518092638da5cb5b60e01b8252818688165afa918215611642575060ff60a81b1992750100000000000000000000000000000000000000000094926121f79287916114495750163314612419565b16176012557f7acc84e34091ae817647a4c49116f5cc07f319078ba80f8f5fde37ea7e25cbd68180a180f35b5050346102855781600319360112610285576020906011549051908152f35b83833461028557816003193601126102855761225c6124f8565b9051918382101561226f57602083838152f35b80602185634e487b7160e01b6024945252fd5b9050346104f75760203660031901126104f7578035906001600160a01b039060208260125416855192838092638da5cb5b60e01b82525afa90811561189d576122d693945085916114495750163314612419565b6122ec6122e58260015461248a565b42106124ad565b60025580f35b5050346102855781600319360112610285576020906001600160a01b03601254169051908152f35b84903461028557816003193601126102855760209060ff60125460a01c1615158152f35b600435906001600160a01b038216820361235457565b600080fd5b6011548110156123905760116000527f31ecc21a745e3968a04e9570e4425bc18fa8019c68028196b546d1669c200c680190600090565b634e487b7160e01b600052603260045260246000fd5b60a0810190811067ffffffffffffffff8211176123c257604052565b634e487b7160e01b600052604160045260246000fd5b90601f8019910116810190811067ffffffffffffffff8211176123c257604052565b9081602091031261235457516001600160a01b03811681036123545790565b1561242057565b608460405162461bcd60e51b815260206004820152602d60248201527f43617049737375654d6f64656c3a2063616c6c6572206973206e6f742050616460448201527f466163746f7279206f776e6572000000000000000000000000000000000000006064820152fd5b9190820180921161249757565b634e487b7160e01b600052601160045260246000fd5b156124b457565b606460405162461bcd60e51b815260206004820152600760248201527f696e76616c6964000000000000000000000000000000000000000000000000006044820152fd5b60015480158015612562575b1561250f5750600090565b60025461251c818361248a565b42101561253c57505060ff60125460c01c1661253757600190565b600290565b6125459161248a565b42101580612557575b61253757600390565b50600354421061254e565b50804210612504565b90816020910312612354575180151581036123545790565b9190820391821161249757565b1561259757565b606460405162461bcd60e51b815260206004820152601a60248201527f43617049737375654d6f64656c3a2057726f6e672070686173650000000000006044820152fd5b156125e257565b608460405162461bcd60e51b815260206004820152602660248201527f43617049737375654d6f64656c3a206f6e6c79206973737565722063616e206460448201527f6f207468697300000000000000000000000000000000000000000000000000006064820152fd5b1561265357565b608460405162461bcd60e51b815260206004820152603960248201527f43617049737375654d6f64656c3a206578706563746564206e6f6e2d7a65726f60448201527f207061796d656e7420746f6b656e20746f206465706f736974000000000000006064820152fd5b906001600160a01b036000921682526014602052604082206126dd61279d565b5050905060075481810291818304149015171561272d57600854612700916129ce565b60135491821561274157600101549081810291818304149015171561272d5761272a9293506129ce565b90565b602484634e487b7160e01b81526011600452fd5b505050565b60405190612753826123a6565b60006080838281528260208201528260408201528260608201520152565b67ffffffffffffffff81116123c25760051b60200190565b80518210156123905760209160051b010190565b601354906010548083029083820481148415171561249757612710908101809111612497576127cb916129ce565b6127d58184612583565b916008548084116127e7575b50600090565b9250386127e1565b60125460b81c60ff1661293a576001600160a01b03908160065416916040918251916370a0823160e01b83523060048401526020958684602481895afa93841561292f579087949392916000946128fe575b50838111156128bd5750600654855163a9059cbb60e01b81526001600160a01b03939093166004840152602483019390935290945084916044918391600091165af19081156128b35750612895575b50505b565b816128ab92903d10610ca257610c9381836123d8565b503880612890565b513d6000823e3d90fd5b855163a9059cbb60e01b81526001600160a01b039390931660048401526024830152509384915060449082906000905af19081156128b35750612895575050565b8581969295503d8311612928575b61291681836123d8565b81010312612354578693519238612841565b503d61290c565b85513d6000823e3d90fd5b9047908181111561294f575061289391612a95565b905061289391612a95565b6129626124f8565b60048110156129b85760020361297457565b606460405162461bcd60e51b815260206004820152601a60248201527f43617049737375654d6f64656c3a2077726f6e672070686173650000000000006044820152fd5b634e487b7160e01b600052602160045260246000fd5b81156129d8570490565b634e487b7160e01b600052601260045260246000fd5b60ff60125460a81c16156129fe57565b606460405162461bcd60e51b815260206004820152601f60248201527f43617049737375654d6f64656c3a206973207374696c6c2072756e6e696e67006044820152fd5b60ff60125460a81c16612a5157565b606460405162461bcd60e51b815260206004820152601660248201527f43617049737375654d6f64656c3a2073746f70706564000000000000000000006044820152fd5b60008080809481945af1903d15612b5d573d9067ffffffffffffffff8211612b495760405191612acf601f8201601f1916602001846123d8565b825260203d92013e5b15612adf57565b608460405162461bcd60e51b815260206004820152602560248201527f5472616e7366657248656c7065723a204d455449535f5452414e534645525f4660448201527f41494c45440000000000000000000000000000000000000000000000000000006064820152fd5b80634e487b7160e01b602492526041600452fd5b50612ad856fea264697066735822122022e57d3390ed885f14e3288bcfb5192f528ca03cdda79279d5efa72736c85dbe64736f6c63430008180033",
  "linkReferences": {},
  "deployedLinkReferences": {}
}