{
  "_format": "hh-sol-artifact-1",
  "contractName": "LaunchPadFactory",
  "sourceName": "contracts/LaunchPadFactory.sol",
  "abi": [
    {
      "inputs": [
        {
          "internalType": "address",
          "name": "token",
          "type": "address"
        }
      ],
      "name": "SafeERC20FailedOperation",
      "type": "error"
    },
    {
      "anonymous": false,
      "inputs": [
        {
          "indexed": false,
          "internalType": "uint8",
          "name": "version",
          "type": "uint8"
        }
      ],
      "name": "Initialized",
      "type": "event"
    },
    {
      "anonymous": false,
      "inputs": [
        {
          "indexed": true,
          "internalType": "address",
          "name": "setter",
          "type": "address"
        },
        {
          "indexed": false,
          "internalType": "uint256",
          "name": "multiplier",
          "type": "uint256"
        },
        {
          "indexed": false,
          "internalType": "uint256",
          "name": "feeRate",
          "type": "uint256"
        }
      ],
      "name": "MulitplierFeeRateSet",
      "type": "event"
    },
    {
      "anonymous": false,
      "inputs": [
        {
          "indexed": true,
          "internalType": "address",
          "name": "primaryModelEvent",
          "type": "address"
        },
        {
          "indexed": true,
          "internalType": "address",
          "name": "_issuedToken",
          "type": "address"
        },
        {
          "indexed": true,
          "internalType": "address",
          "name": "_paymentToken",
          "type": "address"
        },
        {
          "indexed": false,
          "internalType": "uint256",
          "name": "_depositStartTime",
          "type": "uint256"
        },
        {
          "indexed": false,
          "internalType": "uint256",
          "name": "_depositDuration",
          "type": "uint256"
        },
        {
          "indexed": false,
          "internalType": "uint256",
          "name": "_launchTime",
          "type": "uint256"
        },
        {
          "indexed": false,
          "internalType": "uint256",
          "name": "_feeRate",
          "type": "uint256"
        },
        {
          "indexed": false,
          "internalType": "bool",
          "name": "_needAutoDistribution",
          "type": "bool"
        },
        {
          "indexed": false,
          "internalType": "bool",
          "name": "_isPaymentNative",
          "type": "bool"
        }
      ],
      "name": "NewPrimaryModelEventCreated",
      "type": "event"
    },
    {
      "anonymous": false,
      "inputs": [
        {
          "indexed": true,
          "internalType": "address",
          "name": "unlimitedModelEvent",
          "type": "address"
        },
        {
          "indexed": true,
          "internalType": "address",
          "name": "_issuedToken",
          "type": "address"
        },
        {
          "indexed": true,
          "internalType": "address",
          "name": "_paymentToken",
          "type": "address"
        },
        {
          "indexed": false,
          "internalType": "uint256",
          "name": "_depositStartTime",
          "type": "uint256"
        },
        {
          "indexed": false,
          "internalType": "uint256",
          "name": "_depositDuration",
          "type": "uint256"
        },
        {
          "indexed": false,
          "internalType": "uint256",
          "name": "_launchTime",
          "type": "uint256"
        },
        {
          "indexed": false,
          "internalType": "bool",
          "name": "_needAutoDistribution",
          "type": "bool"
        },
        {
          "indexed": false,
          "internalType": "bool",
          "name": "_isPaymentNative",
          "type": "bool"
        }
      ],
      "name": "NewUnlimitedModelEventCreated",
      "type": "event"
    },
    {
      "anonymous": false,
      "inputs": [
        {
          "indexed": false,
          "internalType": "address",
          "name": "recipient",
          "type": "address"
        },
        {
          "indexed": false,
          "internalType": "address",
          "name": "token",
          "type": "address"
        },
        {
          "indexed": false,
          "internalType": "uint256",
          "name": "amount",
          "type": "uint256"
        }
      ],
      "name": "RecoverErc20",
      "type": "event"
    },
    {
      "anonymous": false,
      "inputs": [
        {
          "indexed": true,
          "internalType": "address",
          "name": "_feeCollector",
          "type": "address"
        }
      ],
      "name": "SetFeeCollector",
      "type": "event"
    },
    {
      "anonymous": false,
      "inputs": [
        {
          "indexed": true,
          "internalType": "address",
          "name": "_primaryImplementation",
          "type": "address"
        }
      ],
      "name": "SetPrimaryImplementation",
      "type": "event"
    },
    {
      "inputs": [],
      "name": "BACKEND_ROLE",
      "outputs": [
        {
          "internalType": "bytes32",
          "name": "",
          "type": "bytes32"
        }
      ],
      "stateMutability": "view",
      "type": "function"
    },
    {
      "inputs": [],
      "name": "BETA_USER_ROLE",
      "outputs": [
        {
          "internalType": "bytes32",
          "name": "",
          "type": "bytes32"
        }
      ],
      "stateMutability": "view",
      "type": "function"
    },
    {
      "inputs": [],
      "name": "OPERATOR_ROLE",
      "outputs": [
        {
          "internalType": "bytes32",
          "name": "",
          "type": "bytes32"
        }
      ],
      "stateMutability": "view",
      "type": "function"
    },
    {
      "inputs": [],
      "name": "TIMELOCK_ROLE",
      "outputs": [
        {
          "internalType": "bytes32",
          "name": "",
          "type": "bytes32"
        }
      ],
      "stateMutability": "view",
      "type": "function"
    },
    {
      "inputs": [
        {
          "internalType": "address",
          "name": "_model",
          "type": "address"
        }
      ],
      "name": "addModel",
      "outputs": [],
      "stateMutability": "nonpayable",
      "type": "function"
    },
    {
      "inputs": [
        {
          "internalType": "uint256",
          "name": "",
          "type": "uint256"
        }
      ],
      "name": "allPrimaryModels",
      "outputs": [
        {
          "internalType": "address",
          "name": "",
          "type": "address"
        }
      ],
      "stateMutability": "view",
      "type": "function"
    },
    {
      "inputs": [
        {
          "internalType": "uint256",
          "name": "",
          "type": "uint256"
        }
      ],
      "name": "allUnlimitedModels",
      "outputs": [
        {
          "internalType": "address",
          "name": "",
          "type": "address"
        }
      ],
      "stateMutability": "view",
      "type": "function"
    },
    {
      "inputs": [],
      "name": "config",
      "outputs": [
        {
          "internalType": "contract IConfig",
          "name": "",
          "type": "address"
        }
      ],
      "stateMutability": "view",
      "type": "function"
    },
    {
      "inputs": [
        {
          "internalType": "address",
          "name": "_issuer",
          "type": "address"
        },
        {
          "internalType": "address",
          "name": "_issuedToken",
          "type": "address"
        },
        {
          "internalType": "address",
          "name": "_paymentToken",
          "type": "address"
        },
        {
          "internalType": "uint256",
          "name": "_issuedTokenAmount",
          "type": "uint256"
        },
        {
          "internalType": "uint256",
          "name": "_price",
          "type": "uint256"
        },
        {
          "internalType": "uint256",
          "name": "_depositStartTime",
          "type": "uint256"
        },
        {
          "internalType": "uint256",
          "name": "_depositDuration",
          "type": "uint256"
        },
        {
          "internalType": "uint256",
          "name": "_launchTime",
          "type": "uint256"
        },
        {
          "internalType": "uint256",
          "name": "_decimals",
          "type": "uint256"
        },
        {
          "internalType": "uint256",
          "name": "_minDeposit",
          "type": "uint256"
        },
        {
          "internalType": "uint256",
          "name": "_maxDeposit",
          "type": "uint256"
        },
        {
          "internalType": "uint256",
          "name": "_feeRate",
          "type": "uint256"
        },
        {
          "internalType": "bool",
          "name": "_needAutoDistribution",
          "type": "bool"
        },
        {
          "internalType": "bool",
          "name": "_isPaymentNative",
          "type": "bool"
        }
      ],
      "name": "createNewCapModel",
      "outputs": [
        {
          "internalType": "address",
          "name": "",
          "type": "address"
        }
      ],
      "stateMutability": "nonpayable",
      "type": "function"
    },
    {
      "inputs": [
        {
          "internalType": "address",
          "name": "_issuer",
          "type": "address"
        },
        {
          "internalType": "address",
          "name": "_issuedToken",
          "type": "address"
        },
        {
          "internalType": "address",
          "name": "_paymentToken",
          "type": "address"
        },
        {
          "internalType": "uint256",
          "name": "_issuedTokenAmount",
          "type": "uint256"
        },
        {
          "internalType": "uint256",
          "name": "_price",
          "type": "uint256"
        },
        {
          "internalType": "uint256",
          "name": "_depositStartTime",
          "type": "uint256"
        },
        {
          "internalType": "uint256",
          "name": "_depositDuration",
          "type": "uint256"
        },
        {
          "internalType": "uint256",
          "name": "_launchTime",
          "type": "uint256"
        },
        {
          "internalType": "uint256",
          "name": "_decimals",
          "type": "uint256"
        },
        {
          "internalType": "uint256",
          "name": "_minDeposit",
          "type": "uint256"
        },
        {
          "internalType": "bool",
          "name": "_needAutoDistribution",
          "type": "bool"
        },
        {
          "internalType": "bool",
          "name": "_isPaymentNative",
          "type": "bool"
        }
      ],
      "name": "createNewUnlimitedModel",
      "outputs": [
        {
          "internalType": "address",
          "name": "",
          "type": "address"
        }
      ],
      "stateMutability": "nonpayable",
      "type": "function"
    },
    {
      "inputs": [
        {
          "internalType": "address",
          "name": "_model",
          "type": "address"
        }
      ],
      "name": "delModel",
      "outputs": [],
      "stateMutability": "nonpayable",
      "type": "function"
    },
    {
      "inputs": [],
      "name": "getFeeCollector",
      "outputs": [
        {
          "internalType": "address",
          "name": "",
          "type": "address"
        }
      ],
      "stateMutability": "view",
      "type": "function"
    },
    {
      "inputs": [
        {
          "internalType": "address",
          "name": "",
          "type": "address"
        }
      ],
      "name": "getModel",
      "outputs": [
        {
          "internalType": "address",
          "name": "",
          "type": "address"
        }
      ],
      "stateMutability": "view",
      "type": "function"
    },
    {
      "inputs": [],
      "name": "getMultiplier",
      "outputs": [
        {
          "components": [
            {
              "internalType": "uint256",
              "name": "multiplier10",
              "type": "uint256"
            },
            {
              "internalType": "uint256",
              "name": "multiplier15",
              "type": "uint256"
            },
            {
              "internalType": "uint256",
              "name": "multiplier20",
              "type": "uint256"
            },
            {
              "internalType": "uint256",
              "name": "multiplier25",
              "type": "uint256"
            },
            {
              "internalType": "uint256",
              "name": "multiplier50",
              "type": "uint256"
            },
            {
              "internalType": "uint256",
              "name": "multiplier100",
              "type": "uint256"
            }
          ],
          "internalType": "struct LaunchPadFactory.Multiplier",
          "name": "",
          "type": "tuple"
        }
      ],
      "stateMutability": "view",
      "type": "function"
    },
    {
      "inputs": [
        {
          "internalType": "address",
          "name": "_config",
          "type": "address"
        }
      ],
      "name": "initialize",
      "outputs": [],
      "stateMutability": "nonpayable",
      "type": "function"
    },
    {
      "inputs": [
        {
          "internalType": "address",
          "name": "",
          "type": "address"
        }
      ],
      "name": "isModel",
      "outputs": [
        {
          "internalType": "bool",
          "name": "",
          "type": "bool"
        }
      ],
      "stateMutability": "view",
      "type": "function"
    },
    {
      "inputs": [
        {
          "internalType": "address",
          "name": "",
          "type": "address"
        }
      ],
      "name": "isPrimary",
      "outputs": [
        {
          "internalType": "bool",
          "name": "",
          "type": "bool"
        }
      ],
      "stateMutability": "view",
      "type": "function"
    },
    {
      "inputs": [
        {
          "internalType": "address",
          "name": "",
          "type": "address"
        }
      ],
      "name": "isUnlimited",
      "outputs": [
        {
          "internalType": "bool",
          "name": "",
          "type": "bool"
        }
      ],
      "stateMutability": "view",
      "type": "function"
    },
    {
      "inputs": [],
      "name": "multiplier",
      "outputs": [
        {
          "internalType": "uint256",
          "name": "multiplier10",
          "type": "uint256"
        },
        {
          "internalType": "uint256",
          "name": "multiplier15",
          "type": "uint256"
        },
        {
          "internalType": "uint256",
          "name": "multiplier20",
          "type": "uint256"
        },
        {
          "internalType": "uint256",
          "name": "multiplier25",
          "type": "uint256"
        },
        {
          "internalType": "uint256",
          "name": "multiplier50",
          "type": "uint256"
        },
        {
          "internalType": "uint256",
          "name": "multiplier100",
          "type": "uint256"
        }
      ],
      "stateMutability": "view",
      "type": "function"
    },
    {
      "inputs": [
        {
          "internalType": "uint256",
          "name": "",
          "type": "uint256"
        }
      ],
      "name": "multiplierFeeRate",
      "outputs": [
        {
          "internalType": "uint256",
          "name": "",
          "type": "uint256"
        }
      ],
      "stateMutability": "view",
      "type": "function"
    },
    {
      "inputs": [],
      "name": "numModels",
      "outputs": [
        {
          "internalType": "uint256",
          "name": "total",
          "type": "uint256"
        },
        {
          "internalType": "uint256",
          "name": "primary",
          "type": "uint256"
        },
        {
          "internalType": "uint256",
          "name": "unlimited",
          "type": "uint256"
        }
      ],
      "stateMutability": "view",
      "type": "function"
    },
    {
      "inputs": [],
      "name": "owner",
      "outputs": [
        {
          "internalType": "address",
          "name": "",
          "type": "address"
        }
      ],
      "stateMutability": "view",
      "type": "function"
    },
    {
      "inputs": [],
      "name": "paused",
      "outputs": [
        {
          "internalType": "bool",
          "name": "",
          "type": "bool"
        }
      ],
      "stateMutability": "view",
      "type": "function"
    },
    {
      "inputs": [
        {
          "internalType": "address",
          "name": "_tokenAddress",
          "type": "address"
        },
        {
          "internalType": "uint256",
          "name": "_tokenAmount",
          "type": "uint256"
        }
      ],
      "name": "recoverErc20",
      "outputs": [],
      "stateMutability": "nonpayable",
      "type": "function"
    },
    {
      "inputs": [
        {
          "internalType": "address",
          "name": "_feeCollector",
          "type": "address"
        }
      ],
      "name": "setFeeCollector",
      "outputs": [],
      "stateMutability": "nonpayable",
      "type": "function"
    },
    {
      "inputs": [
        {
          "internalType": "uint256",
          "name": "_multiplier",
          "type": "uint256"
        },
        {
          "internalType": "uint256",
          "name": "_feeRate",
          "type": "uint256"
        }
      ],
      "name": "setMultiplierFeeRate",
      "outputs": [],
      "stateMutability": "nonpayable",
      "type": "function"
    },
    {
      "inputs": [
        {
          "internalType": "address",
          "name": "_owner",
          "type": "address"
        }
      ],
      "name": "setOwner",
      "outputs": [],
      "stateMutability": "nonpayable",
      "type": "function"
    }
  ],
  "bytecode": "0x60808060405234610016576179a2908161001c8239f35b600080fdfe6080604052600436101561001257600080fd5b6000803560e01c806303b548ff1461186857806304d0dbe1146113e957806312fde4b71461135957806313af4035146112225780631b3ed722146111da57806331efd8d61461119d578063380b806e1461106257806340490a9014610fb75780634b1497af14610f6b5780635629ffd014610f305780635c975abb14610eab578063738a8ce614610bfa5780637832ba3214610ba057806379502c5514610b795780638da5cb5b14610b5257806392c2becc14610b17578063a35b4cef14610ada578063a42dce80146108b5578063b81edd1a1461085b578063b851f5b414610831578063b854c9c9146107f4578063c4d66de8146104b9578063ce1c90c41461035b578063de0abf7a146101f9578063e2187218146101be578063f288a2e2146101835763f5b541a61461014657600080fd5b3461018057806003193601126101805760206040517f97667070c54ef182b0f5858b034beac1b6f3089aa2d3188bb1e8929f4fa9b9298152f35b80fd5b503461018057806003193601126101805760206040517ff66846415d2bf9eabda9e84793ff9c0ea96d87f50fc41e66aa16469c6a442f058152f35b50346101805760203660031901126101805760209060406001600160a01b0391826101e7611c8c565b16815260868452205416604051908152f35b50346101805760208060031936011261035757610214611c8c565b906001600160a01b0380606554169260405193632474521560e21b8086527f97667070c54ef182b0f5858b034beac1b6f3089aa2d3188bb1e8929f4fa9b92960048701523360248701528486604481855afa95861561034c57879661032d575b50851561029c575b5050610289608794611d3d565b1683525260408120805460ff1916905580f35b8491955060446040518097819382527ff66846415d2bf9eabda9e84793ff9c0ea96d87f50fc41e66aa16469c6a442f0560048301523360248301525afa938415610322576087946102899187916102f5575b509461027c565b6103159150853d871161031b575b61030d8183611d03565b810190611d25565b386102ee565b503d610303565b6040513d87823e3d90fd5b610345919650853d871161031b5761030d8183611d03565b9438610274565b6040513d89823e3d90fd5b5080fd5b5034610180576040366003190112610180576004356024356001600160a01b036065541660405190632474521560e21b8083527f97667070c54ef182b0f5858b034beac1b6f3089aa2d3188bb1e8929f4fa9b92960048401523360248401526020928381604481865afa91821561034c578491889361049a575b508215610428575b50506103e99150611d3d565b828452608a81528160408520556040519283528201527fc5773f750d3060fceafb3af78b80d658d445ff67464787ea4eb38ed78a9e723560403392a280f35b90915060446040518094819382527ff66846415d2bf9eabda9e84793ff9c0ea96d87f50fc41e66aa16469c6a442f0560048301523360248301525afa8015610322576103e991869161047d575b5082386103dd565b6104949150833d851161031b5761030d8183611d03565b38610475565b6104b2919350823d841161031b5761030d8183611d03565b91386103d5565b50346101805760209081600319360112610180576104d5611c8c565b9181549060ff8260081c16158080916107e7575b80156107d0575b156107665760ff19808416600190811786559382610755575b506001600160a01b031995338760935416176093556040516040810181811067ffffffffffffffff82111761073f576040528581528481019785368a376001600160a01b0380931690604051997fe5974554000000000000000000000000000000000000000000000000000000008b52878b600481865afa9a8b15610734578a9b610705575b508351156106f15784899a9b999798991690526105c460ff8b5460081c166105b681612002565b6105bf81612002565b612002565b8560335560655416176065558388905b6106bd575b5050505050838052608a825260646040852055600a845260326040852055600f8452601e60408520556014845260196040852055601984526014604085205560328452600a60408520556064845260056040852055606460a060405161063e81611ce7565b600a8152600f858201526014604082015260196060820152603260808201520152600a608d55600f608e556014608f55601960905560326091556064609255610685578280f35b825461ff00191683556040519182527f7f26b83ff96e1f2b6a682f133852f6798a09c465da95921460cefb384740249891a138808280f35b81518110156106ec57808388879360051b85010151168a526066885260408a20828682541617905501846105d4565b6105d9565b60248a634e487b7160e01b81526032600452fd5b610726919b50883d8a1161072d575b61071e8183611d03565b810190611fe3565b993861058f565b503d610714565b6040513d8c823e3d90fd5b634e487b7160e01b600052604160045260246000fd5b61ffff191661010117855538610509565b6084826040519062461bcd60e51b82526004820152602e60248201527f496e697469616c697a61626c653a20636f6e747261637420697320616c72656160448201527f647920696e697469616c697a65640000000000000000000000000000000000006064820152fd5b50303b1580156104f05750600160ff8416146104f0565b50600160ff8416106104e9565b50346101805760203660031901126101805760ff60406020926001600160a01b0361081d611c8c565b168152608884522054166040519015158152f35b50346101805760203660031901126101805760406020916004358152608a83522054604051908152f35b503461018057602036600319011261018057600435608c54811015610357576001600160a01b0390608c602093527f5f2f2dca1d951c7429b52007f396328c64c25e226c1867318158f7f2cbdd40a9015416604051908152f35b50346101805760209081600319360112610180576108d1611c8c565b6001600160a01b03806065541691604051632474521560e21b908181527f97667070c54ef182b0f5858b034beac1b6f3089aa2d3188bb1e8929f4fa9b92960048201523360248201528681604481885afa908115610acf578691610ab2575b508015610a41575b6109429150611d3d565b169283156109d75750803b15610357578180916024604051809481937fa42dce800000000000000000000000000000000000000000000000000000000083528860048401525af180156109cc576109bd575b50907fd649da8f6092116f86ea4e5139de0b75ad371d823918d16368ba3ff09a5cbc9f8280a280f35b6109c690611cd3565b38610994565b6040513d84823e3d90fd5b6084906040519062461bcd60e51b82526004820152602f60248201527f506164466163746f72793a2066656520636f6c6c6563746f722063616e27742060448201527f62652061646472657373207a65726f00000000000000000000000000000000006064820152fd5b506040519081527ff66846415d2bf9eabda9e84793ff9c0ea96d87f50fc41e66aa16469c6a442f0560048201523360248201528581604481875afa9081156103225790610942918691610a95575b50610938565b610aac9150873d891161031b5761030d8183611d03565b38610a8f565b610ac99150873d891161031b5761030d8183611d03565b38610930565b6040513d88823e3d90fd5b50346101805760203660031901126101805760ff60406020926001600160a01b03610b03611c8c565b168152608984522054166040519015158152f35b503461018057806003193601126101805760206040517f25cf2b509f2a7f322675b2a5322b182f44ad2c03ac941a0af17c9b178f5d5d5f8152f35b503461018057806003193601126101805760206001600160a01b0360935416604051908152f35b503461018057806003193601126101805760206001600160a01b0360655416604051908152f35b503461018057602036600319011261018057600435608b54811015610357576001600160a01b0390608b602093527f7b6bb1e9d1b017ff82945596cf3cfb1a6cee971c1ebb16f2c6bd23c2d642728e015416604051908152f35b503461018057604036600319011261018057610c14611c8c565b60248035906001600160a01b0380606554169360405194632474521560e21b8087527f97667070c54ef182b0f5858b034beac1b6f3089aa2d3188bb1e8929f4fa9b929600488015233858801526020968781604481865afa918215610ea05788918a93610e81575b508215610e10575b5050610c909150611d3d565b16908185526066845260ff604086205416610da757604051848101907fa9059cbb0000000000000000000000000000000000000000000000000000000082523383820152846044820152604481526080810181811067ffffffffffffffff821117610d945760405251859187919082865af115610d895784513d610d805750813b155b610d515750916060917f8707eabf0aab8fc872bdb95c17ebd24c4311fc70326f8ac9c4e121449c2aa4dd93604051923384528301526040820152a180f35b90604051907f5274afe70000000000000000000000000000000000000000000000000000000082526004820152fd5b60011415610d13565b6040513d86823e3d90fd5b8388634e487b7160e01b81526041600452fd5b8360276084926040519262461bcd60e51b845260048401528201527f7265636f76657245726332303a2063616e6e6f74207265636f76657220686f6c60448201527f6420746f6b656e000000000000000000000000000000000000000000000000006064820152fd5b90915060446040518094819382527ff66846415d2bf9eabda9e84793ff9c0ea96d87f50fc41e66aa16469c6a442f05600483015233898301525afa801561034c57610c90918891610e64575b508638610c84565b610e7b9150873d891161031b5761030d8183611d03565b38610e5c565b610e99919350823d841161031b5761030d8183611d03565b9138610c7c565b6040513d8b823e3d90fd5b5034610180578060031936011261018057600460206001600160a01b0360655416604051928380927fb187bd260000000000000000000000000000000000000000000000000000000082525afa9081156109cc5760209291610f13575b506040519015158152f35b610f2a9150823d841161031b5761030d8183611d03565b38610f08565b503461018057806003193601126101805760206040517feac7d12e691a65e32c753f5314b9ac42acdb8dd77f0033b2f2a2e2e012122a0d8152f35b5034610180578060031936011261018057608b54608c5480820191828111610fa3576060935060405192835260208301526040820152f35b602484634e487b7160e01b81526011600452fd5b503461018057806003193601126101805760a0604051610fd681611ce7565b828152826020820152826040820152826060820152826080820152015260c060405161100181611ce7565b608d5490818152608e5460208201908152608f54604083019081526090549060608401918252609154926080850193845260a060925495019485526040519586525160208601525160408501525160608401525160808301525160a0820152f35b5034610180576020806003193601126103575761107d611c8c565b906001600160a01b0380606554169260405193632474521560e21b8086527f97667070c54ef182b0f5858b034beac1b6f3089aa2d3188bb1e8929f4fa9b92960048701523360248701528486604481855afa95861561034c57879661117e575b508515611108575b50506110f2608794611d3d565b1683525260408120805460ff1916600117905580f35b8491955060446040518097819382527ff66846415d2bf9eabda9e84793ff9c0ea96d87f50fc41e66aa16469c6a442f0560048301523360248301525afa938415610322576087946110f2918791611161575b50946110e5565b6111789150853d871161031b5761030d8183611d03565b3861115a565b611196919650853d871161031b5761030d8183611d03565b94386110dd565b50346101805760203660031901126101805760ff60406020926001600160a01b036111c6611c8c565b168152608784522054166040519015158152f35b503461018057806003193601126101805760c0608d54608e54608f546090546091549160925493604051958652602086015260408501526060840152608083015260a0820152f35b5034610180576020806003193601126103575761123d611c8c565b6001600160a01b0391826065541660405190632474521560e21b8083527f97667070c54ef182b0f5858b034beac1b6f3089aa2d3188bb1e8929f4fa9b92960048401523360248401528383604481855afa92831561034c57879361133a575b5082156112c5575b50506112b09150611d3d565b166001600160a01b0319609354161760935580f35b8391925060446040518094819382527ff66846415d2bf9eabda9e84793ff9c0ea96d87f50fc41e66aa16469c6a442f0560048301523360248301525afa908115610322576112b092869261131d575b505038806112a4565b6113339250803d1061031b5761030d8183611d03565b3880611314565b611352919350843d861161031b5761030d8183611d03565b913861129c565b503461018057806003193601126101805760049060206001600160a01b0360655416604051938480927fc415b95c0000000000000000000000000000000000000000000000000000000082525afa9182156113dc576020926113bf575b50604051908152f35b6113d590833d851161072d5761071e8183611d03565b50386113b6565b50604051903d90823e3d90fd5b5034610180576101c036600319011261018057611404611c8c565b9061140d611ca7565b611415611cbd565b9261018435908115158203611864576101a435908115158203611860576001600160a01b0360655416604051632474521560e21b81527f97667070c54ef182b0f5858b034beac1b6f3089aa2d3188bb1e8929f4fa9b9296004820152336024820152602081604481855afa90811561034c578791611841575b5080156117c4575b6114a09150611d3d565b6114b46001600160a01b0382161515611dae565b6114c86001600160a01b0385161515611e1f565b6114dc6001600160a01b0387161515611e90565b6114e96064351515611f01565b6001600160a01b038416855260866020526115116001600160a01b0360408720541615611f72565b604051612bb58082019082821067ffffffffffffffff8311176117b0579082916120748339039086f094851561177c576001600160a01b03851681526086602052604081206001600160a01b0387166001600160a01b03198254161790556001600160a01b038616815260876020526040812060ff1990600182825416179055608860205260016040832091825416179055608b546801000000000000000081101561179c576001810180608b5581101561178857608b82527f7b6bb1e9d1b017ff82945596cf3cfb1a6cee971c1ebb16f2c6bd23c2d642728e016001600160a01b0387166001600160a01b03198254161790556001600160a01b0386163b15610180576001600160a01b03604051927f24ac39ff0000000000000000000000000000000000000000000000000000000084521660048301526001600160a01b03851660248301526001600160a01b03871660448301526064356064830152608435608483015260a43560a483015260c43560c483015260e43560e4830152610104356101048301526101243561012483015261014435610144830152610164356101648301528315156101848301528215156101a483015280826101c481836001600160a01b038b165af190811561177c5750956001600160a01b0392839260209861176d575b506040519460a435865260c4358987015260e435604087015261016435606087015215156080860152151560a0850152169216907f624b67443cd15f737e5dac9605cdde4606d60d0fa1a9572b3252f9ce135abeb660c06001600160a01b03861692a46001600160a01b0360405191168152f35b61177690611cd3565b386116f9565b604051903d90823e3d90fd5b602482634e487b7160e01b81526032600452fd5b602482634e487b7160e01b81526041600452fd5b602488634e487b7160e01b81526041600452fd5b50602060449160405192838092632474521560e21b82527ff66846415d2bf9eabda9e84793ff9c0ea96d87f50fc41e66aa16469c6a442f0560048301523360248301525afa908115610acf57906114a0918791611822575b50611496565b61183b915060203d60201161031b5761030d8183611d03565b3861181c565b61185a915060203d60201161031b5761030d8183611d03565b3861148e565b8480fd5b8380fd5b50346101805761018036600319011261018057611883611c8c565b9061188c611ca7565b611894611cbd565b92610144359081151582036118645761016435908115158203611860576001600160a01b0360655416632474521560e21b6080527f97667070c54ef182b0f5858b034beac1b6f3089aa2d3188bb1e8929f4fa9b929600460800152336024608001526020608060446080845afa8015610acf578690611c5b575b8015611bde575b61191f9150611d3d565b6119336001600160a01b0382161515611dae565b6119476001600160a01b0385161515611e1f565b61195b6001600160a01b0387161515611e90565b6119686064351515611f01565b6001600160a01b038416855260866020526119906001600160a01b0360408720541615611f72565b604051612d448082019082821067ffffffffffffffff8311176117b057908291614c298339039086f094851561177c576001600160a01b03851681526086602052604081206001600160a01b0387166001600160a01b03198254161790556001600160a01b038616815260876020526040812060ff1990600182825416179055608960205260016040832091825416179055608c546801000000000000000081101561179c576001810180608c5581101561178857608c82527f5f2f2dca1d951c7429b52007f396328c64c25e226c1867318158f7f2cbdd40a9016001600160a01b0387166001600160a01b03198254161790556001600160a01b0386163b15610180576001600160a01b03604051927fea9988a20000000000000000000000000000000000000000000000000000000084521660048301526001600160a01b03851660248301526001600160a01b03871660448301526064356064830152608435608483015260a43560a483015260c43560c483015260e43560e48301526101043561010483015261012435610124830152831515610144830152821515610164830152808261018481836001600160a01b038b165af190811561177c5750956001600160a01b03928392602098611bcf575b506040519460a435865260c4358987015260e43560408701521515606086015215156080850152169216907fe4dadee883f596faadf8c5aeba2d236f9fb0e83e9b3390dc639be3d3d875b54c60a06001600160a01b03861692a46001600160a01b0360405191168152f35b611bd890611cd3565b38611b64565b50602060449160405192838092632474521560e21b82527ff66846415d2bf9eabda9e84793ff9c0ea96d87f50fc41e66aa16469c6a442f0560048301523360248301525afa908115610acf579061191f918791611c3c575b50611915565b611c55915060203d60201161031b5761030d8183611d03565b38611c36565b5060203d602011611c85575b80611c76611c80926080611d03565b6080016080611d25565b61190e565b503d611c67565b600435906001600160a01b0382168203611ca257565b600080fd5b602435906001600160a01b0382168203611ca257565b604435906001600160a01b0382168203611ca257565b67ffffffffffffffff811161073f57604052565b60c0810190811067ffffffffffffffff82111761073f57604052565b90601f8019910116810190811067ffffffffffffffff82111761073f57604052565b90816020910312611ca257518015158103611ca25790565b15611d4457565b608460405162461bcd60e51b815260206004820152603460248201527f6f6e6c794f70657261746f723a2063616c6c657220646f6573206e6f7420686160448201527f766520746865206f70657261746f7220726f6c650000000000000000000000006064820152fd5b15611db557565b608460405162461bcd60e51b815260206004820152602560248201527f506164466163746f72793a206973737565722063616e2774206265203020616460448201527f64726573730000000000000000000000000000000000000000000000000000006064820152fd5b15611e2657565b608460405162461bcd60e51b815260206004820152602b60248201527f506164466163746f72793a2069737375656420746f6b656e2063616e2774206260448201527f65203020616464726573730000000000000000000000000000000000000000006064820152fd5b15611e9757565b608460405162461bcd60e51b815260206004820152602c60248201527f506164466163746f72793a207061796d656e7420746f6b656e2063616e27742060448201527f62652030206164647265737300000000000000000000000000000000000000006064820152fd5b15611f0857565b608460405162461bcd60e51b815260206004820152603960248201527f506164466163746f72793a2069737375656420746f6b656e20616d6f756e742060448201527f6e65656420746f2062652067726561746572207468616e2030000000000000006064820152fd5b15611f7957565b608460405162461bcd60e51b815260206004820152602960248201527f506164466163746f72793a20746f6b656e2068617320616c726561647920626560448201527f656e2069737375656400000000000000000000000000000000000000000000006064820152fd5b90816020910312611ca257516001600160a01b0381168103611ca25790565b1561200957565b608460405162461bcd60e51b815260206004820152602b60248201527f496e697469616c697a61626c653a20636f6e7472616374206973206e6f74206960448201527f6e697469616c697a696e670000000000000000000000000000000000000000006064820152fdfe6080806040523461001657612b99908161001c8239f35b600080fdfe608060408181526004918236101561001657600080fd5b600092833560e01c9182628f2abe1461231a575081630205ab5b146122f257816303dcaa5b14612282578163055ad42e1461224257816307973ccf146122235781631a26af7a146121875781631b2b322b1461206d5781631d143848146120475781631dd19cb414611f07578163240b39e314611ee857816324ac39ff14611abc5781633013ce2914611a94578163325cd79614611a7557816335c1d34914611a425781633728ae9314611a23578163417d845c146119fb57816341b3d185146119dc5781634e862acc146119bd57816355873ec01461195d57816356feb51e146112555781636083e59a1461193e5781636386c1c7146118d357816368027e43146118155781636e984f471461171357816375f12b21146116ec578163790ca413146116cd57816384d93a8c146116ae578163853b9ddf1461156e578163856344291461146857816386a61b2414611355578163893da6c91461132e57816390d976e2146112f7578163940a950e146112d8578163978bbdb9146112b95781639a4208141461129a578163a035b1fe1461127c578163a1ca68bd14611255578163b0e7073c14611022578163b6b55f2514610a69578163b920ade214610a3c578163c15fc6881461084e578163c629b6091461079d578163d223e23614610776578163d3f42d2414610605578163d9c146de146105e6578163da89d56c146104fb578163db2e21bc146103c157508063e2842d79146102f9578063eb85342a146102c5578063f1a640f8146102a7578063f4cbdcfc146102895763f962f7fe1461026057600080fd5b3461028557816003193601126102855760209060ff60125460b01c1690519015158152f35b5080fd5b5034610285578160031936011261028557602090600b549051908152f35b5034610285578160031936011261028557602090600d549051908152f35b50346102855781600319360112610285576080906102e161279d565b92939091815194855260208501528301526060820152f35b5090346103be57806003193601126103be579080519182906011549182855260208095018093601184527f31ecc21a745e3968a04e9570e4425bc18fa8019c68028196b546d1669c200c6890845b8181106103a1575050508161035d9103826123d8565b83519485948186019282875251809352850193925b82811061038157505050500390f35b83516001600160a01b031685528695509381019392810192600101610372565b82546001600160a01b031684529288019260019283019201610347565b80fd5b919050346104f757826003193601126104f7576103dc6129ee565b3383526014602052808320916001830192835491821561046857508482945560ff600382015416610450575b505061041682601354612583565b60135561042382336127ef565b519081527fb98968b75159bd58dc3ea861d5a3e326bcb8cc1aedcad12469b9386cbb3a17f060203392a280f35b6104609293506002015490612583565b903880610408565b60a490602085519162461bcd60e51b8352820152605360248201527f43617049737375654d6f64656c3a206578706563746564207573657220746f2060448201527f68617665206e6f6e2d7a65726f2062616c616e636520746f20706572666f726d60648201527f20656d657267656e6379207769746864726177000000000000000000000000006084820152fd5b8280fd5b919050346104f75760203660031901126104f75781359161051a61295a565b610522612a42565b6105376001600160a01b0385541633146125db565b61053f61279d565b5050600e54929150610551838661248a565b116105a35750906105837f26d39082d7f855ce2435a8386aa6c62dc14ae272e8ec397390d6ec2f57c141a0928461248a565b600e5561059083336127ef565b600e54815193845260208401523392a280f35b606490602084519162461bcd60e51b8352820152601760248201527f43617049737375654d6f64656c3a204f766572666c6f770000000000000000006044820152fd5b5050346102855781600319360112610285576020906001549051908152f35b8284346103be57806003193601126103be57906011549061062582612771565b90610632815192836123d8565b82825261063e83612771565b60209390601f1901855b818110610757575050845b8181106106ce5750508051928080850192818652845180945285019301945b82811061067f5784840385f35b9091928260a0826106bf6001948a516080809180518452602081015160208501526040810151604085015260608101511515606085015201511515910152565b01960191019492919094610672565b806001600160a01b036106e76001939897959698612359565b919054600392831b1c1687526014855285872090865191610707836123a6565b805483528481015487840152600281015488840152015460ff908181161515606084015260081c16151560808201526107408289612789565b5261074b8188612789565b50019492919394610653565b948093949695610765612746565b82828a010152019593929495610648565b50503461028557816003193601126102855760209060ff60125460b81c1690519015158152f35b5050346102855760203660031901126102855761084c8160a0936001600160a01b036107c761233e565b6107cf612746565b501681526014602052209160ff60038251946107ea866123a6565b805486526001810154602087015260028101548487015201548181161515606086015260081c16151560808401525180926080809180518452602081015160208501526040810151604085015260608101511515606085015201511515910152565bf35b9050346104f757826003193601126104f75761086861295a565b610870612a42565b601254916001600160a01b0391815192638da5cb5b60e01b845260209384818481858a165afa908115610a32578791610a05575b5016330361099e5760ff8460a01c166109385750907f55bb3cade9d43b798a4fe5ffdd05024b2d7870df53920673bfc7e68047cd0ab191740100000000000000000000000000000000000000007fffffffffffffffffffffff00ffffffffffffffffffffffffffffffffffffffff61091a61279d565b5097915050161760125561092e84336127ef565b519283523392a280f35b82608492519162461bcd60e51b83528201526024808201527f43617049737375654d6f64656c3a206665657320686173206265656e2063686160448201527f72676564000000000000000000000000000000000000000000000000000000006064820152fd5b82608492519162461bcd60e51b8352820152602360248201527f43617049737375654d6f64656c3a206e6f7420706164466163746f7279206f7760448201527f6e657200000000000000000000000000000000000000000000000000000000006064820152fd5b610a259150853d8711610a2b575b610a1d81836123d8565b8101906123fa565b386108a4565b503d610a13565b84513d89823e3d90fd5b50503461028557602036600319011261028557602090610a62610a5d61233e565b6126bd565b9051908152f35b91602091503660031901821361101e578235610a83612a42565b610a8b6124f8565b8481101561100b57600103610fc9576013928354600854601054808202908282041482151715610fb6576127108291049283808211610f5d575b50505060ff60125460b81c16600014610f4d57610ae334151561264c565b833403610ee5575b338852601483526001610b01868a20928461248a565b910195865415610dae575b84968990825484610b1d898361248a565b1015610d8e575b50610b3089825461248a565b90600a548211610d00575560125460b81c60ff16610cb357508387610b9c99610b5a82855461248a565b845560065489516323b872dd60e01b8152339281019283523060208401526040830193909352919a8b926001600160a01b03169183918e918391606090910190565b03925af1978815610ca9577fdf263dfdd75a72e5829e34d350ee8711b919e31df66d67aac31f6ed7d7cc82339798610c7c575b505b54908114610bea575b505082519485528401523392a280f35b7f96baae34504d78de1c35d2d189f8246647b0ffaa98f7b4bcc9bb74224e7284d39178010000000000000000000000000000000000000000000000007fffffffffffffff00ffffffffffffffffffffffffffffffffffffffffffffffff6012541617601255610c72600854918751938493846040919493926060820195825260208201520152565b0390a13880610bda565b610c9b90853d8711610ca2575b610c9381836123d8565b81019061256b565b5038610bcf565b503d610c89565b86513d8b823e3d90fd5b879850610ce27fdf263dfdd75a72e5829e34d350ee8711b919e31df66d67aac31f6ed7d7cc823398835461248a565b825580610cf0575b50610bd1565b610cfa90336127ef565b38610cea565b60a48b888b519162461bcd60e51b8352820152604160248201527f43617049737375654d6f64656c3a746f74616c20616d6f756e74206d7573742060448201527f6265206c657373207468616e206f7220657175616c206d6178206465706f736960648201527f74000000000000000000000000000000000000000000000000000000000000006084820152fd5b909850610d9c915083612583565b96610da78887612583565b9038610b24565b6009548510610e7d57600a548511610e155760115468010000000000000000811015610e0257806001610de49201601155612359565b81549060031b906001600160a01b0333831b921b1916179055610b0c565b60248a60418b634e487b7160e01b835252fd5b6084888588519162461bcd60e51b8352820152603560248201527f43617049737375654d6f64656c3a206d757374206265206c657373207468616e60448201527f206f7220657175616c206d6178206465706f73697400000000000000000000006064820152fd5b6084888588519162461bcd60e51b8352820152602560248201527f43617049737375654d6f64656c3a206d757374207265616368206d696e20646560448201527f706f7369740000000000000000000000000000000000000000000000000000006064820152fd5b6084878487519162461bcd60e51b8352820152603960248201527f43617049737375654d6f64656c3a20706172616d20616d6f756e7420616e642060448201527f6d73672076616c75652073686f756c6420626520657175616c000000000000006064820152fd5b610f5884151561264c565b610aeb565b610f6691612583565b1015610f7457803883610ac5565b6064878487519162461bcd60e51b8352820152601b60248201527f43617049737375654d6f64656c3a206465706f7369742066756c6c00000000006044820152fd5b60248960118a634e487b7160e01b835252fd5b5060649350519162461bcd60e51b8352820152601a60248201527f43617049737375654d6f64656c3a2077726f6e672070686173650000000000006044820152fd5b602486602187634e487b7160e01b835252fd5b8380fd5b83833461028557816003193601126102855761103c612a42565b6110446124f8565b83811015611242576003036112005760ff60125460b01c16156111be5733825260209060148252808320936003850180549560ff8760081c1661117c575495861561113a5761ff001916610100179055600f546110f59291849190878083111561112f576110b3908093612583565b600f556001600160a01b03600554169087855180978195829463a9059cbb60e01b845233908401602090939291936001600160a01b0360408201951681520152565b03925af19081156111265750611109578280f35b8161111f92903d10610ca257610c9381836123d8565b5081808280f35b513d85823e3d90fd5b506110b38280612583565b6064838686519162461bcd60e51b8352820152601760248201527f6e6f20616c6c6f636174696f6e20746f20636c61696d210000000000000000006044820152fd5b6064838686519162461bcd60e51b8352820152601260248201527f68617320636c61696d656420746f6b656e2100000000000000000000000000006044820152fd5b5162461bcd60e51b8152602081840152601360248201527f63616e206e6f7420636c61696d20746f6b656e000000000000000000000000006044820152606490fd5b5162461bcd60e51b8152602081840152601a60248201527f43617049737375654d6f64656c3a2077726f6e672070686173650000000000006044820152606490fd5b602483602186634e487b7160e01b835252fd5b50503461028557816003193601126102855760209060ff60125460c81c1690519015158152f35b9050346104f757826003193601126104f75760209250549051908152f35b505034610285578160031936011261028557602090600e549051908152f35b5050346102855781600319360112610285576020906010549051908152f35b5050346102855781600319360112610285576020906007549051908152f35b8284346103be5760203660031901126103be57506001600160a01b0361131f60209335612359565b92905490519260031b1c168152f35b50503461028557816003193601126102855760209060ff60125460c01c1690519015158152f35b9050346104f757816003193601126104f757602435916001600160a01b03918260125416908251638da5cb5b60e01b8152602081838183965afa908115610a32576113ac9186918991611449575b50163314612419565b6113b46124f8565b8181101561143657600214801561141d575b6113cf90612590565b355b8481106113dc578580f35b80846113e9600193612359565b919054600392831b1c1688526014845261141586868a209261140a85612359565b9054911b1c166126bd565b9055016113d1565b506114266124f8565b81811015611436576003146113c6565b602487602184634e487b7160e01b835252fd5b611462915060203d602011610a2b57610a1d81836123d8565b386113a3565b919050346104f757826003193601126104f7576114836129ee565b6001600160a01b036114998185541633146125db565b600554169080516370a0823160e01b815230848201526020938482602481875afa9182156115645790859291879261152d575b5083516323b872dd60e01b8152309181019182523360208301526040820192909252909384918290889082906060015b03925af19081156111265750611510578280f35b8161152692903d10610ca257610c9381836123d8565b5038808280f35b8381949293503d831161155d575b61154581836123d8565b8101031261155957905184916114fc6114cc565b8580fd5b503d61153b565b83513d88823e3d90fd5b9050346104f757826003193601126104f75732330361166c576001600160a01b0391826012541681519384916312fde4b760e01b8352828560209485935afa94851561156457869561164b575b508190600554169360248451809681936370a0823160e01b835230908301525afa91821561164257508491611612575b506115fa9150600f5490612583565b80611603578280f35b61160c916127ef565b38808280f35b905081813d831161163b575b61162881836123d8565b810103126104f7576115fa9051386115eb565b503d61161e565b513d86823e3d90fd5b8291955061166590823d8411610a2b57610a1d81836123d8565b94906115bb565b6020606492519162461bcd60e51b8352820152601460248201527f4e6f43617049737375653a20454f41206f6e6c790000000000000000000000006044820152fd5b505034610285578160031936011261028557602090600f549051908152f35b5050346102855781600319360112610285576020906003549051908152f35b50503461028557816003193601126102855760209060ff60125460a81c1690519015158152f35b919050346104f757826003193601126104f7576001600160a01b03908160125416928151638da5cb5b60e01b8152602081838183985afa9081156115645761176691859188916114495750163314612419565b61176e6124f8565b818110156118025760021480156117d0575b61178a9150612590565b835b6011548110156117cc5780836117a3600193612359565b919054600392831b1c168752601486526117c4858589209261140a85612359565b90550161178c565b8480f35b506117d96124f8565b90808210156117ef5750600361178a9114611780565b856021602492634e487b7160e01b835252fd5b602486602184634e487b7160e01b835252fd5b9050346104f75760203660031901126104f7578035906118336124f8565b818110156118c05760021480156118a7575b61184e90612590565b6001600160a01b039060208260125416855192838092638da5cb5b60e01b82525afa90811561189d5761188c93945085916114495750163314612419565b6118974282116124ad565b60035580f35b84513d87823e3d90fd5b506118b06124f8565b818110156118c057600314611845565b602485602184634e487b7160e01b835252fd5b5050346102855760203660031901126102855760ff8160a0936001600160a01b036118fc61233e565b168152601460205220918254926001810154916003600283015492015492815195865260208601528401528181161515606084015260081c1615156080820152f35b505034610285578160031936011261028557602090600a549051908152f35b919050346104f757826003193601126104f757601254906001600160a01b0392602082518092638da5cb5b60e01b8252818787165afa9182156116425750926119b69160ff60a81b199486916114495750163314612419565b1660125580f35b5050346102855781600319360112610285576020906013549051908152f35b5050346102855781600319360112610285576020906009549051908152f35b5050346102855781600319360112610285576020906001600160a01b03600554169051908152f35b5050346102855781600319360112610285576020906002549051908152f35b9050346104f75760203660031901126104f75735916011548310156103be57506001600160a01b0361131f602093612359565b505034610285578160031936011261028557602090600c549051908152f35b5050346102855781600319360112610285576020906001600160a01b03600654169051908152f35b83915034610285576101c036600319011261028557611ad961233e565b6001600160a01b03936024918235868116908190036115595760443593878516809503611ee457606435946084359660a4356101043592610184359b8c1515809d03611ee0576101a43590811515809203611edc57611b366124f8565b85811015611eca57611e8857600154611e20576012549816968715611db85742841115611d50579077ff0000000000000000000000000000000000000000000000918d7fffffffffffffffffffffffff0000000000000000000000000000000000000000998a82541617905588600554161760055560b81b169560ff877fffffffffffffffff00ffffffffffffffffffffffffffffffffffffffffffffff33167fffffffffffffffff00ffffff00000000000000000000000000000000000000008b16171760b81c1615611d41575b50508760075588825560015560c43560025560e43560035581600b55670de0b6b3a76400009283600c5583600d55888802918883048a1489151715611d305784830292808404861490151715611d305750507f519ce2da4186674c9f5aaf86a7345c04e976c596990d2efb35baacefdf0710ca98999492611ca3611d2a97959376ff00000000000000000000000000000000000000000000936129ce565b0494856008556101243560095561014435600a556101643560105560b01b16917fffffffffffffffff0000ffff00000000000000000000000000000000000000007fffffffffffffffff0000ffffffffffffffffffffffffffffffffffffffffffff3316911617171760125551938493846040919493926060820195825260208201520152565b0390a180f35b60118b91634e487b7160e01b835252fd5b60065416176006558b80611c05565b60848560398960208e519362461bcd60e51b85528401528201527f43617049737375654d6f64656c3a207374617274206f66206465706f7369746960448201527f6e672063616e206e6f7420626520696e207468652070617374000000000000006064820152fd5b608485602a8960208e519362461bcd60e51b85528401528201527f43617049737375654d6f64656c3a20697373756572206d75737420626520616460448201527f6472657373207a65726f000000000000000000000000000000000000000000006064820152fd5b60848560228960208e519362461bcd60e51b85528401528201527f43617049737375654d6f64656c3a20616c726561647920696e697469616c697a60448201527f65640000000000000000000000000000000000000000000000000000000000006064820152fd5b606485601a8960208e519362461bcd60e51b85528401528201527f43617049737375654d6f64656c3a2077726f6e672070686173650000000000006044820152fd5b878e602188634e487b7160e01b835252fd5b8c80fd5b8b80fd5b8680fd5b5050346102855781600319360112610285576020906008549051908152f35b9050346104f757826003193601126104f75732330361200557601254916001600160a01b03928151936312fde4b760e01b8552602091828686818585165afa958615610a32578796611fe3575b5060b81c60ff16611fcd578190600654169360248451809681936370a0823160e01b835230908301525afa91821561164257508491611f9d575b506115fa915060135490612583565b905081813d8311611fc6575b611fb381836123d8565b810103126104f7576115fa905138611f8e565b503d611fa9565b50505050611fde4760135490612583565b6115fa565b60ff919650611ffe90843d8611610a2b57610a1d81836123d8565b9590611f54565b6020606492519162461bcd60e51b8352820152601760248201527f43617049737375654d6f64656c3a20454f41206f6e6c790000000000000000006044820152fd5b5050346102855781600319360112610285576001600160a01b0360209254169051908152f35b9050346104f75760203660031901126104f757600754908181351061211e57600554845484516323b872dd60e01b81526001600160a01b039182169381019384523060208086019190915260408501959095529493928592908390036060019183918891165af190811561211557506120f6575b506120f0600754600f5461248a565b600f5580f35b61210e9060203d602011610ca257610c9381836123d8565b50386120e1565b513d84823e3d90fd5b608490602084519162461bcd60e51b8352820152602660248201527f616d6f756e74206e6f74206c657373207468616e20697373756564546f6b656e60448201527f416d6f756e7400000000000000000000000000000000000000000000000000006064820152fd5b9050346104f757826003193601126104f757601254916001600160a01b0391602082518092638da5cb5b60e01b8252818688165afa918215611642575060ff60a81b1992750100000000000000000000000000000000000000000094926121f79287916114495750163314612419565b16176012557f7acc84e34091ae817647a4c49116f5cc07f319078ba80f8f5fde37ea7e25cbd68180a180f35b5050346102855781600319360112610285576020906011549051908152f35b83833461028557816003193601126102855761225c6124f8565b9051918382101561226f57602083838152f35b80602185634e487b7160e01b6024945252fd5b9050346104f75760203660031901126104f7578035906001600160a01b039060208260125416855192838092638da5cb5b60e01b82525afa90811561189d576122d693945085916114495750163314612419565b6122ec6122e58260015461248a565b42106124ad565b60025580f35b5050346102855781600319360112610285576020906001600160a01b03601254169051908152f35b84903461028557816003193601126102855760209060ff60125460a01c1615158152f35b600435906001600160a01b038216820361235457565b600080fd5b6011548110156123905760116000527f31ecc21a745e3968a04e9570e4425bc18fa8019c68028196b546d1669c200c680190600090565b634e487b7160e01b600052603260045260246000fd5b60a0810190811067ffffffffffffffff8211176123c257604052565b634e487b7160e01b600052604160045260246000fd5b90601f8019910116810190811067ffffffffffffffff8211176123c257604052565b9081602091031261235457516001600160a01b03811681036123545790565b1561242057565b608460405162461bcd60e51b815260206004820152602d60248201527f43617049737375654d6f64656c3a2063616c6c6572206973206e6f742050616460448201527f466163746f7279206f776e6572000000000000000000000000000000000000006064820152fd5b9190820180921161249757565b634e487b7160e01b600052601160045260246000fd5b156124b457565b606460405162461bcd60e51b815260206004820152600760248201527f696e76616c6964000000000000000000000000000000000000000000000000006044820152fd5b60015480158015612562575b1561250f5750600090565b60025461251c818361248a565b42101561253c57505060ff60125460c01c1661253757600190565b600290565b6125459161248a565b42101580612557575b61253757600390565b50600354421061254e565b50804210612504565b90816020910312612354575180151581036123545790565b9190820391821161249757565b1561259757565b606460405162461bcd60e51b815260206004820152601a60248201527f43617049737375654d6f64656c3a2057726f6e672070686173650000000000006044820152fd5b156125e257565b608460405162461bcd60e51b815260206004820152602660248201527f43617049737375654d6f64656c3a206f6e6c79206973737565722063616e206460448201527f6f207468697300000000000000000000000000000000000000000000000000006064820152fd5b1561265357565b608460405162461bcd60e51b815260206004820152603960248201527f43617049737375654d6f64656c3a206578706563746564206e6f6e2d7a65726f60448201527f207061796d656e7420746f6b656e20746f206465706f736974000000000000006064820152fd5b906001600160a01b036000921682526014602052604082206126dd61279d565b5050905060075481810291818304149015171561272d57600854612700916129ce565b60135491821561274157600101549081810291818304149015171561272d5761272a9293506129ce565b90565b602484634e487b7160e01b81526011600452fd5b505050565b60405190612753826123a6565b60006080838281528260208201528260408201528260608201520152565b67ffffffffffffffff81116123c25760051b60200190565b80518210156123905760209160051b010190565b601354906010548083029083820481148415171561249757612710908101809111612497576127cb916129ce565b6127d58184612583565b916008548084116127e7575b50600090565b9250386127e1565b60125460b81c60ff1661293a576001600160a01b03908160065416916040918251916370a0823160e01b83523060048401526020958684602481895afa93841561292f579087949392916000946128fe575b50838111156128bd5750600654855163a9059cbb60e01b81526001600160a01b03939093166004840152602483019390935290945084916044918391600091165af19081156128b35750612895575b50505b565b816128ab92903d10610ca257610c9381836123d8565b503880612890565b513d6000823e3d90fd5b855163a9059cbb60e01b81526001600160a01b039390931660048401526024830152509384915060449082906000905af19081156128b35750612895575050565b8581969295503d8311612928575b61291681836123d8565b81010312612354578693519238612841565b503d61290c565b85513d6000823e3d90fd5b9047908181111561294f575061289391612a95565b905061289391612a95565b6129626124f8565b60048110156129b85760020361297457565b606460405162461bcd60e51b815260206004820152601a60248201527f43617049737375654d6f64656c3a2077726f6e672070686173650000000000006044820152fd5b634e487b7160e01b600052602160045260246000fd5b81156129d8570490565b634e487b7160e01b600052601260045260246000fd5b60ff60125460a81c16156129fe57565b606460405162461bcd60e51b815260206004820152601f60248201527f43617049737375654d6f64656c3a206973207374696c6c2072756e6e696e67006044820152fd5b60ff60125460a81c16612a5157565b606460405162461bcd60e51b815260206004820152601660248201527f43617049737375654d6f64656c3a2073746f70706564000000000000000000006044820152fd5b60008080809481945af1903d15612b5d573d9067ffffffffffffffff8211612b495760405191612acf601f8201601f1916602001846123d8565b825260203d92013e5b15612adf57565b608460405162461bcd60e51b815260206004820152602560248201527f5472616e7366657248656c7065723a204d455449535f5452414e534645525f4660448201527f41494c45440000000000000000000000000000000000000000000000000000006064820152fd5b80634e487b7160e01b602492526041600452fd5b50612ad856fea264697066735822122022e57d3390ed885f14e3288bcfb5192f528ca03cdda79279d5efa72736c85dbe64736f6c634300081800336080806040523461001657612d28908161001c8239f35b600080fdfe608060408181526004918236101561001657600080fd5b600092833560e01c9182628f2abe14612050575081630205ab5b1461202857816303dcaa5b14611fb8578163055ad42e14611f7857816307973ccf14611f595781631a26af7a14611ebd5781631b2b322b14611da35781631d14384814611d7d5781631dd19cb414611c7b578163240b39e314611c5c5781633013ce2914611c34578163325cd79614611c1557816335c1d34914611be25781633728ae9314611bc3578163417d845c14611b9b57816341b3d18514611b7c5781634e862acc14611b5d57816355873ec014611afd578163590e1ae3146119685781636386c1c7146118fd57816368027e431461183f5781636e984f471461173d57816375f12b2114611716578163790ca413146116f757816384d93a8c146116d8578163853b9ddf146115d657816385634429146114d057816386a61b24146113bd57816390d976e214611386578163940a950e146113675781639a42081414611348578163a035b1fe1461132a578163b0e7073c14611147578163b6b55f2514610e2e578163b920ade214610e08578163c15fc68814610c40578163c629b60914610b8f578163d223e23614610b68578163d3f42d24146109f7578163d9c146de146109d8578163da89d56c146108ed578163db2e21bc146107b7578163dfdf07cf1461078a578163e2842d79146106c2578163ea9988a2146102d857508063eb85342a146102a4578063f1a640f814610286578063f4cbdcfc146102685763f962f7fe1461023f57600080fd5b3461026457816003193601126102645760209060ff60105460b01c1690519015158152f35b5080fd5b5034610264578160031936011261026457602090600a549051908152f35b5034610264578160031936011261026457602090600c549051908152f35b50346102645781600319360112610264576080906102c0612538565b92939091815194855260208501528301526060820152f35b919050346106be576101803660031901126106be576102f56120c1565b906024928335926001600160a01b03938481168091036106ba57604435958587168097036106b657606435966084359460a435610104359261014435998a1515809b036106b25761016435908115158092036106ae5761035361222e565b8581101561069c5761065a576001546106185760105498169687156105b05742841115610548579077ff0000000000000000000000000000000000000000000000918e7fffffffffffffffffffffffff0000000000000000000000000000000000000000998a82541617905588600554161760055560b81b169560ff877fffffffffffffffff00ffffffffffffffffffffffffffffffffffffffffffffff33167fffffffffffffffff00ffffff00000000000000000000000000000000000000008b16171760b81c1615610539575b50508960075586825560015560c43560025560e43560035581600a55670de0b6b3a76400009283600b5583600c5561045a878b612bf1565b9184830292808404861490151715610528578b7f975b497af8215105bf91a6b5a8b1ca1ac561064f85132a8c85e3988f2dcf72e260608d8d8d8d8d8d76ff000000000000000000000000000000000000000000008e6104b98f8f612c04565b0495866008556101243560095560b01b16917fffffffffffffffff0000ffff00000000000000000000000000000000000000007fffffffffffffffff0000ffffffffffffffffffffffffffffffffffffffffffff3316911617171760105581519384526020840152820152a180f35b60118c91634e487b7160e01b835252fd5b60065416176006553880610422565b60848560368960208f519362461bcd60e51b85528401528201527f4e6f43617049737375653a207374617274206f66206465706f736974696e672060448201527f63616e206e6f7420626520696e207468652070617374000000000000000000006064820152fd5b60848560278960208f519362461bcd60e51b85528401528201527f4e6f43617049737375653a20697373756572206d75737420626520616464726560448201527f7373207a65726f000000000000000000000000000000000000000000000000006064820152fd5b606485601f8960208f519362461bcd60e51b85528401528201527f4e6f43617049737375653a20616c726561647920696e697469616c697a6564006044820152fd5b60648560178960208f519362461bcd60e51b85528401528201527f4e6f43617049737375653a2077726f6e672070686173650000000000000000006044820152fd5b878f602188634e487b7160e01b835252fd5b8d80fd5b8c80fd5b8780fd5b8680fd5b8280fd5b828434610787578060031936011261078757908051918290600f549182855260208095018093600f84527f8d1108e10bcb7c27dddfc02ed9d693a074039d026cf4ea4240b40f7d581ac80290845b81811061076a575050508161072691038261210e565b83519485948186019282875251809352850193925b82811061074a57505050500390f35b83516001600160a01b03168552869550938101939281019260010161073b565b82546001600160a01b031684529288019260019283019201610710565b80fd5b505034610264576020366003190112610264576020906107b06107ab6120c1565b6124ee565b9051908152f35b919050346106be57826003193601126106be576107d2612ad6565b3383526012602052808320916001830192835491821561085e57508482945560ff600382015416610846575b505061080c826011546122f7565b6011556108198233612975565b519081527fb98968b75159bd58dc3ea861d5a3e326bcb8cc1aedcad12469b9386cbb3a17f060203392a280f35b61085692935060020154906122f7565b9038806107fe565b60a490602085519162461bcd60e51b8352820152605060248201527f4e6f43617049737375653a206578706563746564207573657220746f2068617660448201527f65206e6f6e2d7a65726f2062616c616e636520746f20706572666f726d20656d60648201527f657267656e6379207769746864726177000000000000000000000000000000006084820152fd5b919050346106be5760203660031901126106be5781359161090c612b7d565b610914612b2a565b6109296001600160a01b03855416331461234f565b610931612538565b5050600d5492915061094383866121c0565b116109955750906109757f26d39082d7f855ce2435a8386aa6c62dc14ae272e8ec397390d6ec2f57c141a092846121c0565b600d556109828333612975565b600d54815193845260208401523392a280f35b606490602084519162461bcd60e51b8352820152601460248201527f4e6f43617049737375653a204f766572666c6f770000000000000000000000006044820152fd5b5050346102645781600319360112610264576020906001549051908152f35b82843461078757806003193601126107875790600f5490610a17826124c2565b90610a248151928361210e565b828252610a30836124c2565b60209390601f1901855b818110610b49575050845b818110610ac05750508051928080850192818652845180945285019301945b828110610a715784840385f35b9091928260a082610ab16001948a516080809180518452602081015160208501526040810151604085015260608101511515606085015201511515910152565b01960191019492919094610a64565b806001600160a01b03610ad96001939897959698612074565b919054600392831b1c1687526012855285872090865191610af9836120dc565b805483528481015487840152600281015488840152015460ff908181161515606084015260081c1615156080820152610b3282896124da565b52610b3d81886124da565b50019492919394610a45565b948093949695610b57612497565b82828a010152019593929495610a3a565b50503461026457816003193601126102645760209060ff60105460b81c1690519015158152f35b50503461026457602036600319011261026457610c3e8160a0936001600160a01b03610bb96120c1565b610bc1612497565b501681526012602052209160ff6003825194610bdc866120dc565b805486526001810154602087015260028101548487015201548181161515606086015260081c16151560808401525180926080809180518452602081015160208501526040810151604085015260608101511515606085015201511515910152565bf35b9050346106be57826003193601126106be57610c5a612b7d565b610c62612b2a565b601054916001600160a01b0391815192638da5cb5b60e01b845260209384818481858a165afa908115610dfe578791610dd1575b50163303610d915760ff8460a01c16610d2a5750907f55bb3cade9d43b798a4fe5ffdd05024b2d7870df53920673bfc7e68047cd0ab191740100000000000000000000000000000000000000007fffffffffffffffffffffff00ffffffffffffffffffffffffffffffffffffffff610d0c612538565b50979150501617601055610d208433612975565b519283523392a280f35b82608492519162461bcd60e51b8352820152602160248201527f4e6f43617049737375653a206665657320686173206265656e2063686172676560448201527f64000000000000000000000000000000000000000000000000000000000000006064820152fd5b8280606493519262461bcd60e51b845283015260248201527f4e6f43617049737375653a206e6f7420706164466163746f7279206f776e65726044820152fd5b610df19150853d8711610df7575b610de9818361210e565b810190612130565b38610c96565b503d610ddf565b84513d89823e3d90fd5b505034610264576020366003190112610264576020906107b0610e296120c1565b612431565b91905060208060031936011261114357823591610e49612b2a565b610e5161222e565b84811015611130576001036110ef5760105460b81c60ff16156110df57610e793415156123c0565b823403611078575b33855260128252600181862001805415610fb2575b610ea18482546121c0565b905560105460b81c60ff16610f7a578183610f0595610ec2826011546121c0565b60115560065484516323b872dd60e01b8152339281019283523060208401526040830193909352919687926001600160a01b03169183918a918391606090910190565b03925af1938415610f70577fd00162658a963ed1bfc4ff82d4c5ddf3d2b28835dea3f61c483ceda1f59e19719394610f43575b50519283523392a280f35b610f6290833d8511610f69575b610f5a818361210e565b810190612294565b5038610f38565b503d610f50565b81513d87823e3d90fd5b7fd00162658a963ed1bfc4ff82d4c5ddf3d2b28835dea3f61c483ceda1f59e1971929350610faa346011546121c0565b601155610d20565b600954841061101057600f5468010000000000000000811015610ffd57806001610fdf9201600f55612074565b81549060031b906001600160a01b0333831b921b1916179055610e96565b602487604188634e487b7160e01b835252fd5b6084858484519162461bcd60e51b8352820152602260248201527f4e6f43617049737375653a206d757374207265616368206d696e206465706f7360448201527f69740000000000000000000000000000000000000000000000000000000000006064820152fd5b5162461bcd60e51b81529283015250603660248201527f4e6f43617049737375653a20706172616d20616d6f756e7420616e64206d736760448201527f2076616c75652073686f756c6420626520657175616c000000000000000000006064820152608490fd5b6110ea8315156123c0565b610e81565b5162461bcd60e51b81529283015250601760248201527f4e6f43617049737375653a2077726f6e672070686173650000000000000000006044820152606490fd5b602486602187634e487b7160e01b835252fd5b8380fd5b838334610264578160031936011261026457611161612b2a565b61116961222e565b83811015611317576003036112d55733825260209060128252808320936003850180549560ff8760081c1661129357549586156112515761ff001916610100179055600e5461120c92918491908780831115611246576111ca9080936122f7565b600e556001600160a01b03600554169087855180978195829463a9059cbb60e01b845233908401602090939291936001600160a01b0360408201951681520152565b03925af190811561123d5750611220578280f35b8161123692903d10610f6957610f5a818361210e565b5081808280f35b513d85823e3d90fd5b506111ca82806122f7565b6064838686519162461bcd60e51b8352820152601760248201527f6e6f20616c6c6f636174696f6e20746f20636c61696d210000000000000000006044820152fd5b6064838686519162461bcd60e51b8352820152601260248201527f68617320636c61696d656420746f6b656e2100000000000000000000000000006044820152fd5b5162461bcd60e51b8152602081840152601760248201527f4e6f43617049737375653a2077726f6e672070686173650000000000000000006044820152606490fd5b602483602186634e487b7160e01b835252fd5b9050346106be57826003193601126106be5760209250549051908152f35b505034610264578160031936011261026457602090600d549051908152f35b5050346102645781600319360112610264576020906007549051908152f35b82843461078757602036600319011261078757506001600160a01b036113ae60209335612074565b92905490519260031b1c168152f35b9050346106be57816003193601126106be57602435916001600160a01b03918260105416908251638da5cb5b60e01b8152602081838183965afa908115610dfe5761141491869189916114b1575b5016331461214f565b61141c61222e565b8181101561149e576002148015611485575b61143790612304565b355b848110611444578580f35b8084611451600193612074565b919054600392831b1c1688526012845261147d86868a209261147285612074565b9054911b1c16612431565b905501611439565b5061148e61222e565b8181101561149e5760031461142e565b602487602184634e487b7160e01b835252fd5b6114ca915060203d602011610df757610de9818361210e565b3861140b565b919050346106be57826003193601126106be576114eb612ad6565b6001600160a01b0361150181855416331461234f565b600554169080516370a0823160e01b815230848201526020938482602481875afa9182156115cc57908592918792611595575b5083516323b872dd60e01b8152309181019182523360208301526040820192909252909384918290889082906060015b03925af190811561123d5750611578578280f35b8161158e92903d10610f6957610f5a818361210e565b5038808280f35b8381949293503d83116115c5575b6115ad818361210e565b810103126115c15790518491611564611534565b8580fd5b503d6115a3565b83513d88823e3d90fd5b9050346106be57826003193601126106be576115f33233146122ac565b6001600160a01b0391826010541681519384916312fde4b760e01b8352828560209485935afa9485156115cc5786956116b7575b508190600554169360248451809681936370a0823160e01b835230908301525afa9182156116ae5750849161167e575b506116669150600e54906122f7565b8061166f578280f35b61167891612975565b38808280f35b905081813d83116116a7575b611694818361210e565b810103126106be57611666905138611657565b503d61168a565b513d86823e3d90fd5b829195506116d190823d8411610df757610de9818361210e565b9490611627565b505034610264578160031936011261026457602090600e549051908152f35b5050346102645781600319360112610264576020906003549051908152f35b50503461026457816003193601126102645760209060ff60105460a81c1690519015158152f35b919050346106be57826003193601126106be576001600160a01b03908160105416928151638da5cb5b60e01b8152602081838183985afa9081156115cc5761179091859188916114b1575016331461214f565b61179861222e565b8181101561182c5760021480156117fa575b6117b49150612304565b835b600f548110156117f65780836117cd600193612074565b919054600392831b1c168752601286526117ee858589209261147285612074565b9055016117b6565b8480f35b5061180361222e565b9080821015611819575060036117b491146117aa565b856021602492634e487b7160e01b835252fd5b602486602184634e487b7160e01b835252fd5b9050346106be5760203660031901126106be5780359061185d61222e565b818110156118ea5760021480156118d1575b61187890612304565b6001600160a01b039060208260105416855192838092638da5cb5b60e01b82525afa9081156118c7576118b693945085916114b1575016331461214f565b6118c14282116121e3565b60035580f35b84513d87823e3d90fd5b506118da61222e565b818110156118ea5760031461186f565b602485602184634e487b7160e01b835252fd5b5050346102645760203660031901126102645760ff8160a0936001600160a01b036119266120c1565b168152601260205220918254926001810154916003600283015492015492815195865260208601528401528181161515606084015260081c1615156080820152f35b919050346106be57826003193601126106be57611983612538565b9250505015611aba5761199461222e565b82811015611aa7576002148015611a8e575b6119af90612304565b33835260126020528083206003810180549360ff8516611a2557507f541b685c22bfb3aa2045f81615f9afa1584049198118cd0e6b50ce7041d0888c9291600191826119fa336124ee565b9687600285015560ff1916179055611a128533612975565b015492815193845260208401523392a280f35b608490602085519162461bcd60e51b8352820152602360248201527f4e6f43617049737375653a20616c726561647920636c61696d6564207265667560448201527f6e647300000000000000000000000000000000000000000000000000000000006064820152fd5b50611a9761222e565b82811015611aa7576003146119a6565b602484602185634e487b7160e01b835252fd5b906020606492519162461bcd60e51b8352820152601660248201527f4e6f43617049737375653a206e6f20726566756e6473000000000000000000006044820152fd5b919050346106be57826003193601126106be57601054906001600160a01b0392602082518092638da5cb5b60e01b8252818787165afa9182156116ae575092611b569160ff60a81b199486916114b1575016331461214f565b1660105580f35b5050346102645781600319360112610264576020906011549051908152f35b5050346102645781600319360112610264576020906009549051908152f35b5050346102645781600319360112610264576020906001600160a01b03600554169051908152f35b5050346102645781600319360112610264576020906002549051908152f35b9050346106be5760203660031901126106be573591600f5483101561078757506001600160a01b036113ae602093612074565b505034610264578160031936011261026457602090600b549051908152f35b5050346102645781600319360112610264576020906001600160a01b03600654169051908152f35b5050346102645781600319360112610264576020906008549051908152f35b9050346106be57826003193601126106be57611c983233146122ac565b601054916001600160a01b03928151936312fde4b760e01b8552602091828686818585165afa958615610dfe578796611d5b575b5060b81c60ff16611d45578190600654169360248451809681936370a0823160e01b835230908301525afa9182156116ae57508491611d15575b506116669150601154906122f7565b905081813d8311611d3e575b611d2b818361210e565b810103126106be57611666905138611d06565b503d611d21565b50505050611d5647601154906122f7565b611666565b60ff919650611d7690843d8611610df757610de9818361210e565b9590611ccc565b5050346102645781600319360112610264576001600160a01b0360209254169051908152f35b9050346106be5760203660031901126106be576007549081813510611e5457600554845484516323b872dd60e01b81526001600160a01b039182169381019384523060208086019190915260408501959095529493928592908390036060019183918891165af1908115611e4b5750611e2c575b50611e26600754600e546121c0565b600e5580f35b611e449060203d602011610f6957610f5a818361210e565b5038611e17565b513d84823e3d90fd5b608490602084519162461bcd60e51b8352820152602660248201527f616d6f756e74206e6f74206c657373207468616e20697373756564546f6b656e60448201527f416d6f756e7400000000000000000000000000000000000000000000000000006064820152fd5b9050346106be57826003193601126106be57601054916001600160a01b0391602082518092638da5cb5b60e01b8252818688165afa9182156116ae575060ff60a81b199275010000000000000000000000000000000000000000009492611f2d9287916114b1575016331461214f565b16176010557f7acc84e34091ae817647a4c49116f5cc07f319078ba80f8f5fde37ea7e25cbd68180a180f35b505034610264578160031936011261026457602090600f549051908152f35b838334610264578160031936011261026457611f9261222e565b90519183821015611fa557602083838152f35b80602185634e487b7160e01b6024945252fd5b9050346106be5760203660031901126106be578035906001600160a01b039060208260105416855192838092638da5cb5b60e01b82525afa9081156118c75761200c93945085916114b1575016331461214f565b61202261201b826001546121c0565b42106121e3565b60025580f35b5050346102645781600319360112610264576020906001600160a01b03601054169051908152f35b84903461026457816003193601126102645760209060ff60105460a01c1615158152f35b600f548110156120ab57600f6000527f8d1108e10bcb7c27dddfc02ed9d693a074039d026cf4ea4240b40f7d581ac8020190600090565b634e487b7160e01b600052603260045260246000fd5b600435906001600160a01b03821682036120d757565b600080fd5b60a0810190811067ffffffffffffffff8211176120f857604052565b634e487b7160e01b600052604160045260246000fd5b90601f8019910116810190811067ffffffffffffffff8211176120f857604052565b908160209103126120d757516001600160a01b03811681036120d75790565b1561215657565b608460405162461bcd60e51b815260206004820152602a60248201527f4e6f43617049737375653a2063616c6c6572206973206e6f742050616446616360448201527f746f7279206f776e6572000000000000000000000000000000000000000000006064820152fd5b919082018092116121cd57565b634e487b7160e01b600052601160045260246000fd5b156121ea57565b606460405162461bcd60e51b815260206004820152600760248201527f696e76616c6964000000000000000000000000000000000000000000000000006044820152fd5b6001548015801561228b575b156122455750600090565b60025461225281836121c0565b421015612260575050600190565b612269916121c0565b42101580612280575b61227b57600390565b600290565b506003544210612272565b5080421061223a565b908160209103126120d7575180151581036120d75790565b156122b357565b606460405162461bcd60e51b815260206004820152601460248201527f4e6f43617049737375653a20454f41206f6e6c790000000000000000000000006044820152fd5b919082039182116121cd57565b1561230b57565b606460405162461bcd60e51b815260206004820152601760248201527f4e6f43617049737375653a2057726f6e672070686173650000000000000000006044820152fd5b1561235657565b608460405162461bcd60e51b815260206004820152602360248201527f4e6f43617049737375653a206f6e6c79206973737565722063616e20646f207460448201527f68697300000000000000000000000000000000000000000000000000000000006064820152fd5b156123c757565b608460405162461bcd60e51b815260206004820152603660248201527f4e6f43617049737375653a206578706563746564206e6f6e2d7a65726f20706160448201527f796d656e7420746f6b656e20746f206465706f736974000000000000000000006064820152fd5b6001600160a01b03166000526012602052604060002061246a612461612455612538565b50509050600754612bf1565b60085490612c04565b6011549091811561248f5761248c92600161248792015490612bf1565b612c04565b90565b505050600090565b604051906124a4826120dc565b60006080838281528260208201528260408201528260608201520152565b67ffffffffffffffff81116120f85760051b60200190565b80518210156120ab5760209160051b010190565b6001600160a01b03166000526012602052604060002061250c612538565b925050506000918161251d57505090565b6001015461248c925061252f91612bf1565b60115490612c04565b601154906001600160a01b0360105416906040918251927f40490a9000000000000000000000000000000000000000000000000000000000845260049160c0858481845afa94851561296a576000956128d1575b5081517fb851f5b4000000000000000000000000000000000000000000000000000000009384825260008183015260209160249083818381885afa9081156128c657600091612899575b50956008549860a0810190600a806125f08d855190612bf1565b048d11156126c1575050849596975051958751968794859384528301525afa9283156126b75750600092612689575b50505b61271090816126318286612bf1565b048561263d86836121c0565b1115612680575061264e9085612bf1565b04905b61265b82856122f7565b92808411612678575b5061248c8261267385876122f7565b6122f7565b925038612664565b91505090612651565b90809250813d83116126b0575b6126a0818361210e565b810103126120d75751388061261f565b503d612696565b513d6000823e3d90fd5b9091506080820191816126d68d855190612bf1565b048d111561273a575050849596975051958751968794859384528301525afa9283156126b7575060009261270c575b5050612622565b90809250813d8311612733575b612723818361210e565b810103126120d757513880612705565b503d612719565b90915060608101918061274f8d855190612bf1565b048d1115612784575050849596975051958751968794859384528301525afa9283156126b7575060009261270c575050612622565b90915087820191816127988d855190612bf1565b048d11156127cd575050849596975051958751968794859384528301525afa9283156126b7575060009261270c575050612622565b90915085810191806127e18d855190612bf1565b048d1115612816575050849596975051958751968794859384528301525afa9283156126b7575060009261270c575050612622565b90915061282482518c612bf1565b048b11612838575b50505050505050612622565b849596975051958751968794859384528301525afa9283156126b7575060009261286b575b50503880808080808061282c565b90809250813d8311612892575b612882818361210e565b810103126120d75751388061285d565b503d612878565b90508381813d83116128bf575b6128b0818361210e565b810103126120d75751386125d6565b503d6128a6565b86513d6000823e3d90fd5b60c0959195813d60c011612962575b816128ed60c0938361210e565b810103126102645782519160c083019083821067ffffffffffffffff83111761294f57509060a0918452805183526020810151602084015283810151848401526060810151606084015260808101516080840152015160a0820152933861258c565b80604187634e487b7160e01b6024945252fd5b3d91506128e0565b82513d6000823e3d90fd5b60105460b81c60ff16612ab6576001600160a01b03908160065416916040918251916370a0823160e01b83523060048401526020958684602481895afa938415612aab57908794939291600094612a7a575b5083811115612a395750600654855163a9059cbb60e01b81526001600160a01b03939093166004840152602483019390935290945084916044918391600091165af19081156126b75750612a1b575b50505b565b81612a3192903d10610f6957610f5a818361210e565b503880612a16565b855163a9059cbb60e01b81526001600160a01b039390931660048401526024830152509384915060449082906000905af19081156126b75750612a1b575050565b8581969295503d8311612aa4575b612a92818361210e565b810103126120d75786935192386129c7565b503d612a88565b85513d6000823e3d90fd5b90479081811115612acb5750612a1991612c24565b9050612a1991612c24565b60ff60105460a81c1615612ae657565b606460405162461bcd60e51b815260206004820152601c60248201527f4e6f43617049737375653a206973207374696c6c2072756e6e696e67000000006044820152fd5b60ff60105460a81c16612b3957565b606460405162461bcd60e51b815260206004820152601360248201527f4e6f43617049737375653a2073746f70706564000000000000000000000000006044820152fd5b612b8561222e565b6004811015612bdb57600203612b9757565b606460405162461bcd60e51b815260206004820152601760248201527f4e6f43617049737375653a2077726f6e672070686173650000000000000000006044820152fd5b634e487b7160e01b600052602160045260246000fd5b818102929181159184041417156121cd57565b8115612c0e570490565b634e487b7160e01b600052601260045260246000fd5b60008080809481945af1903d15612cec573d9067ffffffffffffffff8211612cd85760405191612c5e601f8201601f19166020018461210e565b825260203d92013e5b15612c6e57565b608460405162461bcd60e51b815260206004820152602560248201527f5472616e7366657248656c7065723a204d455449535f5452414e534645525f4660448201527f41494c45440000000000000000000000000000000000000000000000000000006064820152fd5b80634e487b7160e01b602492526041600452fd5b50612c6756fea2646970667358221220a91a9dcada1a6e494fc733273a92aaaf7154193ea36571f7d1a1c6bddad4404e64736f6c63430008180033a26469706673582212203ddbedee745e8dde2375524bdf489a6c06d57967917ca066b71f40ac5ffc31f964736f6c63430008180033",
  "linkReferences": {},
  "deployedLinkReferences": {}
}