{
  "_format": "hh-sol-artifact-1",
  "contractName": "NoCapIssueModel",
  "sourceName": "contracts/NoCapIssueModel.sol",
  "abi": [
    {
      "anonymous": false,
      "inputs": [
        {
          "indexed": true,
          "internalType": "address",
          "name": "user",
          "type": "address"
        },
        {
          "indexed": false,
          "internalType": "uint256",
          "name": "fees",
          "type": "uint256"
        }
      ],
      "name": "FeeCharged",
      "type": "event"
    },
    {
      "anonymous": false,
      "inputs": [
        {
          "indexed": true,
          "internalType": "address",
          "name": "issuer",
          "type": "address"
        },
        {
          "indexed": false,
          "internalType": "uint256",
          "name": "amount",
          "type": "uint256"
        },
        {
          "indexed": false,
          "internalType": "uint256",
          "name": "accAmount",
          "type": "uint256"
        }
      ],
      "name": "IssuerChargedRaised",
      "type": "event"
    },
    {
      "anonymous": false,
      "inputs": [
        {
          "indexed": false,
          "internalType": "uint256",
          "name": "issuedTokenAmount",
          "type": "uint256"
        },
        {
          "indexed": false,
          "internalType": "uint256",
          "name": "price",
          "type": "uint256"
        },
        {
          "indexed": false,
          "internalType": "uint256",
          "name": "targetRaised",
          "type": "uint256"
        }
      ],
      "name": "NoCapIssueEventInitialized",
      "type": "event"
    },
    {
      "anonymous": false,
      "inputs": [
        {
          "indexed": true,
          "internalType": "address",
          "name": "user",
          "type": "address"
        },
        {
          "indexed": false,
          "internalType": "uint256",
          "name": "amount",
          "type": "uint256"
        }
      ],
      "name": "PaymentTokenEmergencyWithdraw",
      "type": "event"
    },
    {
      "anonymous": false,
      "inputs": [],
      "name": "Stopped",
      "type": "event"
    },
    {
      "anonymous": false,
      "inputs": [
        {
          "indexed": true,
          "internalType": "address",
          "name": "user",
          "type": "address"
        },
        {
          "indexed": false,
          "internalType": "uint256",
          "name": "paidAmount",
          "type": "uint256"
        }
      ],
      "name": "UserParticipated",
      "type": "event"
    },
    {
      "anonymous": false,
      "inputs": [
        {
          "indexed": true,
          "internalType": "address",
          "name": "user",
          "type": "address"
        },
        {
          "indexed": false,
          "internalType": "uint256",
          "name": "paidAmount",
          "type": "uint256"
        },
        {
          "indexed": false,
          "internalType": "uint256",
          "name": "refunds",
          "type": "uint256"
        }
      ],
      "name": "UserRefunds",
      "type": "event"
    },
    {
      "inputs": [],
      "name": "DEPOSIT_DURATION",
      "outputs": [
        {
          "internalType": "uint256",
          "name": "",
          "type": "uint256"
        }
      ],
      "stateMutability": "view",
      "type": "function"
    },
    {
      "inputs": [],
      "name": "PRICE_DECIMALS",
      "outputs": [
        {
          "internalType": "uint256",
          "name": "",
          "type": "uint256"
        }
      ],
      "stateMutability": "view",
      "type": "function"
    },
    {
      "inputs": [],
      "name": "accIssuerCharged",
      "outputs": [
        {
          "internalType": "uint256",
          "name": "",
          "type": "uint256"
        }
      ],
      "stateMutability": "view",
      "type": "function"
    },
    {
      "inputs": [],
      "name": "allowEmergencyWithdraw",
      "outputs": [],
      "stateMutability": "nonpayable",
      "type": "function"
    },
    {
      "inputs": [],
      "name": "autoSetAlloc",
      "outputs": [],
      "stateMutability": "nonpayable",
      "type": "function"
    },
    {
      "inputs": [],
      "name": "chargeFees",
      "outputs": [],
      "stateMutability": "nonpayable",
      "type": "function"
    },
    {
      "inputs": [
        {
          "internalType": "uint256",
          "name": "_amount",
          "type": "uint256"
        }
      ],
      "name": "chargeRaised",
      "outputs": [],
      "stateMutability": "nonpayable",
      "type": "function"
    },
    {
      "inputs": [],
      "name": "claimIssuedToken",
      "outputs": [],
      "stateMutability": "nonpayable",
      "type": "function"
    },
    {
      "inputs": [],
      "name": "currentPhase",
      "outputs": [
        {
          "internalType": "enum NoCapIssueModel.Phase",
          "name": "",
          "type": "uint8"
        }
      ],
      "stateMutability": "view",
      "type": "function"
    },
    {
      "inputs": [
        {
          "internalType": "uint256",
          "name": "amount",
          "type": "uint256"
        }
      ],
      "name": "deposit",
      "outputs": [],
      "stateMutability": "payable",
      "type": "function"
    },
    {
      "inputs": [],
      "name": "depositStart",
      "outputs": [
        {
          "internalType": "uint256",
          "name": "",
          "type": "uint256"
        }
      ],
      "stateMutability": "view",
      "type": "function"
    },
    {
      "inputs": [],
      "name": "emergencyWithdraw",
      "outputs": [],
      "stateMutability": "nonpayable",
      "type": "function"
    },
    {
      "inputs": [],
      "name": "emergencyWithdrawIssuedToken",
      "outputs": [],
      "stateMutability": "nonpayable",
      "type": "function"
    },
    {
      "inputs": [],
      "name": "getAllUserInfo",
      "outputs": [
        {
          "components": [
            {
              "internalType": "uint256",
              "name": "allocation",
              "type": "uint256"
            },
            {
              "internalType": "uint256",
              "name": "balance",
              "type": "uint256"
            },
            {
              "internalType": "uint256",
              "name": "refunds",
              "type": "uint256"
            },
            {
              "internalType": "bool",
              "name": "hasClaimedRefunds",
              "type": "bool"
            },
            {
              "internalType": "bool",
              "name": "hasClaimedIssuedToken",
              "type": "bool"
            }
          ],
          "internalType": "struct IIssueModel.UserInfo[]",
          "name": "",
          "type": "tuple[]"
        }
      ],
      "stateMutability": "view",
      "type": "function"
    },
    {
      "inputs": [],
      "name": "getAllUsers",
      "outputs": [
        {
          "internalType": "address[]",
          "name": "",
          "type": "address[]"
        }
      ],
      "stateMutability": "view",
      "type": "function"
    },
    {
      "inputs": [],
      "name": "getFundsDistribution",
      "outputs": [
        {
          "internalType": "uint256",
          "name": "totalRaised",
          "type": "uint256"
        },
        {
          "internalType": "uint256",
          "name": "issuerCharged",
          "type": "uint256"
        },
        {
          "internalType": "uint256",
          "name": "fees",
          "type": "uint256"
        },
        {
          "internalType": "uint256",
          "name": "refunds",
          "type": "uint256"
        }
      ],
      "stateMutability": "view",
      "type": "function"
    },
    {
      "inputs": [
        {
          "internalType": "uint256",
          "name": "_index",
          "type": "uint256"
        }
      ],
      "name": "getUserAddress",
      "outputs": [
        {
          "internalType": "address",
          "name": "",
          "type": "address"
        }
      ],
      "stateMutability": "view",
      "type": "function"
    },
    {
      "inputs": [
        {
          "internalType": "address",
          "name": "_user",
          "type": "address"
        }
      ],
      "name": "getUserAllocation",
      "outputs": [
        {
          "internalType": "uint256",
          "name": "",
          "type": "uint256"
        }
      ],
      "stateMutability": "view",
      "type": "function"
    },
    {
      "inputs": [
        {
          "internalType": "address",
          "name": "",
          "type": "address"
        }
      ],
      "name": "getUserInfo",
      "outputs": [
        {
          "internalType": "uint256",
          "name": "allocation",
          "type": "uint256"
        },
        {
          "internalType": "uint256",
          "name": "balance",
          "type": "uint256"
        },
        {
          "internalType": "uint256",
          "name": "refunds",
          "type": "uint256"
        },
        {
          "internalType": "bool",
          "name": "hasClaimedRefunds",
          "type": "bool"
        },
        {
          "internalType": "bool",
          "name": "hasClaimedIssuedToken",
          "type": "bool"
        }
      ],
      "stateMutability": "view",
      "type": "function"
    },
    {
      "inputs": [
        {
          "internalType": "address",
          "name": "_user",
          "type": "address"
        }
      ],
      "name": "getUserInfoFromMapping",
      "outputs": [
        {
          "components": [
            {
              "internalType": "uint256",
              "name": "allocation",
              "type": "uint256"
            },
            {
              "internalType": "uint256",
              "name": "balance",
              "type": "uint256"
            },
            {
              "internalType": "uint256",
              "name": "refunds",
              "type": "uint256"
            },
            {
              "internalType": "bool",
              "name": "hasClaimedRefunds",
              "type": "bool"
            },
            {
              "internalType": "bool",
              "name": "hasClaimedIssuedToken",
              "type": "bool"
            }
          ],
          "internalType": "struct IIssueModel.UserInfo",
          "name": "",
          "type": "tuple"
        }
      ],
      "stateMutability": "view",
      "type": "function"
    },
    {
      "inputs": [
        {
          "internalType": "address",
          "name": "_user",
          "type": "address"
        }
      ],
      "name": "getUserRefunds",
      "outputs": [
        {
          "internalType": "uint256",
          "name": "",
          "type": "uint256"
        }
      ],
      "stateMutability": "view",
      "type": "function"
    },
    {
      "inputs": [],
      "name": "hasFeeCharged",
      "outputs": [
        {
          "internalType": "bool",
          "name": "",
          "type": "bool"
        }
      ],
      "stateMutability": "view",
      "type": "function"
    },
    {
      "inputs": [
        {
          "internalType": "address",
          "name": "_issuer",
          "type": "address"
        },
        {
          "internalType": "address",
          "name": "_issuedToken",
          "type": "address"
        },
        {
          "internalType": "address",
          "name": "_paymentToken",
          "type": "address"
        },
        {
          "internalType": "uint256",
          "name": "_issuedTokenAmount",
          "type": "uint256"
        },
        {
          "internalType": "uint256",
          "name": "_price",
          "type": "uint256"
        },
        {
          "internalType": "uint256",
          "name": "_depositStartTime",
          "type": "uint256"
        },
        {
          "internalType": "uint256",
          "name": "_depositDuration",
          "type": "uint256"
        },
        {
          "internalType": "uint256",
          "name": "_launchTime",
          "type": "uint256"
        },
        {
          "internalType": "uint256",
          "name": "_decimals",
          "type": "uint256"
        },
        {
          "internalType": "uint256",
          "name": "_minDeposit",
          "type": "uint256"
        },
        {
          "internalType": "bool",
          "name": "_needAutoDistribution",
          "type": "bool"
        },
        {
          "internalType": "bool",
          "name": "_isPaymentNative",
          "type": "bool"
        }
      ],
      "name": "initialize",
      "outputs": [],
      "stateMutability": "nonpayable",
      "type": "function"
    },
    {
      "inputs": [],
      "name": "isPaymentNative",
      "outputs": [
        {
          "internalType": "bool",
          "name": "",
          "type": "bool"
        }
      ],
      "stateMutability": "view",
      "type": "function"
    },
    {
      "inputs": [],
      "name": "issuedToken",
      "outputs": [
        {
          "internalType": "contract IERC20MetadataUpgradeable",
          "name": "",
          "type": "address"
        }
      ],
      "stateMutability": "view",
      "type": "function"
    },
    {
      "inputs": [],
      "name": "issuedTokenAmount",
      "outputs": [
        {
          "internalType": "uint256",
          "name": "",
          "type": "uint256"
        }
      ],
      "stateMutability": "view",
      "type": "function"
    },
    {
      "inputs": [],
      "name": "issuedTokenDecimals",
      "outputs": [
        {
          "internalType": "uint256",
          "name": "",
          "type": "uint256"
        }
      ],
      "stateMutability": "view",
      "type": "function"
    },
    {
      "inputs": [],
      "name": "issuer",
      "outputs": [
        {
          "internalType": "address",
          "name": "",
          "type": "address"
        }
      ],
      "stateMutability": "view",
      "type": "function"
    },
    {
      "inputs": [],
      "name": "launchTime",
      "outputs": [
        {
          "internalType": "uint256",
          "name": "",
          "type": "uint256"
        }
      ],
      "stateMutability": "view",
      "type": "function"
    },
    {
      "inputs": [
        {
          "internalType": "uint256",
          "name": "_start",
          "type": "uint256"
        },
        {
          "internalType": "uint256",
          "name": "_end",
          "type": "uint256"
        }
      ],
      "name": "manullySetAlloc",
      "outputs": [],
      "stateMutability": "nonpayable",
      "type": "function"
    },
    {
      "inputs": [],
      "name": "minDeposit",
      "outputs": [
        {
          "internalType": "uint256",
          "name": "",
          "type": "uint256"
        }
      ],
      "stateMutability": "view",
      "type": "function"
    },
    {
      "inputs": [],
      "name": "needAutoDistribution",
      "outputs": [
        {
          "internalType": "bool",
          "name": "",
          "type": "bool"
        }
      ],
      "stateMutability": "view",
      "type": "function"
    },
    {
      "inputs": [],
      "name": "padFactory",
      "outputs": [
        {
          "internalType": "contract LaunchPadFactory",
          "name": "",
          "type": "address"
        }
      ],
      "stateMutability": "view",
      "type": "function"
    },
    {
      "inputs": [
        {
          "internalType": "uint256",
          "name": "",
          "type": "uint256"
        }
      ],
      "name": "participants",
      "outputs": [
        {
          "internalType": "address",
          "name": "",
          "type": "address"
        }
      ],
      "stateMutability": "view",
      "type": "function"
    },
    {
      "inputs": [],
      "name": "paymentToken",
      "outputs": [
        {
          "internalType": "contract IERC20MetadataUpgradeable",
          "name": "",
          "type": "address"
        }
      ],
      "stateMutability": "view",
      "type": "function"
    },
    {
      "inputs": [],
      "name": "paymentTokenDecimals",
      "outputs": [
        {
          "internalType": "uint256",
          "name": "",
          "type": "uint256"
        }
      ],
      "stateMutability": "view",
      "type": "function"
    },
    {
      "inputs": [],
      "name": "paymentTokenReserve",
      "outputs": [
        {
          "internalType": "uint256",
          "name": "",
          "type": "uint256"
        }
      ],
      "stateMutability": "view",
      "type": "function"
    },
    {
      "inputs": [],
      "name": "price",
      "outputs": [
        {
          "internalType": "uint256",
          "name": "",
          "type": "uint256"
        }
      ],
      "stateMutability": "view",
      "type": "function"
    },
    {
      "inputs": [],
      "name": "recoverStop",
      "outputs": [],
      "stateMutability": "nonpayable",
      "type": "function"
    },
    {
      "inputs": [],
      "name": "refund",
      "outputs": [],
      "stateMutability": "nonpayable",
      "type": "function"
    },
    {
      "inputs": [],
      "name": "skim",
      "outputs": [],
      "stateMutability": "nonpayable",
      "type": "function"
    },
    {
      "inputs": [],
      "name": "skimIssuedToken",
      "outputs": [],
      "stateMutability": "nonpayable",
      "type": "function"
    },
    {
      "inputs": [],
      "name": "stopped",
      "outputs": [
        {
          "internalType": "bool",
          "name": "",
          "type": "bool"
        }
      ],
      "stateMutability": "view",
      "type": "function"
    },
    {
      "inputs": [],
      "name": "storageIssuedTokenAmount",
      "outputs": [
        {
          "internalType": "uint256",
          "name": "",
          "type": "uint256"
        }
      ],
      "stateMutability": "view",
      "type": "function"
    },
    {
      "inputs": [],
      "name": "targetRaised",
      "outputs": [
        {
          "internalType": "uint256",
          "name": "",
          "type": "uint256"
        }
      ],
      "stateMutability": "view",
      "type": "function"
    },
    {
      "inputs": [
        {
          "internalType": "uint256",
          "name": "amount",
          "type": "uint256"
        }
      ],
      "name": "transferIssuedToken",
      "outputs": [],
      "stateMutability": "nonpayable",
      "type": "function"
    },
    {
      "inputs": [
        {
          "internalType": "uint256",
          "name": "_newDuration",
          "type": "uint256"
        }
      ],
      "name": "updateDepositDuration",
      "outputs": [],
      "stateMutability": "nonpayable",
      "type": "function"
    },
    {
      "inputs": [
        {
          "internalType": "uint256",
          "name": "_newLaunchTime",
          "type": "uint256"
        }
      ],
      "name": "updateLaunchTime",
      "outputs": [],
      "stateMutability": "nonpayable",
      "type": "function"
    },
    {
      "inputs": [],
      "name": "userCount",
      "outputs": [
        {
          "internalType": "uint256",
          "name": "",
          "type": "uint256"
        }
      ],
      "stateMutability": "view",
      "type": "function"
    }
  ],
  "bytecode": "0x6080806040523461001657612d28908161001c8239f35b600080fdfe608060408181526004918236101561001657600080fd5b600092833560e01c9182628f2abe14612050575081630205ab5b1461202857816303dcaa5b14611fb8578163055ad42e14611f7857816307973ccf14611f595781631a26af7a14611ebd5781631b2b322b14611da35781631d14384814611d7d5781631dd19cb414611c7b578163240b39e314611c5c5781633013ce2914611c34578163325cd79614611c1557816335c1d34914611be25781633728ae9314611bc3578163417d845c14611b9b57816341b3d18514611b7c5781634e862acc14611b5d57816355873ec014611afd578163590e1ae3146119685781636386c1c7146118fd57816368027e431461183f5781636e984f471461173d57816375f12b2114611716578163790ca413146116f757816384d93a8c146116d8578163853b9ddf146115d657816385634429146114d057816386a61b24146113bd57816390d976e214611386578163940a950e146113675781639a42081414611348578163a035b1fe1461132a578163b0e7073c14611147578163b6b55f2514610e2e578163b920ade214610e08578163c15fc68814610c40578163c629b60914610b8f578163d223e23614610b68578163d3f42d24146109f7578163d9c146de146109d8578163da89d56c146108ed578163db2e21bc146107b7578163dfdf07cf1461078a578163e2842d79146106c2578163ea9988a2146102d857508063eb85342a146102a4578063f1a640f814610286578063f4cbdcfc146102685763f962f7fe1461023f57600080fd5b3461026457816003193601126102645760209060ff60105460b01c1690519015158152f35b5080fd5b5034610264578160031936011261026457602090600a549051908152f35b5034610264578160031936011261026457602090600c549051908152f35b50346102645781600319360112610264576080906102c0612538565b92939091815194855260208501528301526060820152f35b919050346106be576101803660031901126106be576102f56120c1565b906024928335926001600160a01b03938481168091036106ba57604435958587168097036106b657606435966084359460a435610104359261014435998a1515809b036106b25761016435908115158092036106ae5761035361222e565b8581101561069c5761065a576001546106185760105498169687156105b05742841115610548579077ff0000000000000000000000000000000000000000000000918e7fffffffffffffffffffffffff0000000000000000000000000000000000000000998a82541617905588600554161760055560b81b169560ff877fffffffffffffffff00ffffffffffffffffffffffffffffffffffffffffffffff33167fffffffffffffffff00ffffff00000000000000000000000000000000000000008b16171760b81c1615610539575b50508960075586825560015560c43560025560e43560035581600a55670de0b6b3a76400009283600b5583600c5561045a878b612bf1565b9184830292808404861490151715610528578b7f975b497af8215105bf91a6b5a8b1ca1ac561064f85132a8c85e3988f2dcf72e260608d8d8d8d8d8d76ff000000000000000000000000000000000000000000008e6104b98f8f612c04565b0495866008556101243560095560b01b16917fffffffffffffffff0000ffff00000000000000000000000000000000000000007fffffffffffffffff0000ffffffffffffffffffffffffffffffffffffffffffff3316911617171760105581519384526020840152820152a180f35b60118c91634e487b7160e01b835252fd5b60065416176006553880610422565b60848560368960208f519362461bcd60e51b85528401528201527f4e6f43617049737375653a207374617274206f66206465706f736974696e672060448201527f63616e206e6f7420626520696e207468652070617374000000000000000000006064820152fd5b60848560278960208f519362461bcd60e51b85528401528201527f4e6f43617049737375653a20697373756572206d75737420626520616464726560448201527f7373207a65726f000000000000000000000000000000000000000000000000006064820152fd5b606485601f8960208f519362461bcd60e51b85528401528201527f4e6f43617049737375653a20616c726561647920696e697469616c697a6564006044820152fd5b60648560178960208f519362461bcd60e51b85528401528201527f4e6f43617049737375653a2077726f6e672070686173650000000000000000006044820152fd5b878f602188634e487b7160e01b835252fd5b8d80fd5b8c80fd5b8780fd5b8680fd5b8280fd5b828434610787578060031936011261078757908051918290600f549182855260208095018093600f84527f8d1108e10bcb7c27dddfc02ed9d693a074039d026cf4ea4240b40f7d581ac80290845b81811061076a575050508161072691038261210e565b83519485948186019282875251809352850193925b82811061074a57505050500390f35b83516001600160a01b03168552869550938101939281019260010161073b565b82546001600160a01b031684529288019260019283019201610710565b80fd5b505034610264576020366003190112610264576020906107b06107ab6120c1565b6124ee565b9051908152f35b919050346106be57826003193601126106be576107d2612ad6565b3383526012602052808320916001830192835491821561085e57508482945560ff600382015416610846575b505061080c826011546122f7565b6011556108198233612975565b519081527fb98968b75159bd58dc3ea861d5a3e326bcb8cc1aedcad12469b9386cbb3a17f060203392a280f35b61085692935060020154906122f7565b9038806107fe565b60a490602085519162461bcd60e51b8352820152605060248201527f4e6f43617049737375653a206578706563746564207573657220746f2068617660448201527f65206e6f6e2d7a65726f2062616c616e636520746f20706572666f726d20656d60648201527f657267656e6379207769746864726177000000000000000000000000000000006084820152fd5b919050346106be5760203660031901126106be5781359161090c612b7d565b610914612b2a565b6109296001600160a01b03855416331461234f565b610931612538565b5050600d5492915061094383866121c0565b116109955750906109757f26d39082d7f855ce2435a8386aa6c62dc14ae272e8ec397390d6ec2f57c141a092846121c0565b600d556109828333612975565b600d54815193845260208401523392a280f35b606490602084519162461bcd60e51b8352820152601460248201527f4e6f43617049737375653a204f766572666c6f770000000000000000000000006044820152fd5b5050346102645781600319360112610264576020906001549051908152f35b82843461078757806003193601126107875790600f5490610a17826124c2565b90610a248151928361210e565b828252610a30836124c2565b60209390601f1901855b818110610b49575050845b818110610ac05750508051928080850192818652845180945285019301945b828110610a715784840385f35b9091928260a082610ab16001948a516080809180518452602081015160208501526040810151604085015260608101511515606085015201511515910152565b01960191019492919094610a64565b806001600160a01b03610ad96001939897959698612074565b919054600392831b1c1687526012855285872090865191610af9836120dc565b805483528481015487840152600281015488840152015460ff908181161515606084015260081c1615156080820152610b3282896124da565b52610b3d81886124da565b50019492919394610a45565b948093949695610b57612497565b82828a010152019593929495610a3a565b50503461026457816003193601126102645760209060ff60105460b81c1690519015158152f35b50503461026457602036600319011261026457610c3e8160a0936001600160a01b03610bb96120c1565b610bc1612497565b501681526012602052209160ff6003825194610bdc866120dc565b805486526001810154602087015260028101548487015201548181161515606086015260081c16151560808401525180926080809180518452602081015160208501526040810151604085015260608101511515606085015201511515910152565bf35b9050346106be57826003193601126106be57610c5a612b7d565b610c62612b2a565b601054916001600160a01b0391815192638da5cb5b60e01b845260209384818481858a165afa908115610dfe578791610dd1575b50163303610d915760ff8460a01c16610d2a5750907f55bb3cade9d43b798a4fe5ffdd05024b2d7870df53920673bfc7e68047cd0ab191740100000000000000000000000000000000000000007fffffffffffffffffffffff00ffffffffffffffffffffffffffffffffffffffff610d0c612538565b50979150501617601055610d208433612975565b519283523392a280f35b82608492519162461bcd60e51b8352820152602160248201527f4e6f43617049737375653a206665657320686173206265656e2063686172676560448201527f64000000000000000000000000000000000000000000000000000000000000006064820152fd5b8280606493519262461bcd60e51b845283015260248201527f4e6f43617049737375653a206e6f7420706164466163746f7279206f776e65726044820152fd5b610df19150853d8711610df7575b610de9818361210e565b810190612130565b38610c96565b503d610ddf565b84513d89823e3d90fd5b505034610264576020366003190112610264576020906107b0610e296120c1565b612431565b91905060208060031936011261114357823591610e49612b2a565b610e5161222e565b84811015611130576001036110ef5760105460b81c60ff16156110df57610e793415156123c0565b823403611078575b33855260128252600181862001805415610fb2575b610ea18482546121c0565b905560105460b81c60ff16610f7a578183610f0595610ec2826011546121c0565b60115560065484516323b872dd60e01b8152339281019283523060208401526040830193909352919687926001600160a01b03169183918a918391606090910190565b03925af1938415610f70577fd00162658a963ed1bfc4ff82d4c5ddf3d2b28835dea3f61c483ceda1f59e19719394610f43575b50519283523392a280f35b610f6290833d8511610f69575b610f5a818361210e565b810190612294565b5038610f38565b503d610f50565b81513d87823e3d90fd5b7fd00162658a963ed1bfc4ff82d4c5ddf3d2b28835dea3f61c483ceda1f59e1971929350610faa346011546121c0565b601155610d20565b600954841061101057600f5468010000000000000000811015610ffd57806001610fdf9201600f55612074565b81549060031b906001600160a01b0333831b921b1916179055610e96565b602487604188634e487b7160e01b835252fd5b6084858484519162461bcd60e51b8352820152602260248201527f4e6f43617049737375653a206d757374207265616368206d696e206465706f7360448201527f69740000000000000000000000000000000000000000000000000000000000006064820152fd5b5162461bcd60e51b81529283015250603660248201527f4e6f43617049737375653a20706172616d20616d6f756e7420616e64206d736760448201527f2076616c75652073686f756c6420626520657175616c000000000000000000006064820152608490fd5b6110ea8315156123c0565b610e81565b5162461bcd60e51b81529283015250601760248201527f4e6f43617049737375653a2077726f6e672070686173650000000000000000006044820152606490fd5b602486602187634e487b7160e01b835252fd5b8380fd5b838334610264578160031936011261026457611161612b2a565b61116961222e565b83811015611317576003036112d55733825260209060128252808320936003850180549560ff8760081c1661129357549586156112515761ff001916610100179055600e5461120c92918491908780831115611246576111ca9080936122f7565b600e556001600160a01b03600554169087855180978195829463a9059cbb60e01b845233908401602090939291936001600160a01b0360408201951681520152565b03925af190811561123d5750611220578280f35b8161123692903d10610f6957610f5a818361210e565b5081808280f35b513d85823e3d90fd5b506111ca82806122f7565b6064838686519162461bcd60e51b8352820152601760248201527f6e6f20616c6c6f636174696f6e20746f20636c61696d210000000000000000006044820152fd5b6064838686519162461bcd60e51b8352820152601260248201527f68617320636c61696d656420746f6b656e2100000000000000000000000000006044820152fd5b5162461bcd60e51b8152602081840152601760248201527f4e6f43617049737375653a2077726f6e672070686173650000000000000000006044820152606490fd5b602483602186634e487b7160e01b835252fd5b9050346106be57826003193601126106be5760209250549051908152f35b505034610264578160031936011261026457602090600d549051908152f35b5050346102645781600319360112610264576020906007549051908152f35b82843461078757602036600319011261078757506001600160a01b036113ae60209335612074565b92905490519260031b1c168152f35b9050346106be57816003193601126106be57602435916001600160a01b03918260105416908251638da5cb5b60e01b8152602081838183965afa908115610dfe5761141491869189916114b1575b5016331461214f565b61141c61222e565b8181101561149e576002148015611485575b61143790612304565b355b848110611444578580f35b8084611451600193612074565b919054600392831b1c1688526012845261147d86868a209261147285612074565b9054911b1c16612431565b905501611439565b5061148e61222e565b8181101561149e5760031461142e565b602487602184634e487b7160e01b835252fd5b6114ca915060203d602011610df757610de9818361210e565b3861140b565b919050346106be57826003193601126106be576114eb612ad6565b6001600160a01b0361150181855416331461234f565b600554169080516370a0823160e01b815230848201526020938482602481875afa9182156115cc57908592918792611595575b5083516323b872dd60e01b8152309181019182523360208301526040820192909252909384918290889082906060015b03925af190811561123d5750611578578280f35b8161158e92903d10610f6957610f5a818361210e565b5038808280f35b8381949293503d83116115c5575b6115ad818361210e565b810103126115c15790518491611564611534565b8580fd5b503d6115a3565b83513d88823e3d90fd5b9050346106be57826003193601126106be576115f33233146122ac565b6001600160a01b0391826010541681519384916312fde4b760e01b8352828560209485935afa9485156115cc5786956116b7575b508190600554169360248451809681936370a0823160e01b835230908301525afa9182156116ae5750849161167e575b506116669150600e54906122f7565b8061166f578280f35b61167891612975565b38808280f35b905081813d83116116a7575b611694818361210e565b810103126106be57611666905138611657565b503d61168a565b513d86823e3d90fd5b829195506116d190823d8411610df757610de9818361210e565b9490611627565b505034610264578160031936011261026457602090600e549051908152f35b5050346102645781600319360112610264576020906003549051908152f35b50503461026457816003193601126102645760209060ff60105460a81c1690519015158152f35b919050346106be57826003193601126106be576001600160a01b03908160105416928151638da5cb5b60e01b8152602081838183985afa9081156115cc5761179091859188916114b1575016331461214f565b61179861222e565b8181101561182c5760021480156117fa575b6117b49150612304565b835b600f548110156117f65780836117cd600193612074565b919054600392831b1c168752601286526117ee858589209261147285612074565b9055016117b6565b8480f35b5061180361222e565b9080821015611819575060036117b491146117aa565b856021602492634e487b7160e01b835252fd5b602486602184634e487b7160e01b835252fd5b9050346106be5760203660031901126106be5780359061185d61222e565b818110156118ea5760021480156118d1575b61187890612304565b6001600160a01b039060208260105416855192838092638da5cb5b60e01b82525afa9081156118c7576118b693945085916114b1575016331461214f565b6118c14282116121e3565b60035580f35b84513d87823e3d90fd5b506118da61222e565b818110156118ea5760031461186f565b602485602184634e487b7160e01b835252fd5b5050346102645760203660031901126102645760ff8160a0936001600160a01b036119266120c1565b168152601260205220918254926001810154916003600283015492015492815195865260208601528401528181161515606084015260081c1615156080820152f35b919050346106be57826003193601126106be57611983612538565b9250505015611aba5761199461222e565b82811015611aa7576002148015611a8e575b6119af90612304565b33835260126020528083206003810180549360ff8516611a2557507f541b685c22bfb3aa2045f81615f9afa1584049198118cd0e6b50ce7041d0888c9291600191826119fa336124ee565b9687600285015560ff1916179055611a128533612975565b015492815193845260208401523392a280f35b608490602085519162461bcd60e51b8352820152602360248201527f4e6f43617049737375653a20616c726561647920636c61696d6564207265667560448201527f6e647300000000000000000000000000000000000000000000000000000000006064820152fd5b50611a9761222e565b82811015611aa7576003146119a6565b602484602185634e487b7160e01b835252fd5b906020606492519162461bcd60e51b8352820152601660248201527f4e6f43617049737375653a206e6f20726566756e6473000000000000000000006044820152fd5b919050346106be57826003193601126106be57601054906001600160a01b0392602082518092638da5cb5b60e01b8252818787165afa9182156116ae575092611b569160ff60a81b199486916114b1575016331461214f565b1660105580f35b5050346102645781600319360112610264576020906011549051908152f35b5050346102645781600319360112610264576020906009549051908152f35b5050346102645781600319360112610264576020906001600160a01b03600554169051908152f35b5050346102645781600319360112610264576020906002549051908152f35b9050346106be5760203660031901126106be573591600f5483101561078757506001600160a01b036113ae602093612074565b505034610264578160031936011261026457602090600b549051908152f35b5050346102645781600319360112610264576020906001600160a01b03600654169051908152f35b5050346102645781600319360112610264576020906008549051908152f35b9050346106be57826003193601126106be57611c983233146122ac565b601054916001600160a01b03928151936312fde4b760e01b8552602091828686818585165afa958615610dfe578796611d5b575b5060b81c60ff16611d45578190600654169360248451809681936370a0823160e01b835230908301525afa9182156116ae57508491611d15575b506116669150601154906122f7565b905081813d8311611d3e575b611d2b818361210e565b810103126106be57611666905138611d06565b503d611d21565b50505050611d5647601154906122f7565b611666565b60ff919650611d7690843d8611610df757610de9818361210e565b9590611ccc565b5050346102645781600319360112610264576001600160a01b0360209254169051908152f35b9050346106be5760203660031901126106be576007549081813510611e5457600554845484516323b872dd60e01b81526001600160a01b039182169381019384523060208086019190915260408501959095529493928592908390036060019183918891165af1908115611e4b5750611e2c575b50611e26600754600e546121c0565b600e5580f35b611e449060203d602011610f6957610f5a818361210e565b5038611e17565b513d84823e3d90fd5b608490602084519162461bcd60e51b8352820152602660248201527f616d6f756e74206e6f74206c657373207468616e20697373756564546f6b656e60448201527f416d6f756e7400000000000000000000000000000000000000000000000000006064820152fd5b9050346106be57826003193601126106be57601054916001600160a01b0391602082518092638da5cb5b60e01b8252818688165afa9182156116ae575060ff60a81b199275010000000000000000000000000000000000000000009492611f2d9287916114b1575016331461214f565b16176010557f7acc84e34091ae817647a4c49116f5cc07f319078ba80f8f5fde37ea7e25cbd68180a180f35b505034610264578160031936011261026457602090600f549051908152f35b838334610264578160031936011261026457611f9261222e565b90519183821015611fa557602083838152f35b80602185634e487b7160e01b6024945252fd5b9050346106be5760203660031901126106be578035906001600160a01b039060208260105416855192838092638da5cb5b60e01b82525afa9081156118c75761200c93945085916114b1575016331461214f565b61202261201b826001546121c0565b42106121e3565b60025580f35b5050346102645781600319360112610264576020906001600160a01b03601054169051908152f35b84903461026457816003193601126102645760209060ff60105460a01c1615158152f35b600f548110156120ab57600f6000527f8d1108e10bcb7c27dddfc02ed9d693a074039d026cf4ea4240b40f7d581ac8020190600090565b634e487b7160e01b600052603260045260246000fd5b600435906001600160a01b03821682036120d757565b600080fd5b60a0810190811067ffffffffffffffff8211176120f857604052565b634e487b7160e01b600052604160045260246000fd5b90601f8019910116810190811067ffffffffffffffff8211176120f857604052565b908160209103126120d757516001600160a01b03811681036120d75790565b1561215657565b608460405162461bcd60e51b815260206004820152602a60248201527f4e6f43617049737375653a2063616c6c6572206973206e6f742050616446616360448201527f746f7279206f776e6572000000000000000000000000000000000000000000006064820152fd5b919082018092116121cd57565b634e487b7160e01b600052601160045260246000fd5b156121ea57565b606460405162461bcd60e51b815260206004820152600760248201527f696e76616c6964000000000000000000000000000000000000000000000000006044820152fd5b6001548015801561228b575b156122455750600090565b60025461225281836121c0565b421015612260575050600190565b612269916121c0565b42101580612280575b61227b57600390565b600290565b506003544210612272565b5080421061223a565b908160209103126120d7575180151581036120d75790565b156122b357565b606460405162461bcd60e51b815260206004820152601460248201527f4e6f43617049737375653a20454f41206f6e6c790000000000000000000000006044820152fd5b919082039182116121cd57565b1561230b57565b606460405162461bcd60e51b815260206004820152601760248201527f4e6f43617049737375653a2057726f6e672070686173650000000000000000006044820152fd5b1561235657565b608460405162461bcd60e51b815260206004820152602360248201527f4e6f43617049737375653a206f6e6c79206973737565722063616e20646f207460448201527f68697300000000000000000000000000000000000000000000000000000000006064820152fd5b156123c757565b608460405162461bcd60e51b815260206004820152603660248201527f4e6f43617049737375653a206578706563746564206e6f6e2d7a65726f20706160448201527f796d656e7420746f6b656e20746f206465706f736974000000000000000000006064820152fd5b6001600160a01b03166000526012602052604060002061246a612461612455612538565b50509050600754612bf1565b60085490612c04565b6011549091811561248f5761248c92600161248792015490612bf1565b612c04565b90565b505050600090565b604051906124a4826120dc565b60006080838281528260208201528260408201528260608201520152565b67ffffffffffffffff81116120f85760051b60200190565b80518210156120ab5760209160051b010190565b6001600160a01b03166000526012602052604060002061250c612538565b925050506000918161251d57505090565b6001015461248c925061252f91612bf1565b60115490612c04565b601154906001600160a01b0360105416906040918251927f40490a9000000000000000000000000000000000000000000000000000000000845260049160c0858481845afa94851561296a576000956128d1575b5081517fb851f5b4000000000000000000000000000000000000000000000000000000009384825260008183015260209160249083818381885afa9081156128c657600091612899575b50956008549860a0810190600a806125f08d855190612bf1565b048d11156126c1575050849596975051958751968794859384528301525afa9283156126b75750600092612689575b50505b61271090816126318286612bf1565b048561263d86836121c0565b1115612680575061264e9085612bf1565b04905b61265b82856122f7565b92808411612678575b5061248c8261267385876122f7565b6122f7565b925038612664565b91505090612651565b90809250813d83116126b0575b6126a0818361210e565b810103126120d75751388061261f565b503d612696565b513d6000823e3d90fd5b9091506080820191816126d68d855190612bf1565b048d111561273a575050849596975051958751968794859384528301525afa9283156126b7575060009261270c575b5050612622565b90809250813d8311612733575b612723818361210e565b810103126120d757513880612705565b503d612719565b90915060608101918061274f8d855190612bf1565b048d1115612784575050849596975051958751968794859384528301525afa9283156126b7575060009261270c575050612622565b90915087820191816127988d855190612bf1565b048d11156127cd575050849596975051958751968794859384528301525afa9283156126b7575060009261270c575050612622565b90915085810191806127e18d855190612bf1565b048d1115612816575050849596975051958751968794859384528301525afa9283156126b7575060009261270c575050612622565b90915061282482518c612bf1565b048b11612838575b50505050505050612622565b849596975051958751968794859384528301525afa9283156126b7575060009261286b575b50503880808080808061282c565b90809250813d8311612892575b612882818361210e565b810103126120d75751388061285d565b503d612878565b90508381813d83116128bf575b6128b0818361210e565b810103126120d75751386125d6565b503d6128a6565b86513d6000823e3d90fd5b60c0959195813d60c011612962575b816128ed60c0938361210e565b810103126102645782519160c083019083821067ffffffffffffffff83111761294f57509060a0918452805183526020810151602084015283810151848401526060810151606084015260808101516080840152015160a0820152933861258c565b80604187634e487b7160e01b6024945252fd5b3d91506128e0565b82513d6000823e3d90fd5b60105460b81c60ff16612ab6576001600160a01b03908160065416916040918251916370a0823160e01b83523060048401526020958684602481895afa938415612aab57908794939291600094612a7a575b5083811115612a395750600654855163a9059cbb60e01b81526001600160a01b03939093166004840152602483019390935290945084916044918391600091165af19081156126b75750612a1b575b50505b565b81612a3192903d10610f6957610f5a818361210e565b503880612a16565b855163a9059cbb60e01b81526001600160a01b039390931660048401526024830152509384915060449082906000905af19081156126b75750612a1b575050565b8581969295503d8311612aa4575b612a92818361210e565b810103126120d75786935192386129c7565b503d612a88565b85513d6000823e3d90fd5b90479081811115612acb5750612a1991612c24565b9050612a1991612c24565b60ff60105460a81c1615612ae657565b606460405162461bcd60e51b815260206004820152601c60248201527f4e6f43617049737375653a206973207374696c6c2072756e6e696e67000000006044820152fd5b60ff60105460a81c16612b3957565b606460405162461bcd60e51b815260206004820152601360248201527f4e6f43617049737375653a2073746f70706564000000000000000000000000006044820152fd5b612b8561222e565b6004811015612bdb57600203612b9757565b606460405162461bcd60e51b815260206004820152601760248201527f4e6f43617049737375653a2077726f6e672070686173650000000000000000006044820152fd5b634e487b7160e01b600052602160045260246000fd5b818102929181159184041417156121cd57565b8115612c0e570490565b634e487b7160e01b600052601260045260246000fd5b60008080809481945af1903d15612cec573d9067ffffffffffffffff8211612cd85760405191612c5e601f8201601f19166020018461210e565b825260203d92013e5b15612c6e57565b608460405162461bcd60e51b815260206004820152602560248201527f5472616e7366657248656c7065723a204d455449535f5452414e534645525f4660448201527f41494c45440000000000000000000000000000000000000000000000000000006064820152fd5b80634e487b7160e01b602492526041600452fd5b50612c6756fea2646970667358221220a91a9dcada1a6e494fc733273a92aaaf7154193ea36571f7d1a1c6bddad4404e64736f6c63430008180033",
  "linkReferences": {},
  "deployedLinkReferences": {}
}