{
  "_format": "hh-sol-artifact-1",
  "contractName": "CapIssueModel",
  "sourceName": "contracts/CapIssueModel.sol",
  "abi": [
    {
      "anonymous": false,
      "inputs": [
        {
          "indexed": false,
          "internalType": "address",
          "name": "issuer",
          "type": "address"
        },
        {
          "indexed": false,
          "internalType": "address",
          "name": "issueToken",
          "type": "address"
        },
        {
          "indexed": false,
          "internalType": "address",
          "name": "paymentToken",
          "type": "address"
        },
        {
          "indexed": false,
          "internalType": "uint256",
          "name": "depositStart",
          "type": "uint256"
        },
        {
          "indexed": false,
          "internalType": "uint256",
          "name": "duration",
          "type": "uint256"
        },
        {
          "indexed": false,
          "internalType": "uint256",
          "name": "launchTime",
          "type": "uint256"
        },
        {
          "indexed": false,
          "internalType": "uint256",
          "name": "price",
          "type": "uint256"
        },
        {
          "indexed": false,
          "internalType": "uint256",
          "name": "issuedTokenAmount",
          "type": "uint256"
        },
        {
          "indexed": false,
          "internalType": "uint256",
          "name": "targetRaised",
          "type": "uint256"
        },
        {
          "indexed": false,
          "internalType": "uint256",
          "name": "minDeposit",
          "type": "uint256"
        },
        {
          "indexed": false,
          "internalType": "uint256",
          "name": "maxDeposit",
          "type": "uint256"
        },
        {
          "indexed": false,
          "internalType": "uint256",
          "name": "storageIssuedTokenAmount",
          "type": "uint256"
        },
        {
          "indexed": false,
          "internalType": "bool",
          "name": "isPaymentNative",
          "type": "bool"
        },
        {
          "indexed": false,
          "internalType": "uint256",
          "name": "feeRate",
          "type": "uint256"
        }
      ],
      "name": "CapIssueModelEventInitialized",
      "type": "event"
    },
    {
      "anonymous": false,
      "inputs": [
        {
          "indexed": true,
          "internalType": "address",
          "name": "user",
          "type": "address"
        },
        {
          "indexed": false,
          "internalType": "uint256",
          "name": "fees",
          "type": "uint256"
        }
      ],
      "name": "FeeCharged",
      "type": "event"
    },
    {
      "anonymous": false,
      "inputs": [
        {
          "indexed": false,
          "internalType": "uint256",
          "name": "targetRaised",
          "type": "uint256"
        },
        {
          "indexed": false,
          "internalType": "uint256",
          "name": "paymentTokenReserve",
          "type": "uint256"
        },
        {
          "indexed": false,
          "internalType": "uint256",
          "name": "fee",
          "type": "uint256"
        }
      ],
      "name": "IssueSoldOut",
      "type": "event"
    },
    {
      "anonymous": false,
      "inputs": [
        {
          "indexed": false,
          "internalType": "uint256",
          "name": "tokenAmount",
          "type": "uint256"
        },
        {
          "indexed": false,
          "internalType": "address",
          "name": "sender",
          "type": "address"
        },
        {
          "indexed": false,
          "internalType": "uint256",
          "name": "storageAmount",
          "type": "uint256"
        }
      ],
      "name": "IssuedTokenCharge",
      "type": "event"
    },
    {
      "anonymous": false,
      "inputs": [
        {
          "indexed": true,
          "internalType": "address",
          "name": "issuer",
          "type": "address"
        },
        {
          "indexed": false,
          "internalType": "uint256",
          "name": "amount",
          "type": "uint256"
        },
        {
          "indexed": false,
          "internalType": "uint256",
          "name": "accAmount",
          "type": "uint256"
        }
      ],
      "name": "IssuerChargedRaised",
      "type": "event"
    },
    {
      "anonymous": false,
      "inputs": [
        {
          "indexed": true,
          "internalType": "address",
          "name": "user",
          "type": "address"
        },
        {
          "indexed": false,
          "internalType": "uint256",
          "name": "amount",
          "type": "uint256"
        },
        {
          "indexed": false,
          "internalType": "uint256",
          "name": "paymentTokenReserve",
          "type": "uint256"
        }
      ],
      "name": "PaymentTokenEmergencyWithdraw",
      "type": "event"
    },
    {
      "anonymous": false,
      "inputs": [],
      "name": "RecoverStopped",
      "type": "event"
    },
    {
      "anonymous": false,
      "inputs": [
        {
          "indexed": true,
          "internalType": "address",
          "name": "user",
          "type": "address"
        },
        {
          "indexed": false,
          "internalType": "uint256",
          "name": "allocation",
          "type": "uint256"
        }
      ],
      "name": "SetUserAlocation",
      "type": "event"
    },
    {
      "anonymous": false,
      "inputs": [],
      "name": "Stopped",
      "type": "event"
    },
    {
      "anonymous": false,
      "inputs": [
        {
          "indexed": false,
          "internalType": "uint256",
          "name": "newDuration",
          "type": "uint256"
        }
      ],
      "name": "UpdateDepositDurationEvent",
      "type": "event"
    },
    {
      "anonymous": false,
      "inputs": [
        {
          "indexed": false,
          "internalType": "uint256",
          "name": "newLuanchTime",
          "type": "uint256"
        }
      ],
      "name": "UpdateLaunchTimeEvent",
      "type": "event"
    },
    {
      "anonymous": false,
      "inputs": [
        {
          "indexed": true,
          "internalType": "address",
          "name": "user",
          "type": "address"
        },
        {
          "indexed": false,
          "internalType": "uint256",
          "name": "paidAmount",
          "type": "uint256"
        },
        {
          "indexed": false,
          "internalType": "uint256",
          "name": "desiredAmount",
          "type": "uint256"
        },
        {
          "indexed": false,
          "internalType": "uint256",
          "name": "paymentTokenReserve",
          "type": "uint256"
        }
      ],
      "name": "UserParticipated",
      "type": "event"
    },
    {
      "anonymous": false,
      "inputs": [
        {
          "indexed": true,
          "internalType": "address",
          "name": "user",
          "type": "address"
        },
        {
          "indexed": false,
          "internalType": "uint256",
          "name": "claimAmount",
          "type": "uint256"
        },
        {
          "indexed": false,
          "internalType": "uint256",
          "name": "storageIssuedTokenAmount",
          "type": "uint256"
        }
      ],
      "name": "claimIssuedTokenEvent",
      "type": "event"
    },
    {
      "inputs": [],
      "name": "DEPOSIT_DURATION",
      "outputs": [
        {
          "internalType": "uint256",
          "name": "",
          "type": "uint256"
        }
      ],
      "stateMutability": "view",
      "type": "function"
    },
    {
      "inputs": [],
      "name": "PRICE_DECIMALS",
      "outputs": [
        {
          "internalType": "uint256",
          "name": "",
          "type": "uint256"
        }
      ],
      "stateMutability": "view",
      "type": "function"
    },
    {
      "inputs": [],
      "name": "accIssuerCharged",
      "outputs": [
        {
          "internalType": "uint256",
          "name": "",
          "type": "uint256"
        }
      ],
      "stateMutability": "view",
      "type": "function"
    },
    {
      "inputs": [],
      "name": "allowEmergencyWithdraw",
      "outputs": [],
      "stateMutability": "nonpayable",
      "type": "function"
    },
    {
      "inputs": [],
      "name": "autoSetAlloc",
      "outputs": [],
      "stateMutability": "nonpayable",
      "type": "function"
    },
    {
      "inputs": [],
      "name": "chargeFees",
      "outputs": [],
      "stateMutability": "nonpayable",
      "type": "function"
    },
    {
      "inputs": [
        {
          "internalType": "uint256",
          "name": "_amount",
          "type": "uint256"
        }
      ],
      "name": "chargeRaised",
      "outputs": [],
      "stateMutability": "nonpayable",
      "type": "function"
    },
    {
      "inputs": [],
      "name": "claimIssuedToken",
      "outputs": [],
      "stateMutability": "nonpayable",
      "type": "function"
    },
    {
      "inputs": [],
      "name": "currentPhase",
      "outputs": [
        {
          "internalType": "enum CapIssueModel.Phase",
          "name": "",
          "type": "uint8"
        }
      ],
      "stateMutability": "view",
      "type": "function"
    },
    {
      "inputs": [
        {
          "internalType": "uint256",
          "name": "amount",
          "type": "uint256"
        }
      ],
      "name": "deposit",
      "outputs": [],
      "stateMutability": "payable",
      "type": "function"
    },
    {
      "inputs": [],
      "name": "depositStart",
      "outputs": [
        {
          "internalType": "uint256",
          "name": "",
          "type": "uint256"
        }
      ],
      "stateMutability": "view",
      "type": "function"
    },
    {
      "inputs": [],
      "name": "emergencyWithdraw",
      "outputs": [],
      "stateMutability": "nonpayable",
      "type": "function"
    },
    {
      "inputs": [],
      "name": "emergencyWithdrawIssuedToken",
      "outputs": [],
      "stateMutability": "nonpayable",
      "type": "function"
    },
    {
      "inputs": [],
      "name": "feeRate",
      "outputs": [
        {
          "internalType": "uint256",
          "name": "",
          "type": "uint256"
        }
      ],
      "stateMutability": "view",
      "type": "function"
    },
    {
      "inputs": [],
      "name": "getAllUserInfo",
      "outputs": [
        {
          "components": [
            {
              "internalType": "uint256",
              "name": "allocation",
              "type": "uint256"
            },
            {
              "internalType": "uint256",
              "name": "balance",
              "type": "uint256"
            },
            {
              "internalType": "uint256",
              "name": "refunds",
              "type": "uint256"
            },
            {
              "internalType": "bool",
              "name": "hasClaimedRefunds",
              "type": "bool"
            },
            {
              "internalType": "bool",
              "name": "hasClaimedIssuedToken",
              "type": "bool"
            }
          ],
          "internalType": "struct IIssueModel.UserInfo[]",
          "name": "",
          "type": "tuple[]"
        }
      ],
      "stateMutability": "view",
      "type": "function"
    },
    {
      "inputs": [],
      "name": "getAllUsers",
      "outputs": [
        {
          "internalType": "address[]",
          "name": "",
          "type": "address[]"
        }
      ],
      "stateMutability": "view",
      "type": "function"
    },
    {
      "inputs": [],
      "name": "getFundsDistribution",
      "outputs": [
        {
          "internalType": "uint256",
          "name": "totalRaised",
          "type": "uint256"
        },
        {
          "internalType": "uint256",
          "name": "issuerCharged",
          "type": "uint256"
        },
        {
          "internalType": "uint256",
          "name": "fees",
          "type": "uint256"
        },
        {
          "internalType": "uint256",
          "name": "refunds",
          "type": "uint256"
        }
      ],
      "stateMutability": "view",
      "type": "function"
    },
    {
      "inputs": [
        {
          "internalType": "uint256",
          "name": "_index",
          "type": "uint256"
        }
      ],
      "name": "getUserAddress",
      "outputs": [
        {
          "internalType": "address",
          "name": "",
          "type": "address"
        }
      ],
      "stateMutability": "view",
      "type": "function"
    },
    {
      "inputs": [
        {
          "internalType": "address",
          "name": "_user",
          "type": "address"
        }
      ],
      "name": "getUserAllocation",
      "outputs": [
        {
          "internalType": "uint256",
          "name": "",
          "type": "uint256"
        }
      ],
      "stateMutability": "view",
      "type": "function"
    },
    {
      "inputs": [
        {
          "internalType": "address",
          "name": "",
          "type": "address"
        }
      ],
      "name": "getUserInfo",
      "outputs": [
        {
          "internalType": "uint256",
          "name": "allocation",
          "type": "uint256"
        },
        {
          "internalType": "uint256",
          "name": "balance",
          "type": "uint256"
        },
        {
          "internalType": "uint256",
          "name": "refunds",
          "type": "uint256"
        },
        {
          "internalType": "bool",
          "name": "hasClaimedRefunds",
          "type": "bool"
        },
        {
          "internalType": "bool",
          "name": "hasClaimedIssuedToken",
          "type": "bool"
        }
      ],
      "stateMutability": "view",
      "type": "function"
    },
    {
      "inputs": [
        {
          "internalType": "address",
          "name": "_user",
          "type": "address"
        }
      ],
      "name": "getUserInfoFromMapping",
      "outputs": [
        {
          "components": [
            {
              "internalType": "uint256",
              "name": "allocation",
              "type": "uint256"
            },
            {
              "internalType": "uint256",
              "name": "balance",
              "type": "uint256"
            },
            {
              "internalType": "uint256",
              "name": "refunds",
              "type": "uint256"
            },
            {
              "internalType": "bool",
              "name": "hasClaimedRefunds",
              "type": "bool"
            },
            {
              "internalType": "bool",
              "name": "hasClaimedIssuedToken",
              "type": "bool"
            }
          ],
          "internalType": "struct IIssueModel.UserInfo",
          "name": "",
          "type": "tuple"
        }
      ],
      "stateMutability": "view",
      "type": "function"
    },
    {
      "inputs": [],
      "name": "hasFeeCharged",
      "outputs": [
        {
          "internalType": "bool",
          "name": "",
          "type": "bool"
        }
      ],
      "stateMutability": "view",
      "type": "function"
    },
    {
      "inputs": [
        {
          "internalType": "address",
          "name": "_issuer",
          "type": "address"
        },
        {
          "internalType": "address",
          "name": "_issuedToken",
          "type": "address"
        },
        {
          "internalType": "address",
          "name": "_paymentToken",
          "type": "address"
        },
        {
          "internalType": "uint256",
          "name": "_issuedTokenAmount",
          "type": "uint256"
        },
        {
          "internalType": "uint256",
          "name": "_price",
          "type": "uint256"
        },
        {
          "internalType": "uint256",
          "name": "_depositStartTime",
          "type": "uint256"
        },
        {
          "internalType": "uint256",
          "name": "_depositDuration",
          "type": "uint256"
        },
        {
          "internalType": "uint256",
          "name": "_launchTime",
          "type": "uint256"
        },
        {
          "internalType": "uint256",
          "name": "_decimals",
          "type": "uint256"
        },
        {
          "internalType": "uint256",
          "name": "_minDeposit",
          "type": "uint256"
        },
        {
          "internalType": "uint256",
          "name": "_maxDeposit",
          "type": "uint256"
        },
        {
          "internalType": "uint256",
          "name": "_feeRate",
          "type": "uint256"
        },
        {
          "internalType": "bool",
          "name": "_needAutoDistribution",
          "type": "bool"
        },
        {
          "internalType": "bool",
          "name": "_isPaymentNative",
          "type": "bool"
        }
      ],
      "name": "initialize",
      "outputs": [],
      "stateMutability": "nonpayable",
      "type": "function"
    },
    {
      "inputs": [],
      "name": "isPaymentNative",
      "outputs": [
        {
          "internalType": "bool",
          "name": "",
          "type": "bool"
        }
      ],
      "stateMutability": "view",
      "type": "function"
    },
    {
      "inputs": [],
      "name": "issuedToken",
      "outputs": [
        {
          "internalType": "contract IERC20MetadataUpgradeable",
          "name": "",
          "type": "address"
        }
      ],
      "stateMutability": "view",
      "type": "function"
    },
    {
      "inputs": [],
      "name": "issuedTokenAmount",
      "outputs": [
        {
          "internalType": "uint256",
          "name": "",
          "type": "uint256"
        }
      ],
      "stateMutability": "view",
      "type": "function"
    },
    {
      "inputs": [],
      "name": "issuedTokenDecimals",
      "outputs": [
        {
          "internalType": "uint256",
          "name": "",
          "type": "uint256"
        }
      ],
      "stateMutability": "view",
      "type": "function"
    },
    {
      "inputs": [],
      "name": "issuer",
      "outputs": [
        {
          "internalType": "address",
          "name": "",
          "type": "address"
        }
      ],
      "stateMutability": "view",
      "type": "function"
    },
    {
      "inputs": [],
      "name": "launchTime",
      "outputs": [
        {
          "internalType": "uint256",
          "name": "",
          "type": "uint256"
        }
      ],
      "stateMutability": "view",
      "type": "function"
    },
    {
      "inputs": [
        {
          "internalType": "uint256",
          "name": "_start",
          "type": "uint256"
        },
        {
          "internalType": "uint256",
          "name": "_end",
          "type": "uint256"
        }
      ],
      "name": "manullySetAlloc",
      "outputs": [],
      "stateMutability": "nonpayable",
      "type": "function"
    },
    {
      "inputs": [],
      "name": "maxDeposit",
      "outputs": [
        {
          "internalType": "uint256",
          "name": "",
          "type": "uint256"
        }
      ],
      "stateMutability": "view",
      "type": "function"
    },
    {
      "inputs": [],
      "name": "minDeposit",
      "outputs": [
        {
          "internalType": "uint256",
          "name": "",
          "type": "uint256"
        }
      ],
      "stateMutability": "view",
      "type": "function"
    },
    {
      "inputs": [],
      "name": "needAutoDistribution",
      "outputs": [
        {
          "internalType": "bool",
          "name": "",
          "type": "bool"
        }
      ],
      "stateMutability": "view",
      "type": "function"
    },
    {
      "inputs": [],
      "name": "padFactory",
      "outputs": [
        {
          "internalType": "contract LaunchPadFactory",
          "name": "",
          "type": "address"
        }
      ],
      "stateMutability": "view",
      "type": "function"
    },
    {
      "inputs": [
        {
          "internalType": "uint256",
          "name": "",
          "type": "uint256"
        }
      ],
      "name": "participants",
      "outputs": [
        {
          "internalType": "address",
          "name": "",
          "type": "address"
        }
      ],
      "stateMutability": "view",
      "type": "function"
    },
    {
      "inputs": [],
      "name": "paymentToken",
      "outputs": [
        {
          "internalType": "contract IERC20MetadataUpgradeable",
          "name": "",
          "type": "address"
        }
      ],
      "stateMutability": "view",
      "type": "function"
    },
    {
      "inputs": [],
      "name": "paymentTokenDecimals",
      "outputs": [
        {
          "internalType": "uint256",
          "name": "",
          "type": "uint256"
        }
      ],
      "stateMutability": "view",
      "type": "function"
    },
    {
      "inputs": [],
      "name": "paymentTokenReserve",
      "outputs": [
        {
          "internalType": "uint256",
          "name": "",
          "type": "uint256"
        }
      ],
      "stateMutability": "view",
      "type": "function"
    },
    {
      "inputs": [],
      "name": "price",
      "outputs": [
        {
          "internalType": "uint256",
          "name": "",
          "type": "uint256"
        }
      ],
      "stateMutability": "view",
      "type": "function"
    },
    {
      "inputs": [],
      "name": "recoverStop",
      "outputs": [],
      "stateMutability": "nonpayable",
      "type": "function"
    },
    {
      "inputs": [],
      "name": "skim",
      "outputs": [],
      "stateMutability": "nonpayable",
      "type": "function"
    },
    {
      "inputs": [],
      "name": "skimIssuedToken",
      "outputs": [],
      "stateMutability": "nonpayable",
      "type": "function"
    },
    {
      "inputs": [],
      "name": "soldOut",
      "outputs": [
        {
          "internalType": "bool",
          "name": "",
          "type": "bool"
        }
      ],
      "stateMutability": "view",
      "type": "function"
    },
    {
      "inputs": [],
      "name": "stopped",
      "outputs": [
        {
          "internalType": "bool",
          "name": "",
          "type": "bool"
        }
      ],
      "stateMutability": "view",
      "type": "function"
    },
    {
      "inputs": [],
      "name": "storageIssuedTokenAmount",
      "outputs": [
        {
          "internalType": "uint256",
          "name": "",
          "type": "uint256"
        }
      ],
      "stateMutability": "view",
      "type": "function"
    },
    {
      "inputs": [],
      "name": "targetRaised",
      "outputs": [
        {
          "internalType": "uint256",
          "name": "",
          "type": "uint256"
        }
      ],
      "stateMutability": "view",
      "type": "function"
    },
    {
      "inputs": [
        {
          "internalType": "uint256",
          "name": "amount",
          "type": "uint256"
        }
      ],
      "name": "transferIssuedToken",
      "outputs": [],
      "stateMutability": "nonpayable",
      "type": "function"
    },
    {
      "inputs": [
        {
          "internalType": "uint256",
          "name": "_newDuration",
          "type": "uint256"
        }
      ],
      "name": "updateDepositDuration",
      "outputs": [],
      "stateMutability": "nonpayable",
      "type": "function"
    },
    {
      "inputs": [
        {
          "internalType": "uint256",
          "name": "_newLaunchTime",
          "type": "uint256"
        }
      ],
      "name": "updateLaunchTime",
      "outputs": [],
      "stateMutability": "nonpayable",
      "type": "function"
    },
    {
      "inputs": [],
      "name": "userCount",
      "outputs": [
        {
          "internalType": "uint256",
          "name": "",
          "type": "uint256"
        }
      ],
      "stateMutability": "view",
      "type": "function"
    }
  ],
  "bytecode": "0x6080806040523461001657612bf3908161001c8239f35b600080fdfe608080604052600436101561001357600080fd5b60003560e01c9081628f2abe14612400575080630205ab5b146123d957806303dcaa5b1461233d578063055ad42e1461231157806307973ccf146122f35780631a26af7a146122585780631b2b322b146120da5780631d143848146120b35780631dd19cb414611f72578063240b39e314611f5457806324ac39ff14611af85780633013ce2914611ad1578063325cd79614611ab357806335c1d34914611a825780633728ae9314611a64578063417d845c14611a3d57806341b3d18514611a1f5780634e862acc14611a0157806355873ec01461197f5780636083e59a146119615780636386c1c7146118f357806368027e431461180d5780636e984f47146116dc57806375f12b21146116b6578063790ca4131461169857806384d93a8c1461167a578063853b9ddf14611546578063856344291461146457806386a61b2414611322578063893da6c9146112fc57806390d976e2146112c6578063940a950e146112a8578063978bbdb91461128a5780639a4208141461126c578063a035b1fe1461124e578063b0e7073c14611012578063b6b55f2514610a4c578063b920ade214610a21578063c15fc6881461082c578063c629b60914610777578063d223e23614610751578063d3f42d24146105ea578063d9c146de146105cc578063da89d56c146104e3578063db2e21bc146103a6578063e2842d79146102de578063eb85342a146102ab578063f1a640f81461028d578063f4cbdcfc1461026f5763f962f7fe1461024457600080fd5b3461026a57600036600319011261026a57602060ff60125460b01c166040519015158152f35b600080fd5b3461026a57600036600319011261026a576020600b54604051908152f35b3461026a57600036600319011261026a576020600d54604051908152f35b3461026a57600036600319011261026a5760806102c6612851565b91604051938452602084015260408301526060820152f35b3461026a57600036600319011261026a57604051806011548083526020809301809160116000527f31ecc21a745e3968a04e9570e4425bc18fa8019c68028196b546d1669c200c689060005b86828210610389578686610340828803836124a2565b604051928392818401908285525180915260408401929160005b82811061036957505050500390f35b83516001600160a01b03168552869550938101939281019260010161035a565b83546001600160a01b03168552909301926001928301920161032a565b3461026a57600036600319011261026a576103bf612a48565b33600052601460205260406000206001810190815490811561045357600082935560ff60038201541661043d575b826103fa81601354612637565b60135561040781336128a3565b60135460405191825260208201527f1cc4296fc114fa1a2553da447457565b8322925197ec517347a55daee2de7b9d60403392a2005b61044c92506002015490612637565b81806103ed565b60a460405162461bcd60e51b815260206004820152605360248201527f43617049737375654d6f64656c3a206578706563746564207573657220746f2060448201527f68617665206e6f6e2d7a65726f2062616c616e636520746f20706572666f726d60648201527f20656d657267656e6379207769746864726177000000000000000000000000006084820152fd5b3461026a57602036600319011261026a576004356104ff612a0e565b610507612a9c565b61051d6001600160a01b0360005416331461268f565b610525612851565b5050600e5491506105368284612554565b11610588576105459082612554565b600e5561055281336128a3565b600e5460405191825260208201527f26d39082d7f855ce2435a8386aa6c62dc14ae272e8ec397390d6ec2f57c141a060403392a2005b606460405162461bcd60e51b815260206004820152601760248201527f43617049737375654d6f64656c3a204f766572666c6f770000000000000000006044820152fd5b3461026a57600036600319011261026a576020600154604051908152f35b3461026a57600036600319011261026a5760115461060781612825565b9061061560405192836124a2565b80825261062181612825565b60209190601f19018260005b82811061073b5750505060005b8181106106b757604080518481528551818601819052868601928201908660005b8281106106685784840385f35b9091928260a0826106a86001948a516080809180518452602081015160208501526040810151604085015260608101511515606085015201511515910152565b0196019101949291909461065b565b806001600160a01b036106cb600193612439565b919054600392831b1c1660005260148552604060002090604051916106ef83612486565b80548352848101548784015260028101546040840152015460ff908181161515606084015260081c1615156080820152610729828761283d565b52610734818661283d565b500161063a565b6107436127fa565b82828801015201839061062d565b3461026a57600036600319011261026a57602060ff60125460b81c166040519015158152f35b3461026a57602036600319011261026a576001600160a01b03610798612423565b6107a06127fa565b5016600052601460205260a0604060002060ff6003604051926107c284612486565b80548452600181015460208501526002810154604085015201548181161515606084015260081c161515608082015261082a60405180926080809180518452602081015160208501526040810151604085015260608101511515606085015201511515910152565bf35b3461026a57600036600319011261026a57610845612a0e565b61084d612a9c565b6012546001600160a01b0360405190638da5cb5b60e01b825260209182816004818588165afa908115610a15576000916109e8575b5016330361097e5760ff8260a01c16610915577f55bb3cade9d43b798a4fe5ffdd05024b2d7870df53920673bfc7e68047cd0ab190740100000000000000000000000000000000000000007fffffffffffffffffffffff00ffffffffffffffffffffffffffffffffffffffff6108f6612851565b5096915050161760125561090a83336128a3565b6040519283523392a2005b6084906040519062461bcd60e51b825260048201526024808201527f43617049737375654d6f64656c3a206665657320686173206265656e2063686160448201527f72676564000000000000000000000000000000000000000000000000000000006064820152fd5b6084906040519062461bcd60e51b82526004820152602360248201527f43617049737375654d6f64656c3a206e6f7420706164466163746f7279206f7760448201527f6e657200000000000000000000000000000000000000000000000000000000006064820152fd5b610a089150833d8511610a0e575b610a0081836124a2565b8101906124c4565b84610882565b503d6109f6565b6040513d6000823e3d90fd5b3461026a57602036600319011261026a576020610a44610a3f612423565b612771565b604051908152f35b60208060031936011261026a5760043590610a65612a9c565b610a6d6125ac565b6004811015610ffc57600103610fb85760139182549060085491601054808402908482041484151715610fa2576127108491049182808211610f47575b50505060ff60125460b81c16600014610f3757610ac8341515612700565b813403610ecd575b33600052601484526001610ae960406000209483612554565b930194855415610d8f575b8295600090825486610b068783612554565b1015610d6f575b50610b19888254612554565b90600a548211610cdf575560125460b81c60ff16610c935750610b3d868254612554565b81556006546040516323b872dd60e01b81523360048201523060248201526044810188905295908190879060649082906000906001600160a01b03165af1958615610a15577f44da1c981094396f5fd8a1b18690bdd6a625f76508fa8140c563f4af6508814596610c65575b50505b5480938114610bd2575b50506040805194855260208501919091528301523391606090a2005b7f96baae34504d78de1c35d2d189f8246647b0ffaa98f7b4bcc9bb74224e7284d39178010000000000000000000000000000000000000000000000007fffffffffffffff00ffffffffffffffffffffffffffffffffffffffffffffffff6012541617601255610c5b60085491604051938493846040919493926060820195825260208201520152565b0390a18482610bb6565b81610c8492903d10610c8c575b610c7c81836124a2565b81019061261f565b508680610ba9565b503d610c72565b7f44da1c981094396f5fd8a1b18690bdd6a625f76508fa8140c563f4af650881459550610cc1878354612554565b825580610ccf575b50610bac565b610cd990336128a3565b86610cc9565b60a4886040519062461bcd60e51b82526004820152604160248201527f43617049737375654d6f64656c3a746f74616c20616d6f756e74206d7573742060448201527f6265206c657373207468616e206f7220657175616c206d6178206465706f736960648201527f74000000000000000000000000000000000000000000000000000000000000006084820152fd5b909750610d7d915085612637565b95610d888785612637565b9088610b0d565b6009548310610e6357600a548311610df95760115468010000000000000000811015610de357806001610dc59201601155612439565b81549060031b906001600160a01b0333831b921b1916179055610af4565b634e487b7160e01b600052604160045260246000fd5b6084856040519062461bcd60e51b82526004820152603560248201527f43617049737375654d6f64656c3a206d757374206265206c657373207468616e60448201527f206f7220657175616c206d6178206465706f73697400000000000000000000006064820152fd5b6084856040519062461bcd60e51b82526004820152602560248201527f43617049737375654d6f64656c3a206d757374207265616368206d696e20646560448201527f706f7369740000000000000000000000000000000000000000000000000000006064820152fd5b6084846040519062461bcd60e51b82526004820152603960248201527f43617049737375654d6f64656c3a20706172616d20616d6f756e7420616e642060448201527f6d73672076616c75652073686f756c6420626520657175616c000000000000006064820152fd5b610f42821515612700565b610ad0565b610f5091612637565b1015610f5e57828682610aaa565b6064846040519062461bcd60e51b82526004820152601b60248201527f43617049737375654d6f64656c3a206465706f7369742066756c6c00000000006044820152fd5b634e487b7160e01b600052601160045260246000fd5b6064906040519062461bcd60e51b82526004820152601a60248201527f43617049737375654d6f64656c3a2077726f6e672070686173650000000000006044820152fd5b634e487b7160e01b600052602160045260246000fd5b3461026a57600036600319011261026a5761102b612a9c565b6110336125ac565b6004811015610ffc5760030361120a5760ff60125460b01c16156111c657336000526020601481526040600020906003820180549260ff8460081c16611182575492831561113e5761ff001916610100179055600f5491808311156111335761109d908093612637565b600f5560055460405163a9059cbb60e01b815233600482015260248101849052908290829060449082906000906001600160a01b03165af18015610a1557611116575b50600f54906040519283528201527ff02c6b636e42d3684de0fcefa1b1aa2c411de898387e21b1f63e4bfce570bb3a60403392a2005b61112c90823d8411610c8c57610c7c81836124a2565b50826110e0565b5061109d8280612637565b6064836040519062461bcd60e51b82526004820152601760248201527f6e6f20616c6c6f636174696f6e20746f20636c61696d210000000000000000006044820152fd5b6064836040519062461bcd60e51b82526004820152601260248201527f68617320636c61696d656420746f6b656e2100000000000000000000000000006044820152fd5b606460405162461bcd60e51b815260206004820152601360248201527f63616e206e6f7420636c61696d20746f6b656e000000000000000000000000006044820152fd5b606460405162461bcd60e51b815260206004820152601a60248201527f43617049737375654d6f64656c3a2077726f6e672070686173650000000000006044820152fd5b3461026a57600036600319011261026a576020600454604051908152f35b3461026a57600036600319011261026a576020600e54604051908152f35b3461026a57600036600319011261026a576020601054604051908152f35b3461026a57600036600319011261026a576020600754604051908152f35b3461026a57602036600319011261026a5760206001600160a01b036112ec600435612439565b9190546040519260031b1c168152f35b3461026a57600036600319011261026a57602060ff60125460c01c166040519015158152f35b3461026a57604036600319011261026a576024356001600160a01b0390816012541691604051638da5cb5b60e01b815260208160048183975afa908115610a155761137a918391600091611445575b501633146124e3565b6113826125ac565b6004811015610ffc57600214801561142b575b61139e90612644565b6004355b8281106113ab57005b80826113b8600193612439565b919054600392831b1c16600052601486527fb149fac85f173bbff866426acfb2743fba815e2b5b41cf508ace9f45e3744206868560406000209361140b826113ff88612439565b905490841b1c16612771565b80955561141786612439565b9054911b1c1692604051908152a2016113a2565b506114346125ac565b6004811015610ffc57600314611395565b61145e915060203d602011610a0e57610a0081836124a2565b86611371565b3461026a57600036600319011261026a5761147d612a48565b6001600160a01b036114948160005416331461268f565b600554166040516370a0823160e01b81523060048201526020918282602481845afa8015610a15578392600091611514575b5060405163a9059cbb60e01b815233600482015260248101919091529190829060449082906000905af18015610a15576114fc57005b8161151292903d10610c8c57610c7c81836124a2565b005b83819492503d831161153f575b61152b81836124a2565b8101031261026a57905182919060006114c6565b503d611521565b3461026a57600036600319011261026a57323303611636576001600160a01b03806012541660405180916312fde4b760e01b825281600460209384935afa918215610a1557600092611614575b50806024929360055416604051938480926370a0823160e01b82523060048301525afa908115610a15576000916115e4575b506115d49150600f5490612637565b806115db57005b611512916128a3565b905081813d831161160d575b6115fa81836124a2565b8101031261026a576115d49051836115c5565b503d6115f0565b6024925061162f8291823d8411610a0e57610a0081836124a2565b9250611593565b606460405162461bcd60e51b815260206004820152601460248201527f4e6f43617049737375653a20454f41206f6e6c790000000000000000000000006044820152fd5b3461026a57600036600319011261026a576020600f54604051908152f35b3461026a57600036600319011261026a576020600354604051908152f35b3461026a57600036600319011261026a57602060ff60125460a81c166040519015158152f35b3461026a57600036600319011261026a576001600160a01b03806012541690604051638da5cb5b60e01b815260208160048183965afa908115610a155761172f9183916000916117ee57501633146124e3565b6117376125ac565b6004811015610ffc5760021480156117d4575b61175390612644565b60005b60115481101561151257808261176d600193612439565b919054600392831b1c16600052601485527fb149fac85f173bbff866426acfb2743fba815e2b5b41cf508ace9f45e374420685856040600020936117b4826113ff88612439565b8095556117c086612439565b9054911b1c1692604051908152a201611756565b506117dd6125ac565b6004811015610ffc5760031461174a565b611807915060203d602011610a0e57610a0081836124a2565b85611371565b3461026a57602036600319011261026a576004356118296125ac565b6004811015610ffc5760021480156118d9575b61184590612644565b60046001600160a01b03916020836012541660405193848092638da5cb5b60e01b82525afa918215610a15577f513a654da6e21e3dd8eb8c911c92af7fb399e84e65de1fae839afb0213b84e46936020936118aa926000916118c257501633146124e3565b6118b5428211612561565b80600355604051908152a1005b61145e9150853d8711610a0e57610a0081836124a2565b506118e26125ac565b6004811015610ffc5760031461183c565b3461026a57602036600319011261026a576001600160a01b03611914612423565b16600052601460205260a0604060002060ff8154916001810154906003600282015491015491604051948552602085015260408401528181161515606084015260081c1615156080820152f35b3461026a57600036600319011261026a576020600a54604051908152f35b3461026a57600036600319011261026a576012546001600160a01b0390604051638da5cb5b60e01b81526020816004818686165afa928315610a155760ff60a81b19936119d6926000916117ee57501633146124e3565b166012557f08b16cfeab45b89edc067cbd4a68c81cfa75390ecbb33d8201a4f51facbbd4c5600080a1005b3461026a57600036600319011261026a576020601354604051908152f35b3461026a57600036600319011261026a576020600954604051908152f35b3461026a57600036600319011261026a5760206001600160a01b0360055416604051908152f35b3461026a57600036600319011261026a576020600254604051908152f35b3461026a57602036600319011261026a5760043560115481101561026a576001600160a01b036112ec602092612439565b3461026a57600036600319011261026a576020600c54604051908152f35b3461026a57600036600319011261026a5760206001600160a01b0360065416604051908152f35b3461026a576101c036600319011261026a57611b12612423565b6024356001600160a01b0391828216820361026a57604435838116810361026a576101843593841515850361026a576101a435801515810361026a57611b566125ac565b6004811015610ffc5761120a57600154611eea576012549180851615611e80574260a4351115611e16577fffffffffffffffffffffffff000000000000000000000000000000000000000081861681600054161760005581871681600554161760055560ff60ff60b81b84151560b81b167fffffffffffffffff00ffffffffffffffffffffffffffffffffffffffffffffff33167fffffffffffffffff00ffffff00000000000000000000000000000000000000008716171760b81c1615611e04575b5060643560075560843560045560a43560015560c43560025560e43560035561010435600b55670de0b6b3a7640000600c55670de0b6b3a7640000600d5560843560643502606435810460843514606435151715610fa25780670de0b6b3a7640000810204670de0b6b3a76400001481151715610fa2577f2399e11ba3240304b47155a0345c63583a85508aa93ea8d5b6faabc4f1a60741976101c09760ff9660ff60b81b94670de0b6b3a7640000611cf076ff000000000000000000000000000000000000000000009682610104359102612a28565b0491826008556101243560095561014435600a55610164356010558585151560b01b1661ffff60b01b1933167fffffffffffffffff0000ffff00000000000000000000000000000000000000008b1617888a151560b81b16171760125581600f5494816040519d168d521660208c01521660408a015260a43560608a015260c43560808a015260e43560a08a015260843560c08a015260643560e08a01526101008901526101243561012089015261014435610140890152610160880152151560b01b16927fffffffffffffffff0000ffff000000000000000000000000000000000000000061ffff60b01b19331691161791151560b81b16171760b81c161515610180820152610164356101a0820152a1005b81851690600654161760065587611c19565b608460405162461bcd60e51b815260206004820152603960248201527f43617049737375654d6f64656c3a207374617274206f66206465706f7369746960448201527f6e672063616e206e6f7420626520696e207468652070617374000000000000006064820152fd5b608460405162461bcd60e51b815260206004820152602a60248201527f43617049737375654d6f64656c3a20697373756572206d75737420626520616460448201527f6472657373207a65726f000000000000000000000000000000000000000000006064820152fd5b608460405162461bcd60e51b815260206004820152602260248201527f43617049737375654d6f64656c3a20616c726561647920696e697469616c697a60448201527f65640000000000000000000000000000000000000000000000000000000000006064820152fd5b3461026a57600036600319011261026a576020600854604051908152f35b3461026a57600036600319011261026a5732330361206f576012546001600160a01b03604051916312fde4b760e01b835260209081846004818685165afa938415610a155760009461204d575b5060b81c60ff16612039578060249260065416604051938480926370a0823160e01b82523060048301525afa908115610a1557600091612009575b506115d4915060135490612637565b905081813d8311612032575b61201f81836124a2565b8101031261026a576115d4905183611ffa565b503d612015565b50506120484760135490612637565b6115d4565b60ff91945061206890833d8511610a0e57610a0081836124a2565b9390611fbf565b606460405162461bcd60e51b815260206004820152601760248201527f43617049737375654d6f64656c3a20454f41206f6e6c790000000000000000006044820152fd5b3461026a57600036600319011261026a5760206001600160a01b0360005416604051908152f35b3461026a5760208060031936011261026a57600754906004358281106121ee57600554600080546040516323b872dd60e01b81526001600160a01b0391821660048201523060248201526044810196909652849286926064928492165af1918215610a15577f029697fa99f575a35ec1ca6b06cdcfc85829448d8b2817f73452254f735899bd936060936121d1575b50612178600754600f54612554565b9081600f557601000000000000000000000000000000000000000000007fffffffffffffffffff00ffffffffffffffffffffffffffffffffffffffffffff601254161760125560405192835233908301526040820152a1005b6121e790823d8411610c8c57610c7c81836124a2565b5084612169565b6084826040519062461bcd60e51b82526004820152602660248201527f616d6f756e74206e6f74206c657373207468616e20697373756564546f6b656e60448201527f416d6f756e7400000000000000000000000000000000000000000000000000006064820152fd5b3461026a57600036600319011261026a57601254604051638da5cb5b60e01b81526001600160a01b03916020826004818685165afa918215610a155775010000000000000000000000000000000000000000009360ff60a81b19936122c79260009161144557501633146124e3565b16176012557f7acc84e34091ae817647a4c49116f5cc07f319078ba80f8f5fde37ea7e25cbd6600080a1005b3461026a57600036600319011261026a576020601154604051908152f35b3461026a57600036600319011261026a5761232a6125ac565b6040516004821015610ffc576020918152f35b3461026a57602036600319011261026a5760043560046001600160a01b03916020836012541660405193848092638da5cb5b60e01b82525afa918215610a15577f61b871a906dd1307e7b80a111a52a0a69e93ed6f272c419de95ede09a554d8a8936020936123b6926000916118c257501633146124e3565b6123cc6123c582600154612554565b4210612561565b80600255604051908152a1005b3461026a57600036600319011261026a5760206001600160a01b0360125416604051908152f35b3461026a57600036600319011261026a5760209060ff60125460a01c1615158152f35b600435906001600160a01b038216820361026a57565b6011548110156124705760116000527f31ecc21a745e3968a04e9570e4425bc18fa8019c68028196b546d1669c200c680190600090565b634e487b7160e01b600052603260045260246000fd5b60a0810190811067ffffffffffffffff821117610de357604052565b90601f8019910116810190811067ffffffffffffffff821117610de357604052565b9081602091031261026a57516001600160a01b038116810361026a5790565b156124ea57565b608460405162461bcd60e51b815260206004820152602d60248201527f43617049737375654d6f64656c3a2063616c6c6572206973206e6f742050616460448201527f466163746f7279206f776e6572000000000000000000000000000000000000006064820152fd5b91908201809211610fa257565b1561256857565b606460405162461bcd60e51b815260206004820152600760248201527f696e76616c6964000000000000000000000000000000000000000000000000006044820152fd5b60015480158015612616575b156125c35750600090565b6002546125d08183612554565b4210156125f057505060ff60125460c01c166125eb57600190565b600290565b6125f991612554565b4210158061260b575b6125eb57600390565b506003544210612602565b508042106125b8565b9081602091031261026a5751801515810361026a5790565b91908203918211610fa257565b1561264b57565b606460405162461bcd60e51b815260206004820152601a60248201527f43617049737375654d6f64656c3a2057726f6e672070686173650000000000006044820152fd5b1561269657565b608460405162461bcd60e51b815260206004820152602660248201527f43617049737375654d6f64656c3a206f6e6c79206973737565722063616e206460448201527f6f207468697300000000000000000000000000000000000000000000000000006064820152fd5b1561270757565b608460405162461bcd60e51b815260206004820152603960248201527f43617049737375654d6f64656c3a206578706563746564206e6f6e2d7a65726f60448201527f207061796d656e7420746f6b656e20746f206465706f736974000000000000006064820152fd5b906001600160a01b03600092168252601460205260408220612791612851565b505090506007548181029181830414901517156127e1576008546127b491612a28565b6013549182156127f55760010154908181029181830414901517156127e1576127de929350612a28565b90565b602484634e487b7160e01b81526011600452fd5b505050565b6040519061280782612486565b60006080838281528260208201528260408201528260608201520152565b67ffffffffffffffff8111610de35760051b60200190565b80518210156124705760209160051b010190565b6013549060105480830290838204811484151715610fa257612710908101809111610fa25761287f91612a28565b6128898184612637565b9160085480841161289b575b50600090565b925038612895565b60125460b81c60ff166129ee576001600160a01b03908160065416916040918251916370a0823160e01b83523060048401526020958684602481895afa9384156129e3579087949392916000946129b2575b50838111156129715750600654855163a9059cbb60e01b81526001600160a01b03939093166004840152602483019390935290945084916044918391600091165af19081156129675750612949575b50505b565b8161295f92903d10610c8c57610c7c81836124a2565b503880612944565b513d6000823e3d90fd5b855163a9059cbb60e01b81526001600160a01b039390931660048401526024830152509384915060449082906000905af19081156129675750612949575050565b8581969295503d83116129dc575b6129ca81836124a2565b8101031261026a5786935192386128f5565b503d6129c0565b85513d6000823e3d90fd5b90479081811115612a03575061294791612aef565b905061294791612aef565b612a166125ac565b6004811015610ffc5760020361120a57565b8115612a32570490565b634e487b7160e01b600052601260045260246000fd5b60ff60125460a81c1615612a5857565b606460405162461bcd60e51b815260206004820152601f60248201527f43617049737375654d6f64656c3a206973207374696c6c2072756e6e696e67006044820152fd5b60ff60125460a81c16612aab57565b606460405162461bcd60e51b815260206004820152601660248201527f43617049737375654d6f64656c3a2073746f70706564000000000000000000006044820152fd5b60008080809481945af1903d15612bb7573d9067ffffffffffffffff8211612ba35760405191612b29601f8201601f1916602001846124a2565b825260203d92013e5b15612b3957565b608460405162461bcd60e51b815260206004820152602560248201527f5472616e7366657248656c7065723a204d455449535f5452414e534645525f4660448201527f41494c45440000000000000000000000000000000000000000000000000000006064820152fd5b80634e487b7160e01b602492526041600452fd5b50612b3256fea2646970667358221220474d52c093dc20c3e7f55152ee79e5acf46f8efa3cbaede8a2c57659a2c866eb64736f6c63430008180033",
  "linkReferences": {},
  "deployedLinkReferences": {}
}