{
  "_format": "hh-sol-artifact-1",
  "contractName": "LaunchPadFactory",
  "sourceName": "contracts/LaunchPadFactory.sol",
  "abi": [
    {
      "inputs": [
        {
          "internalType": "address",
          "name": "token",
          "type": "address"
        }
      ],
      "name": "SafeERC20FailedOperation",
      "type": "error"
    },
    {
      "anonymous": false,
      "inputs": [
        {
          "indexed": false,
          "internalType": "uint8",
          "name": "version",
          "type": "uint8"
        }
      ],
      "name": "Initialized",
      "type": "event"
    },
    {
      "anonymous": false,
      "inputs": [
        {
          "indexed": true,
          "internalType": "address",
          "name": "setter",
          "type": "address"
        },
        {
          "indexed": false,
          "internalType": "uint256",
          "name": "multiplier",
          "type": "uint256"
        },
        {
          "indexed": false,
          "internalType": "uint256",
          "name": "feeRate",
          "type": "uint256"
        }
      ],
      "name": "MulitplierFeeRateSet",
      "type": "event"
    },
    {
      "anonymous": false,
      "inputs": [
        {
          "indexed": true,
          "internalType": "address",
          "name": "primaryModelEvent",
          "type": "address"
        },
        {
          "indexed": true,
          "internalType": "address",
          "name": "_issuedToken",
          "type": "address"
        },
        {
          "indexed": true,
          "internalType": "address",
          "name": "_paymentToken",
          "type": "address"
        },
        {
          "indexed": false,
          "internalType": "uint256",
          "name": "_depositStartTime",
          "type": "uint256"
        },
        {
          "indexed": false,
          "internalType": "uint256",
          "name": "_depositDuration",
          "type": "uint256"
        },
        {
          "indexed": false,
          "internalType": "uint256",
          "name": "_launchTime",
          "type": "uint256"
        },
        {
          "indexed": false,
          "internalType": "uint256",
          "name": "_feeRate",
          "type": "uint256"
        },
        {
          "indexed": false,
          "internalType": "bool",
          "name": "_needAutoDistribution",
          "type": "bool"
        },
        {
          "indexed": false,
          "internalType": "bool",
          "name": "_isPaymentNative",
          "type": "bool"
        }
      ],
      "name": "NewPrimaryModelEventCreated",
      "type": "event"
    },
    {
      "anonymous": false,
      "inputs": [
        {
          "indexed": true,
          "internalType": "address",
          "name": "unlimitedModelEvent",
          "type": "address"
        },
        {
          "indexed": true,
          "internalType": "address",
          "name": "_issuedToken",
          "type": "address"
        },
        {
          "indexed": true,
          "internalType": "address",
          "name": "_paymentToken",
          "type": "address"
        },
        {
          "indexed": false,
          "internalType": "uint256",
          "name": "_depositStartTime",
          "type": "uint256"
        },
        {
          "indexed": false,
          "internalType": "uint256",
          "name": "_depositDuration",
          "type": "uint256"
        },
        {
          "indexed": false,
          "internalType": "uint256",
          "name": "_launchTime",
          "type": "uint256"
        },
        {
          "indexed": false,
          "internalType": "bool",
          "name": "_needAutoDistribution",
          "type": "bool"
        },
        {
          "indexed": false,
          "internalType": "bool",
          "name": "_isPaymentNative",
          "type": "bool"
        }
      ],
      "name": "NewUnlimitedModelEventCreated",
      "type": "event"
    },
    {
      "anonymous": false,
      "inputs": [
        {
          "indexed": false,
          "internalType": "address",
          "name": "recipient",
          "type": "address"
        },
        {
          "indexed": false,
          "internalType": "address",
          "name": "token",
          "type": "address"
        },
        {
          "indexed": false,
          "internalType": "uint256",
          "name": "amount",
          "type": "uint256"
        }
      ],
      "name": "RecoverErc20",
      "type": "event"
    },
    {
      "anonymous": false,
      "inputs": [
        {
          "indexed": true,
          "internalType": "address",
          "name": "_feeCollector",
          "type": "address"
        }
      ],
      "name": "SetFeeCollector",
      "type": "event"
    },
    {
      "anonymous": false,
      "inputs": [
        {
          "indexed": true,
          "internalType": "address",
          "name": "_primaryImplementation",
          "type": "address"
        }
      ],
      "name": "SetPrimaryImplementation",
      "type": "event"
    },
    {
      "inputs": [],
      "name": "BACKEND_ROLE",
      "outputs": [
        {
          "internalType": "bytes32",
          "name": "",
          "type": "bytes32"
        }
      ],
      "stateMutability": "view",
      "type": "function"
    },
    {
      "inputs": [],
      "name": "BETA_USER_ROLE",
      "outputs": [
        {
          "internalType": "bytes32",
          "name": "",
          "type": "bytes32"
        }
      ],
      "stateMutability": "view",
      "type": "function"
    },
    {
      "inputs": [],
      "name": "OPERATOR_ROLE",
      "outputs": [
        {
          "internalType": "bytes32",
          "name": "",
          "type": "bytes32"
        }
      ],
      "stateMutability": "view",
      "type": "function"
    },
    {
      "inputs": [],
      "name": "TIMELOCK_ROLE",
      "outputs": [
        {
          "internalType": "bytes32",
          "name": "",
          "type": "bytes32"
        }
      ],
      "stateMutability": "view",
      "type": "function"
    },
    {
      "inputs": [
        {
          "internalType": "address",
          "name": "_model",
          "type": "address"
        }
      ],
      "name": "addModel",
      "outputs": [],
      "stateMutability": "nonpayable",
      "type": "function"
    },
    {
      "inputs": [
        {
          "internalType": "uint256",
          "name": "",
          "type": "uint256"
        }
      ],
      "name": "allPrimaryModels",
      "outputs": [
        {
          "internalType": "address",
          "name": "",
          "type": "address"
        }
      ],
      "stateMutability": "view",
      "type": "function"
    },
    {
      "inputs": [
        {
          "internalType": "uint256",
          "name": "",
          "type": "uint256"
        }
      ],
      "name": "allUnlimitedModels",
      "outputs": [
        {
          "internalType": "address",
          "name": "",
          "type": "address"
        }
      ],
      "stateMutability": "view",
      "type": "function"
    },
    {
      "inputs": [],
      "name": "config",
      "outputs": [
        {
          "internalType": "contract IConfig",
          "name": "",
          "type": "address"
        }
      ],
      "stateMutability": "view",
      "type": "function"
    },
    {
      "inputs": [
        {
          "internalType": "address",
          "name": "_issuer",
          "type": "address"
        },
        {
          "internalType": "address",
          "name": "_issuedToken",
          "type": "address"
        },
        {
          "internalType": "address",
          "name": "_paymentToken",
          "type": "address"
        },
        {
          "internalType": "uint256",
          "name": "_issuedTokenAmount",
          "type": "uint256"
        },
        {
          "internalType": "uint256",
          "name": "_price",
          "type": "uint256"
        },
        {
          "internalType": "uint256",
          "name": "_depositStartTime",
          "type": "uint256"
        },
        {
          "internalType": "uint256",
          "name": "_depositDuration",
          "type": "uint256"
        },
        {
          "internalType": "uint256",
          "name": "_launchTime",
          "type": "uint256"
        },
        {
          "internalType": "uint256",
          "name": "_decimals",
          "type": "uint256"
        },
        {
          "internalType": "uint256",
          "name": "_minDeposit",
          "type": "uint256"
        },
        {
          "internalType": "uint256",
          "name": "_maxDeposit",
          "type": "uint256"
        },
        {
          "internalType": "uint256",
          "name": "_feeRate",
          "type": "uint256"
        },
        {
          "internalType": "bool",
          "name": "_needAutoDistribution",
          "type": "bool"
        },
        {
          "internalType": "bool",
          "name": "_isPaymentNative",
          "type": "bool"
        }
      ],
      "name": "createNewCapModel",
      "outputs": [
        {
          "internalType": "address",
          "name": "",
          "type": "address"
        }
      ],
      "stateMutability": "nonpayable",
      "type": "function"
    },
    {
      "inputs": [
        {
          "internalType": "address",
          "name": "_issuer",
          "type": "address"
        },
        {
          "internalType": "address",
          "name": "_issuedToken",
          "type": "address"
        },
        {
          "internalType": "address",
          "name": "_paymentToken",
          "type": "address"
        },
        {
          "internalType": "uint256",
          "name": "_issuedTokenAmount",
          "type": "uint256"
        },
        {
          "internalType": "uint256",
          "name": "_price",
          "type": "uint256"
        },
        {
          "internalType": "uint256",
          "name": "_depositStartTime",
          "type": "uint256"
        },
        {
          "internalType": "uint256",
          "name": "_depositDuration",
          "type": "uint256"
        },
        {
          "internalType": "uint256",
          "name": "_launchTime",
          "type": "uint256"
        },
        {
          "internalType": "uint256",
          "name": "_decimals",
          "type": "uint256"
        },
        {
          "internalType": "uint256",
          "name": "_minDeposit",
          "type": "uint256"
        },
        {
          "internalType": "bool",
          "name": "_needAutoDistribution",
          "type": "bool"
        },
        {
          "internalType": "bool",
          "name": "_isPaymentNative",
          "type": "bool"
        }
      ],
      "name": "createNewUnlimitedModel",
      "outputs": [
        {
          "internalType": "address",
          "name": "",
          "type": "address"
        }
      ],
      "stateMutability": "nonpayable",
      "type": "function"
    },
    {
      "inputs": [
        {
          "internalType": "address",
          "name": "_model",
          "type": "address"
        }
      ],
      "name": "delModel",
      "outputs": [],
      "stateMutability": "nonpayable",
      "type": "function"
    },
    {
      "inputs": [],
      "name": "getFeeCollector",
      "outputs": [
        {
          "internalType": "address",
          "name": "",
          "type": "address"
        }
      ],
      "stateMutability": "view",
      "type": "function"
    },
    {
      "inputs": [
        {
          "internalType": "address",
          "name": "",
          "type": "address"
        }
      ],
      "name": "getModel",
      "outputs": [
        {
          "internalType": "address",
          "name": "",
          "type": "address"
        }
      ],
      "stateMutability": "view",
      "type": "function"
    },
    {
      "inputs": [],
      "name": "getMultiplier",
      "outputs": [
        {
          "components": [
            {
              "internalType": "uint256",
              "name": "multiplier10",
              "type": "uint256"
            },
            {
              "internalType": "uint256",
              "name": "multiplier15",
              "type": "uint256"
            },
            {
              "internalType": "uint256",
              "name": "multiplier20",
              "type": "uint256"
            },
            {
              "internalType": "uint256",
              "name": "multiplier25",
              "type": "uint256"
            },
            {
              "internalType": "uint256",
              "name": "multiplier50",
              "type": "uint256"
            },
            {
              "internalType": "uint256",
              "name": "multiplier100",
              "type": "uint256"
            }
          ],
          "internalType": "struct LaunchPadFactory.Multiplier",
          "name": "",
          "type": "tuple"
        }
      ],
      "stateMutability": "view",
      "type": "function"
    },
    {
      "inputs": [
        {
          "internalType": "address",
          "name": "_config",
          "type": "address"
        }
      ],
      "name": "initialize",
      "outputs": [],
      "stateMutability": "nonpayable",
      "type": "function"
    },
    {
      "inputs": [
        {
          "internalType": "address",
          "name": "",
          "type": "address"
        }
      ],
      "name": "isModel",
      "outputs": [
        {
          "internalType": "bool",
          "name": "",
          "type": "bool"
        }
      ],
      "stateMutability": "view",
      "type": "function"
    },
    {
      "inputs": [
        {
          "internalType": "address",
          "name": "",
          "type": "address"
        }
      ],
      "name": "isPrimary",
      "outputs": [
        {
          "internalType": "bool",
          "name": "",
          "type": "bool"
        }
      ],
      "stateMutability": "view",
      "type": "function"
    },
    {
      "inputs": [
        {
          "internalType": "address",
          "name": "",
          "type": "address"
        }
      ],
      "name": "isUnlimited",
      "outputs": [
        {
          "internalType": "bool",
          "name": "",
          "type": "bool"
        }
      ],
      "stateMutability": "view",
      "type": "function"
    },
    {
      "inputs": [],
      "name": "multiplier",
      "outputs": [
        {
          "internalType": "uint256",
          "name": "multiplier10",
          "type": "uint256"
        },
        {
          "internalType": "uint256",
          "name": "multiplier15",
          "type": "uint256"
        },
        {
          "internalType": "uint256",
          "name": "multiplier20",
          "type": "uint256"
        },
        {
          "internalType": "uint256",
          "name": "multiplier25",
          "type": "uint256"
        },
        {
          "internalType": "uint256",
          "name": "multiplier50",
          "type": "uint256"
        },
        {
          "internalType": "uint256",
          "name": "multiplier100",
          "type": "uint256"
        }
      ],
      "stateMutability": "view",
      "type": "function"
    },
    {
      "inputs": [
        {
          "internalType": "uint256",
          "name": "",
          "type": "uint256"
        }
      ],
      "name": "multiplierFeeRate",
      "outputs": [
        {
          "internalType": "uint256",
          "name": "",
          "type": "uint256"
        }
      ],
      "stateMutability": "view",
      "type": "function"
    },
    {
      "inputs": [],
      "name": "numModels",
      "outputs": [
        {
          "internalType": "uint256",
          "name": "total",
          "type": "uint256"
        },
        {
          "internalType": "uint256",
          "name": "primary",
          "type": "uint256"
        },
        {
          "internalType": "uint256",
          "name": "unlimited",
          "type": "uint256"
        }
      ],
      "stateMutability": "view",
      "type": "function"
    },
    {
      "inputs": [],
      "name": "owner",
      "outputs": [
        {
          "internalType": "address",
          "name": "",
          "type": "address"
        }
      ],
      "stateMutability": "view",
      "type": "function"
    },
    {
      "inputs": [],
      "name": "paused",
      "outputs": [
        {
          "internalType": "bool",
          "name": "",
          "type": "bool"
        }
      ],
      "stateMutability": "view",
      "type": "function"
    },
    {
      "inputs": [
        {
          "internalType": "address",
          "name": "_tokenAddress",
          "type": "address"
        },
        {
          "internalType": "uint256",
          "name": "_tokenAmount",
          "type": "uint256"
        }
      ],
      "name": "recoverErc20",
      "outputs": [],
      "stateMutability": "nonpayable",
      "type": "function"
    },
    {
      "inputs": [
        {
          "internalType": "address",
          "name": "_feeCollector",
          "type": "address"
        }
      ],
      "name": "setFeeCollector",
      "outputs": [],
      "stateMutability": "nonpayable",
      "type": "function"
    },
    {
      "inputs": [
        {
          "internalType": "uint256",
          "name": "_multiplier",
          "type": "uint256"
        },
        {
          "internalType": "uint256",
          "name": "_feeRate",
          "type": "uint256"
        }
      ],
      "name": "setMultiplierFeeRate",
      "outputs": [],
      "stateMutability": "nonpayable",
      "type": "function"
    },
    {
      "inputs": [
        {
          "internalType": "address",
          "name": "_owner",
          "type": "address"
        }
      ],
      "name": "setOwner",
      "outputs": [],
      "stateMutability": "nonpayable",
      "type": "function"
    }
  ],
  "bytecode": "0x6080806040523461001657617a36908161001c8239f35b600080fdfe6080604052600436101561001257600080fd5b6000803560e01c806303b548ff1461186857806304d0dbe1146113e957806312fde4b71461135957806313af4035146112225780631b3ed722146111da57806331efd8d61461119d578063380b806e1461106257806340490a9014610fb75780634b1497af14610f6b5780635629ffd014610f305780635c975abb14610eab578063738a8ce614610bfa5780637832ba3214610ba057806379502c5514610b795780638da5cb5b14610b5257806392c2becc14610b17578063a35b4cef14610ada578063a42dce80146108b5578063b81edd1a1461085b578063b851f5b414610831578063b854c9c9146107f4578063c4d66de8146104b9578063ce1c90c41461035b578063de0abf7a146101f9578063e2187218146101be578063f288a2e2146101835763f5b541a61461014657600080fd5b3461018057806003193601126101805760206040517f97667070c54ef182b0f5858b034beac1b6f3089aa2d3188bb1e8929f4fa9b9298152f35b80fd5b503461018057806003193601126101805760206040517ff66846415d2bf9eabda9e84793ff9c0ea96d87f50fc41e66aa16469c6a442f058152f35b50346101805760203660031901126101805760209060406001600160a01b0391826101e7611c8c565b16815260868452205416604051908152f35b50346101805760208060031936011261035757610214611c8c565b906001600160a01b0380606554169260405193632474521560e21b8086527f97667070c54ef182b0f5858b034beac1b6f3089aa2d3188bb1e8929f4fa9b92960048701523360248701528486604481855afa95861561034c57879661032d575b50851561029c575b5050610289608794611d3d565b1683525260408120805460ff1916905580f35b8491955060446040518097819382527ff66846415d2bf9eabda9e84793ff9c0ea96d87f50fc41e66aa16469c6a442f0560048301523360248301525afa938415610322576087946102899187916102f5575b509461027c565b6103159150853d871161031b575b61030d8183611d03565b810190611d25565b386102ee565b503d610303565b6040513d87823e3d90fd5b610345919650853d871161031b5761030d8183611d03565b9438610274565b6040513d89823e3d90fd5b5080fd5b5034610180576040366003190112610180576004356024356001600160a01b036065541660405190632474521560e21b8083527f97667070c54ef182b0f5858b034beac1b6f3089aa2d3188bb1e8929f4fa9b92960048401523360248401526020928381604481865afa91821561034c578491889361049a575b508215610428575b50506103e99150611d3d565b828452608a81528160408520556040519283528201527fc5773f750d3060fceafb3af78b80d658d445ff67464787ea4eb38ed78a9e723560403392a280f35b90915060446040518094819382527ff66846415d2bf9eabda9e84793ff9c0ea96d87f50fc41e66aa16469c6a442f0560048301523360248301525afa8015610322576103e991869161047d575b5082386103dd565b6104949150833d851161031b5761030d8183611d03565b38610475565b6104b2919350823d841161031b5761030d8183611d03565b91386103d5565b50346101805760209081600319360112610180576104d5611c8c565b9181549060ff8260081c16158080916107e7575b80156107d0575b156107665760ff19808416600190811786559382610755575b506001600160a01b031995338760935416176093556040516040810181811067ffffffffffffffff82111761073f576040528581528481019785368a376001600160a01b0380931690604051997fe5974554000000000000000000000000000000000000000000000000000000008b52878b600481865afa9a8b15610734578a9b610705575b508351156106f15784899a9b999798991690526105c460ff8b5460081c166105b681612002565b6105bf81612002565b612002565b8560335560655416176065558388905b6106bd575b5050505050838052608a825260646040852055600a845260326040852055600f8452601e60408520556014845260196040852055601984526014604085205560328452600a60408520556064845260056040852055606460a060405161063e81611ce7565b600a8152600f858201526014604082015260196060820152603260808201520152600a608d55600f608e556014608f55601960905560326091556064609255610685578280f35b825461ff00191683556040519182527f7f26b83ff96e1f2b6a682f133852f6798a09c465da95921460cefb384740249891a138808280f35b81518110156106ec57808388879360051b85010151168a526066885260408a20828682541617905501846105d4565b6105d9565b60248a634e487b7160e01b81526032600452fd5b610726919b50883d8a1161072d575b61071e8183611d03565b810190611fe3565b993861058f565b503d610714565b6040513d8c823e3d90fd5b634e487b7160e01b600052604160045260246000fd5b61ffff191661010117855538610509565b6084826040519062461bcd60e51b82526004820152602e60248201527f496e697469616c697a61626c653a20636f6e747261637420697320616c72656160448201527f647920696e697469616c697a65640000000000000000000000000000000000006064820152fd5b50303b1580156104f05750600160ff8416146104f0565b50600160ff8416106104e9565b50346101805760203660031901126101805760ff60406020926001600160a01b0361081d611c8c565b168152608884522054166040519015158152f35b50346101805760203660031901126101805760406020916004358152608a83522054604051908152f35b503461018057602036600319011261018057600435608c54811015610357576001600160a01b0390608c602093527f5f2f2dca1d951c7429b52007f396328c64c25e226c1867318158f7f2cbdd40a9015416604051908152f35b50346101805760209081600319360112610180576108d1611c8c565b6001600160a01b03806065541691604051632474521560e21b908181527f97667070c54ef182b0f5858b034beac1b6f3089aa2d3188bb1e8929f4fa9b92960048201523360248201528681604481885afa908115610acf578691610ab2575b508015610a41575b6109429150611d3d565b169283156109d75750803b15610357578180916024604051809481937fa42dce800000000000000000000000000000000000000000000000000000000083528860048401525af180156109cc576109bd575b50907fd649da8f6092116f86ea4e5139de0b75ad371d823918d16368ba3ff09a5cbc9f8280a280f35b6109c690611cd3565b38610994565b6040513d84823e3d90fd5b6084906040519062461bcd60e51b82526004820152602f60248201527f506164466163746f72793a2066656520636f6c6c6563746f722063616e27742060448201527f62652061646472657373207a65726f00000000000000000000000000000000006064820152fd5b506040519081527ff66846415d2bf9eabda9e84793ff9c0ea96d87f50fc41e66aa16469c6a442f0560048201523360248201528581604481875afa9081156103225790610942918691610a95575b50610938565b610aac9150873d891161031b5761030d8183611d03565b38610a8f565b610ac99150873d891161031b5761030d8183611d03565b38610930565b6040513d88823e3d90fd5b50346101805760203660031901126101805760ff60406020926001600160a01b03610b03611c8c565b168152608984522054166040519015158152f35b503461018057806003193601126101805760206040517f25cf2b509f2a7f322675b2a5322b182f44ad2c03ac941a0af17c9b178f5d5d5f8152f35b503461018057806003193601126101805760206001600160a01b0360935416604051908152f35b503461018057806003193601126101805760206001600160a01b0360655416604051908152f35b503461018057602036600319011261018057600435608b54811015610357576001600160a01b0390608b602093527f7b6bb1e9d1b017ff82945596cf3cfb1a6cee971c1ebb16f2c6bd23c2d642728e015416604051908152f35b503461018057604036600319011261018057610c14611c8c565b60248035906001600160a01b0380606554169360405194632474521560e21b8087527f97667070c54ef182b0f5858b034beac1b6f3089aa2d3188bb1e8929f4fa9b929600488015233858801526020968781604481865afa918215610ea05788918a93610e81575b508215610e10575b5050610c909150611d3d565b16908185526066845260ff604086205416610da757604051848101907fa9059cbb0000000000000000000000000000000000000000000000000000000082523383820152846044820152604481526080810181811067ffffffffffffffff821117610d945760405251859187919082865af115610d895784513d610d805750813b155b610d515750916060917f8707eabf0aab8fc872bdb95c17ebd24c4311fc70326f8ac9c4e121449c2aa4dd93604051923384528301526040820152a180f35b90604051907f5274afe70000000000000000000000000000000000000000000000000000000082526004820152fd5b60011415610d13565b6040513d86823e3d90fd5b8388634e487b7160e01b81526041600452fd5b8360276084926040519262461bcd60e51b845260048401528201527f7265636f76657245726332303a2063616e6e6f74207265636f76657220686f6c60448201527f6420746f6b656e000000000000000000000000000000000000000000000000006064820152fd5b90915060446040518094819382527ff66846415d2bf9eabda9e84793ff9c0ea96d87f50fc41e66aa16469c6a442f05600483015233898301525afa801561034c57610c90918891610e64575b508638610c84565b610e7b9150873d891161031b5761030d8183611d03565b38610e5c565b610e99919350823d841161031b5761030d8183611d03565b9138610c7c565b6040513d8b823e3d90fd5b5034610180578060031936011261018057600460206001600160a01b0360655416604051928380927fb187bd260000000000000000000000000000000000000000000000000000000082525afa9081156109cc5760209291610f13575b506040519015158152f35b610f2a9150823d841161031b5761030d8183611d03565b38610f08565b503461018057806003193601126101805760206040517feac7d12e691a65e32c753f5314b9ac42acdb8dd77f0033b2f2a2e2e012122a0d8152f35b5034610180578060031936011261018057608b54608c5480820191828111610fa3576060935060405192835260208301526040820152f35b602484634e487b7160e01b81526011600452fd5b503461018057806003193601126101805760a0604051610fd681611ce7565b828152826020820152826040820152826060820152826080820152015260c060405161100181611ce7565b608d5490818152608e5460208201908152608f54604083019081526090549060608401918252609154926080850193845260a060925495019485526040519586525160208601525160408501525160608401525160808301525160a0820152f35b5034610180576020806003193601126103575761107d611c8c565b906001600160a01b0380606554169260405193632474521560e21b8086527f97667070c54ef182b0f5858b034beac1b6f3089aa2d3188bb1e8929f4fa9b92960048701523360248701528486604481855afa95861561034c57879661117e575b508515611108575b50506110f2608794611d3d565b1683525260408120805460ff1916600117905580f35b8491955060446040518097819382527ff66846415d2bf9eabda9e84793ff9c0ea96d87f50fc41e66aa16469c6a442f0560048301523360248301525afa938415610322576087946110f2918791611161575b50946110e5565b6111789150853d871161031b5761030d8183611d03565b3861115a565b611196919650853d871161031b5761030d8183611d03565b94386110dd565b50346101805760203660031901126101805760ff60406020926001600160a01b036111c6611c8c565b168152608784522054166040519015158152f35b503461018057806003193601126101805760c0608d54608e54608f546090546091549160925493604051958652602086015260408501526060840152608083015260a0820152f35b5034610180576020806003193601126103575761123d611c8c565b6001600160a01b0391826065541660405190632474521560e21b8083527f97667070c54ef182b0f5858b034beac1b6f3089aa2d3188bb1e8929f4fa9b92960048401523360248401528383604481855afa92831561034c57879361133a575b5082156112c5575b50506112b09150611d3d565b166001600160a01b0319609354161760935580f35b8391925060446040518094819382527ff66846415d2bf9eabda9e84793ff9c0ea96d87f50fc41e66aa16469c6a442f0560048301523360248301525afa908115610322576112b092869261131d575b505038806112a4565b6113339250803d1061031b5761030d8183611d03565b3880611314565b611352919350843d861161031b5761030d8183611d03565b913861129c565b503461018057806003193601126101805760049060206001600160a01b0360655416604051938480927fc415b95c0000000000000000000000000000000000000000000000000000000082525afa9182156113dc576020926113bf575b50604051908152f35b6113d590833d851161072d5761071e8183611d03565b50386113b6565b50604051903d90823e3d90fd5b5034610180576101c036600319011261018057611404611c8c565b9061140d611ca7565b611415611cbd565b9261018435908115158203611864576101a435908115158203611860576001600160a01b0360655416604051632474521560e21b81527f97667070c54ef182b0f5858b034beac1b6f3089aa2d3188bb1e8929f4fa9b9296004820152336024820152602081604481855afa90811561034c578791611841575b5080156117c4575b6114a09150611d3d565b6114b46001600160a01b0382161515611dae565b6114c86001600160a01b0385161515611e1f565b6114dc6001600160a01b0387161515611e90565b6114e96064351515611f01565b6001600160a01b038416855260866020526115116001600160a01b0360408720541615611f72565b604051612bd68082019082821067ffffffffffffffff8311176117b0579082916120748339039086f094851561177c576001600160a01b03851681526086602052604081206001600160a01b0387166001600160a01b03198254161790556001600160a01b038616815260876020526040812060ff1990600182825416179055608860205260016040832091825416179055608b546801000000000000000081101561179c576001810180608b5581101561178857608b82527f7b6bb1e9d1b017ff82945596cf3cfb1a6cee971c1ebb16f2c6bd23c2d642728e016001600160a01b0387166001600160a01b03198254161790556001600160a01b0386163b15610180576001600160a01b03604051927f24ac39ff0000000000000000000000000000000000000000000000000000000084521660048301526001600160a01b03851660248301526001600160a01b03871660448301526064356064830152608435608483015260a43560a483015260c43560c483015260e43560e4830152610104356101048301526101243561012483015261014435610144830152610164356101648301528315156101848301528215156101a483015280826101c481836001600160a01b038b165af190811561177c5750956001600160a01b0392839260209861176d575b506040519460a435865260c4358987015260e435604087015261016435606087015215156080860152151560a0850152169216907f624b67443cd15f737e5dac9605cdde4606d60d0fa1a9572b3252f9ce135abeb660c06001600160a01b03861692a46001600160a01b0360405191168152f35b61177690611cd3565b386116f9565b604051903d90823e3d90fd5b602482634e487b7160e01b81526032600452fd5b602482634e487b7160e01b81526041600452fd5b602488634e487b7160e01b81526041600452fd5b50602060449160405192838092632474521560e21b82527ff66846415d2bf9eabda9e84793ff9c0ea96d87f50fc41e66aa16469c6a442f0560048301523360248301525afa908115610acf57906114a0918791611822575b50611496565b61183b915060203d60201161031b5761030d8183611d03565b3861181c565b61185a915060203d60201161031b5761030d8183611d03565b3861148e565b8480fd5b8380fd5b50346101805761018036600319011261018057611883611c8c565b9061188c611ca7565b611894611cbd565b92610144359081151582036118645761016435908115158203611860576001600160a01b0360655416632474521560e21b6080527f97667070c54ef182b0f5858b034beac1b6f3089aa2d3188bb1e8929f4fa9b929600460800152336024608001526020608060446080845afa8015610acf578690611c5b575b8015611bde575b61191f9150611d3d565b6119336001600160a01b0382161515611dae565b6119476001600160a01b0385161515611e1f565b61195b6001600160a01b0387161515611e90565b6119686064351515611f01565b6001600160a01b038416855260866020526119906001600160a01b0360408720541615611f72565b604051612db78082019082821067ffffffffffffffff8311176117b057908291614c4a8339039086f094851561177c576001600160a01b03851681526086602052604081206001600160a01b0387166001600160a01b03198254161790556001600160a01b038616815260876020526040812060ff1990600182825416179055608960205260016040832091825416179055608c546801000000000000000081101561179c576001810180608c5581101561178857608c82527f5f2f2dca1d951c7429b52007f396328c64c25e226c1867318158f7f2cbdd40a9016001600160a01b0387166001600160a01b03198254161790556001600160a01b0386163b15610180576001600160a01b03604051927fea9988a20000000000000000000000000000000000000000000000000000000084521660048301526001600160a01b03851660248301526001600160a01b03871660448301526064356064830152608435608483015260a43560a483015260c43560c483015260e43560e48301526101043561010483015261012435610124830152831515610144830152821515610164830152808261018481836001600160a01b038b165af190811561177c5750956001600160a01b03928392602098611bcf575b506040519460a435865260c4358987015260e43560408701521515606086015215156080850152169216907fe4dadee883f596faadf8c5aeba2d236f9fb0e83e9b3390dc639be3d3d875b54c60a06001600160a01b03861692a46001600160a01b0360405191168152f35b611bd890611cd3565b38611b64565b50602060449160405192838092632474521560e21b82527ff66846415d2bf9eabda9e84793ff9c0ea96d87f50fc41e66aa16469c6a442f0560048301523360248301525afa908115610acf579061191f918791611c3c575b50611915565b611c55915060203d60201161031b5761030d8183611d03565b38611c36565b5060203d602011611c85575b80611c76611c80926080611d03565b6080016080611d25565b61190e565b503d611c67565b600435906001600160a01b0382168203611ca257565b600080fd5b602435906001600160a01b0382168203611ca257565b604435906001600160a01b0382168203611ca257565b67ffffffffffffffff811161073f57604052565b60c0810190811067ffffffffffffffff82111761073f57604052565b90601f8019910116810190811067ffffffffffffffff82111761073f57604052565b90816020910312611ca257518015158103611ca25790565b15611d4457565b608460405162461bcd60e51b815260206004820152603460248201527f6f6e6c794f70657261746f723a2063616c6c657220646f6573206e6f7420686160448201527f766520746865206f70657261746f7220726f6c650000000000000000000000006064820152fd5b15611db557565b608460405162461bcd60e51b815260206004820152602560248201527f506164466163746f72793a206973737565722063616e2774206265203020616460448201527f64726573730000000000000000000000000000000000000000000000000000006064820152fd5b15611e2657565b608460405162461bcd60e51b815260206004820152602b60248201527f506164466163746f72793a2069737375656420746f6b656e2063616e2774206260448201527f65203020616464726573730000000000000000000000000000000000000000006064820152fd5b15611e9757565b608460405162461bcd60e51b815260206004820152602c60248201527f506164466163746f72793a207061796d656e7420746f6b656e2063616e27742060448201527f62652030206164647265737300000000000000000000000000000000000000006064820152fd5b15611f0857565b608460405162461bcd60e51b815260206004820152603960248201527f506164466163746f72793a2069737375656420746f6b656e20616d6f756e742060448201527f6e65656420746f2062652067726561746572207468616e2030000000000000006064820152fd5b15611f7957565b608460405162461bcd60e51b815260206004820152602960248201527f506164466163746f72793a20746f6b656e2068617320616c726561647920626560448201527f656e2069737375656400000000000000000000000000000000000000000000006064820152fd5b90816020910312611ca257516001600160a01b0381168103611ca25790565b1561200957565b608460405162461bcd60e51b815260206004820152602b60248201527f496e697469616c697a61626c653a20636f6e7472616374206973206e6f74206960448201527f6e697469616c697a696e670000000000000000000000000000000000000000006064820152fdfe6080806040523461001657612bba908161001c8239f35b600080fdfe608080604052600436101561001357600080fd5b60003560e01c9081628f2abe146123c7575080630205ab5b146123a057806303dcaa5b14612304578063055ad42e146122d857806307973ccf146122ba5780631a26af7a1461221f5780631b2b322b1461211c5780631d143848146120f55780631dd19cb414611fb4578063240b39e314611f9657806324ac39ff14611b3a5780633013ce2914611b13578063325cd79614611af557806335c1d34914611ac45780633728ae9314611aa6578063417d845c14611a7f57806341b3d18514611a615780634e862acc14611a4357806355873ec0146119c157806356feb51e146112645780636083e59a146119a35780636386c1c71461193557806368027e431461184f5780636e984f471461171e57806375f12b21146116f8578063790ca413146116da57806384d93a8c146116bc578063853b9ddf1461158857806385634429146114a057806386a61b241461135e578063893da6c91461133857806390d976e214611302578063940a950e146112e4578063978bbdb9146112c65780639a420814146112a8578063a035b1fe1461128a578063a1ca68bd14611264578063b0e7073c14611028578063b6b55f2514610a62578063b920ade214610a37578063c15fc68814610842578063c629b6091461078d578063d223e23614610767578063d3f42d2414610600578063d9c146de146105e2578063da89d56c146104f9578063db2e21bc146103bc578063e2842d79146102f4578063eb85342a146102c1578063f1a640f8146102a3578063f4cbdcfc146102855763f962f7fe1461025a57600080fd5b3461028057600036600319011261028057602060ff60125460b01c166040519015158152f35b600080fd5b34610280576000366003190112610280576020600b54604051908152f35b34610280576000366003190112610280576020600d54604051908152f35b346102805760003660031901126102805760806102dc612818565b91604051938452602084015260408301526060820152f35b3461028057600036600319011261028057604051806011548083526020809301809160116000527f31ecc21a745e3968a04e9570e4425bc18fa8019c68028196b546d1669c200c689060005b8682821061039f57868661035682880383612469565b604051928392818401908285525180915260408401929160005b82811061037f57505050500390f35b83516001600160a01b031685528695509381019392810192600101610370565b83546001600160a01b031685529093019260019283019201610340565b34610280576000366003190112610280576103d5612a0f565b33600052601460205260406000206001810190815490811561046957600082935560ff600382015416610453575b82610410816013546125fe565b60135561041d813361286a565b60135460405191825260208201527f1cc4296fc114fa1a2553da447457565b8322925197ec517347a55daee2de7b9d60403392a2005b610462925060020154906125fe565b8180610403565b60a460405162461bcd60e51b815260206004820152605360248201527f43617049737375654d6f64656c3a206578706563746564207573657220746f2060448201527f68617665206e6f6e2d7a65726f2062616c616e636520746f20706572666f726d60648201527f20656d657267656e6379207769746864726177000000000000000000000000006084820152fd5b34610280576020366003190112610280576004356105156129d5565b61051d612a63565b6105336001600160a01b03600054163314612656565b61053b612818565b5050600e54915061054c828461251b565b1161059e5761055b908261251b565b600e55610568813361286a565b600e5460405191825260208201527f26d39082d7f855ce2435a8386aa6c62dc14ae272e8ec397390d6ec2f57c141a060403392a2005b606460405162461bcd60e51b815260206004820152601760248201527f43617049737375654d6f64656c3a204f766572666c6f770000000000000000006044820152fd5b34610280576000366003190112610280576020600154604051908152f35b346102805760003660031901126102805760115461061d816127ec565b9061062b6040519283612469565b808252610637816127ec565b60209190601f19018260005b8281106107515750505060005b8181106106cd57604080518481528551818601819052868601928201908660005b82811061067e5784840385f35b9091928260a0826106be6001948a516080809180518452602081015160208501526040810151604085015260608101511515606085015201511515910152565b01960191019492919094610671565b806001600160a01b036106e1600193612400565b919054600392831b1c1660005260148552604060002090604051916107058361244d565b80548352848101548784015260028101546040840152015460ff908181161515606084015260081c161515608082015261073f8287612804565b5261074a8186612804565b5001610650565b6107596127c1565b828288010152018390610643565b3461028057600036600319011261028057602060ff60125460b81c166040519015158152f35b34610280576020366003190112610280576001600160a01b036107ae6123ea565b6107b66127c1565b5016600052601460205260a0604060002060ff6003604051926107d88461244d565b80548452600181015460208501526002810154604085015201548181161515606084015260081c161515608082015261084060405180926080809180518452602081015160208501526040810151604085015260608101511515606085015201511515910152565bf35b346102805760003660031901126102805761085b6129d5565b610863612a63565b6012546001600160a01b0360405190638da5cb5b60e01b825260209182816004818588165afa908115610a2b576000916109fe575b501633036109945760ff8260a01c1661092b577f55bb3cade9d43b798a4fe5ffdd05024b2d7870df53920673bfc7e68047cd0ab190740100000000000000000000000000000000000000007fffffffffffffffffffffff00ffffffffffffffffffffffffffffffffffffffff61090c612818565b50969150501617601255610920833361286a565b6040519283523392a2005b6084906040519062461bcd60e51b825260048201526024808201527f43617049737375654d6f64656c3a206665657320686173206265656e2063686160448201527f72676564000000000000000000000000000000000000000000000000000000006064820152fd5b6084906040519062461bcd60e51b82526004820152602360248201527f43617049737375654d6f64656c3a206e6f7420706164466163746f7279206f7760448201527f6e657200000000000000000000000000000000000000000000000000000000006064820152fd5b610a1e9150833d8511610a24575b610a168183612469565b81019061248b565b84610898565b503d610a0c565b6040513d6000823e3d90fd5b34610280576020366003190112610280576020610a5a610a556123ea565b612738565b604051908152f35b6020806003193601126102805760043590610a7b612a63565b610a83612573565b600481101561101257600103610fce5760139182549060085491601054808402908482041484151715610fb8576127108491049182808211610f5d575b50505060ff60125460b81c16600014610f4d57610ade3415156126c7565b813403610ee3575b33600052601484526001610aff6040600020948361251b565b930194855415610da5575b8295600090825486610b1c878361251b565b1015610d85575b50610b2f88825461251b565b90600a548211610cf5575560125460b81c60ff16610ca95750610b5386825461251b565b81556006546040516323b872dd60e01b81523360048201523060248201526044810188905295908190879060649082906000906001600160a01b03165af1958615610a2b577f44da1c981094396f5fd8a1b18690bdd6a625f76508fa8140c563f4af6508814596610c7b575b50505b5480938114610be8575b50506040805194855260208501919091528301523391606090a2005b7f96baae34504d78de1c35d2d189f8246647b0ffaa98f7b4bcc9bb74224e7284d39178010000000000000000000000000000000000000000000000007fffffffffffffff00ffffffffffffffffffffffffffffffffffffffffffffffff6012541617601255610c7160085491604051938493846040919493926060820195825260208201520152565b0390a18482610bcc565b81610c9a92903d10610ca2575b610c928183612469565b8101906125e6565b508680610bbf565b503d610c88565b7f44da1c981094396f5fd8a1b18690bdd6a625f76508fa8140c563f4af650881459550610cd787835461251b565b825580610ce5575b50610bc2565b610cef903361286a565b86610cdf565b60a4886040519062461bcd60e51b82526004820152604160248201527f43617049737375654d6f64656c3a746f74616c20616d6f756e74206d7573742060448201527f6265206c657373207468616e206f7220657175616c206d6178206465706f736960648201527f74000000000000000000000000000000000000000000000000000000000000006084820152fd5b909750610d939150856125fe565b95610d9e87856125fe565b9088610b23565b6009548310610e7957600a548311610e0f5760115468010000000000000000811015610df957806001610ddb9201601155612400565b81549060031b906001600160a01b0333831b921b1916179055610b0a565b634e487b7160e01b600052604160045260246000fd5b6084856040519062461bcd60e51b82526004820152603560248201527f43617049737375654d6f64656c3a206d757374206265206c657373207468616e60448201527f206f7220657175616c206d6178206465706f73697400000000000000000000006064820152fd5b6084856040519062461bcd60e51b82526004820152602560248201527f43617049737375654d6f64656c3a206d757374207265616368206d696e20646560448201527f706f7369740000000000000000000000000000000000000000000000000000006064820152fd5b6084846040519062461bcd60e51b82526004820152603960248201527f43617049737375654d6f64656c3a20706172616d20616d6f756e7420616e642060448201527f6d73672076616c75652073686f756c6420626520657175616c000000000000006064820152fd5b610f588215156126c7565b610ae6565b610f66916125fe565b1015610f7457828682610ac0565b6064846040519062461bcd60e51b82526004820152601b60248201527f43617049737375654d6f64656c3a206465706f7369742066756c6c00000000006044820152fd5b634e487b7160e01b600052601160045260246000fd5b6064906040519062461bcd60e51b82526004820152601a60248201527f43617049737375654d6f64656c3a2077726f6e672070686173650000000000006044820152fd5b634e487b7160e01b600052602160045260246000fd5b3461028057600036600319011261028057611041612a63565b611049612573565b6004811015611012576003036112205760ff60125460b01c16156111dc57336000526020601481526040600020906003820180549260ff8460081c1661119857549283156111545761ff001916610100179055600f549180831115611149576110b39080936125fe565b600f5560055460405163a9059cbb60e01b815233600482015260248101849052908290829060449082906000906001600160a01b03165af18015610a2b5761112c575b50600f54906040519283528201527ff02c6b636e42d3684de0fcefa1b1aa2c411de898387e21b1f63e4bfce570bb3a60403392a2005b61114290823d8411610ca257610c928183612469565b50826110f6565b506110b382806125fe565b6064836040519062461bcd60e51b82526004820152601760248201527f6e6f20616c6c6f636174696f6e20746f20636c61696d210000000000000000006044820152fd5b6064836040519062461bcd60e51b82526004820152601260248201527f68617320636c61696d656420746f6b656e2100000000000000000000000000006044820152fd5b606460405162461bcd60e51b815260206004820152601360248201527f63616e206e6f7420636c61696d20746f6b656e000000000000000000000000006044820152fd5b606460405162461bcd60e51b815260206004820152601a60248201527f43617049737375654d6f64656c3a2077726f6e672070686173650000000000006044820152fd5b3461028057600036600319011261028057602060ff60125460c81c166040519015158152f35b34610280576000366003190112610280576020600454604051908152f35b34610280576000366003190112610280576020600e54604051908152f35b34610280576000366003190112610280576020601054604051908152f35b34610280576000366003190112610280576020600754604051908152f35b346102805760203660031901126102805760206001600160a01b03611328600435612400565b9190546040519260031b1c168152f35b3461028057600036600319011261028057602060ff60125460c01c166040519015158152f35b34610280576040366003190112610280576024356001600160a01b0390816012541691604051638da5cb5b60e01b815260208160048183975afa908115610a2b576113b6918391600091611481575b501633146124aa565b6113be612573565b6004811015611012576002148015611467575b6113da9061260b565b6004355b8281106113e757005b80826113f4600193612400565b919054600392831b1c16600052601486527fb149fac85f173bbff866426acfb2743fba815e2b5b41cf508ace9f45e374420686856040600020936114478261143b88612400565b905490841b1c16612738565b80955561145386612400565b9054911b1c1692604051908152a2016113de565b50611470612573565b6004811015611012576003146113d1565b61149a915060203d602011610a2457610a168183612469565b866113ad565b34610280576000366003190112610280576114b9612a0f565b6001600160a01b036114d081600054163314612656565b600554166040516370a0823160e01b81523060048201526020918282602481845afa8015610a2b578392600091611556575b506040516323b872dd60e01b815230600482015233602482015260448101919091529190829060649082906000905af18015610a2b5761153e57005b8161155492903d10610ca257610c928183612469565b005b83819492503d8311611581575b61156d8183612469565b810103126102805790518291906000611502565b503d611563565b3461028057600036600319011261028057323303611678576001600160a01b03806012541660405180916312fde4b760e01b825281600460209384935afa918215610a2b57600092611656575b50806024929360055416604051938480926370a0823160e01b82523060048301525afa908115610a2b57600091611626575b506116169150600f54906125fe565b8061161d57005b6115549161286a565b905081813d831161164f575b61163c8183612469565b8101031261028057611616905183611607565b503d611632565b602492506116718291823d8411610a2457610a168183612469565b92506115d5565b606460405162461bcd60e51b815260206004820152601460248201527f4e6f43617049737375653a20454f41206f6e6c790000000000000000000000006044820152fd5b34610280576000366003190112610280576020600f54604051908152f35b34610280576000366003190112610280576020600354604051908152f35b3461028057600036600319011261028057602060ff60125460a81c166040519015158152f35b34610280576000366003190112610280576001600160a01b03806012541690604051638da5cb5b60e01b815260208160048183965afa908115610a2b5761177191839160009161183057501633146124aa565b611779612573565b6004811015611012576002148015611816575b6117959061260b565b60005b6011548110156115545780826117af600193612400565b919054600392831b1c16600052601485527fb149fac85f173bbff866426acfb2743fba815e2b5b41cf508ace9f45e374420685856040600020936117f68261143b88612400565b80955561180286612400565b9054911b1c1692604051908152a201611798565b5061181f612573565b60048110156110125760031461178c565b611849915060203d602011610a2457610a168183612469565b856113ad565b346102805760203660031901126102805760043561186b612573565b600481101561101257600214801561191b575b6118879061260b565b60046001600160a01b03916020836012541660405193848092638da5cb5b60e01b82525afa918215610a2b577f513a654da6e21e3dd8eb8c911c92af7fb399e84e65de1fae839afb0213b84e46936020936118ec9260009161190457501633146124aa565b6118f7428211612528565b80600355604051908152a1005b61149a9150853d8711610a2457610a168183612469565b50611924612573565b60048110156110125760031461187e565b34610280576020366003190112610280576001600160a01b036119566123ea565b16600052601460205260a0604060002060ff8154916001810154906003600282015491015491604051948552602085015260408401528181161515606084015260081c1615156080820152f35b34610280576000366003190112610280576020600a54604051908152f35b34610280576000366003190112610280576012546001600160a01b0390604051638da5cb5b60e01b81526020816004818686165afa928315610a2b5760ff60a81b1993611a189260009161183057501633146124aa565b166012557f08b16cfeab45b89edc067cbd4a68c81cfa75390ecbb33d8201a4f51facbbd4c5600080a1005b34610280576000366003190112610280576020601354604051908152f35b34610280576000366003190112610280576020600954604051908152f35b346102805760003660031901126102805760206001600160a01b0360055416604051908152f35b34610280576000366003190112610280576020600254604051908152f35b3461028057602036600319011261028057600435601154811015610280576001600160a01b03611328602092612400565b34610280576000366003190112610280576020600c54604051908152f35b346102805760003660031901126102805760206001600160a01b0360065416604051908152f35b34610280576101c036600319011261028057611b546123ea565b6024356001600160a01b039182821682036102805760443583811681036102805761018435938415158503610280576101a435801515810361028057611b98612573565b60048110156110125761122057600154611f2c576012549180851615611ec2574260a4351115611e58577fffffffffffffffffffffffff000000000000000000000000000000000000000081861681600054161760005581871681600554161760055560ff60ff60b81b84151560b81b167fffffffffffffffff00ffffffffffffffffffffffffffffffffffffffffffffff33167fffffffffffffffff00ffffff00000000000000000000000000000000000000008716171760b81c1615611e46575b5060643560075560843560045560a43560015560c43560025560e43560035561010435600b55670de0b6b3a7640000600c55670de0b6b3a7640000600d5560843560643502606435810460843514606435151715610fb85780670de0b6b3a7640000810204670de0b6b3a76400001481151715610fb8577f2399e11ba3240304b47155a0345c63583a85508aa93ea8d5b6faabc4f1a60741976101c09760ff9660ff60b81b94670de0b6b3a7640000611d3276ff0000000000000000000000000000000000000000000096826101043591026129ef565b0491826008556101243560095561014435600a55610164356010558585151560b01b1661ffff60b01b1933167fffffffffffffffff0000ffff00000000000000000000000000000000000000008b1617888a151560b81b16171760125581600f5494816040519d168d521660208c01521660408a015260a43560608a015260c43560808a015260e43560a08a015260843560c08a015260643560e08a01526101008901526101243561012089015261014435610140890152610160880152151560b01b16927fffffffffffffffff0000ffff000000000000000000000000000000000000000061ffff60b01b19331691161791151560b81b16171760b81c161515610180820152610164356101a0820152a1005b81851690600654161760065587611c5b565b608460405162461bcd60e51b815260206004820152603960248201527f43617049737375654d6f64656c3a207374617274206f66206465706f7369746960448201527f6e672063616e206e6f7420626520696e207468652070617374000000000000006064820152fd5b608460405162461bcd60e51b815260206004820152602a60248201527f43617049737375654d6f64656c3a20697373756572206d75737420626520616460448201527f6472657373207a65726f000000000000000000000000000000000000000000006064820152fd5b608460405162461bcd60e51b815260206004820152602260248201527f43617049737375654d6f64656c3a20616c726561647920696e697469616c697a60448201527f65640000000000000000000000000000000000000000000000000000000000006064820152fd5b34610280576000366003190112610280576020600854604051908152f35b34610280576000366003190112610280573233036120b1576012546001600160a01b03604051916312fde4b760e01b835260209081846004818685165afa938415610a2b5760009461208f575b5060b81c60ff1661207b578060249260065416604051938480926370a0823160e01b82523060048301525afa908115610a2b5760009161204b575b506116169150601354906125fe565b905081813d8311612074575b6120618183612469565b810103126102805761161690518361203c565b503d612057565b505061208a47601354906125fe565b611616565b60ff9194506120aa90833d8511610a2457610a168183612469565b9390612001565b606460405162461bcd60e51b815260206004820152601760248201527f43617049737375654d6f64656c3a20454f41206f6e6c790000000000000000006044820152fd5b346102805760003660031901126102805760206001600160a01b0360005416604051908152f35b346102805760203660031901126102805760075480600435106121b557600554600080546040516323b872dd60e01b81526001600160a01b039182166004820152306024820152604481019490945260209284926064928492165af18015610a2b57612196575b612191600754600f5461251b565b600f55005b6121ae9060203d602011610ca257610c928183612469565b5080612183565b608460405162461bcd60e51b815260206004820152602660248201527f616d6f756e74206e6f74206c657373207468616e20697373756564546f6b656e60448201527f416d6f756e7400000000000000000000000000000000000000000000000000006064820152fd5b3461028057600036600319011261028057601254604051638da5cb5b60e01b81526001600160a01b03916020826004818685165afa918215610a2b5775010000000000000000000000000000000000000000009360ff60a81b199361228e9260009161148157501633146124aa565b16176012557f7acc84e34091ae817647a4c49116f5cc07f319078ba80f8f5fde37ea7e25cbd6600080a1005b34610280576000366003190112610280576020601154604051908152f35b34610280576000366003190112610280576122f1612573565b6040516004821015611012576020918152f35b346102805760203660031901126102805760043560046001600160a01b03916020836012541660405193848092638da5cb5b60e01b82525afa918215610a2b577f61b871a906dd1307e7b80a111a52a0a69e93ed6f272c419de95ede09a554d8a89360209361237d9260009161190457501633146124aa565b61239361238c8260015461251b565b4210612528565b80600255604051908152a1005b346102805760003660031901126102805760206001600160a01b0360125416604051908152f35b346102805760003660031901126102805760209060ff60125460a01c1615158152f35b600435906001600160a01b038216820361028057565b6011548110156124375760116000527f31ecc21a745e3968a04e9570e4425bc18fa8019c68028196b546d1669c200c680190600090565b634e487b7160e01b600052603260045260246000fd5b60a0810190811067ffffffffffffffff821117610df957604052565b90601f8019910116810190811067ffffffffffffffff821117610df957604052565b9081602091031261028057516001600160a01b03811681036102805790565b156124b157565b608460405162461bcd60e51b815260206004820152602d60248201527f43617049737375654d6f64656c3a2063616c6c6572206973206e6f742050616460448201527f466163746f7279206f776e6572000000000000000000000000000000000000006064820152fd5b91908201809211610fb857565b1561252f57565b606460405162461bcd60e51b815260206004820152600760248201527f696e76616c6964000000000000000000000000000000000000000000000000006044820152fd5b600154801580156125dd575b1561258a5750600090565b600254612597818361251b565b4210156125b757505060ff60125460c01c166125b257600190565b600290565b6125c09161251b565b421015806125d2575b6125b257600390565b5060035442106125c9565b5080421061257f565b90816020910312610280575180151581036102805790565b91908203918211610fb857565b1561261257565b606460405162461bcd60e51b815260206004820152601a60248201527f43617049737375654d6f64656c3a2057726f6e672070686173650000000000006044820152fd5b1561265d57565b608460405162461bcd60e51b815260206004820152602660248201527f43617049737375654d6f64656c3a206f6e6c79206973737565722063616e206460448201527f6f207468697300000000000000000000000000000000000000000000000000006064820152fd5b156126ce57565b608460405162461bcd60e51b815260206004820152603960248201527f43617049737375654d6f64656c3a206578706563746564206e6f6e2d7a65726f60448201527f207061796d656e7420746f6b656e20746f206465706f736974000000000000006064820152fd5b906001600160a01b03600092168252601460205260408220612758612818565b505090506007548181029181830414901517156127a85760085461277b916129ef565b6013549182156127bc5760010154908181029181830414901517156127a8576127a59293506129ef565b90565b602484634e487b7160e01b81526011600452fd5b505050565b604051906127ce8261244d565b60006080838281528260208201528260408201528260608201520152565b67ffffffffffffffff8111610df95760051b60200190565b80518210156124375760209160051b010190565b6013549060105480830290838204811484151715610fb857612710908101809111610fb857612846916129ef565b61285081846125fe565b91600854808411612862575b50600090565b92503861285c565b60125460b81c60ff166129b5576001600160a01b03908160065416916040918251916370a0823160e01b83523060048401526020958684602481895afa9384156129aa57908794939291600094612979575b50838111156129385750600654855163a9059cbb60e01b81526001600160a01b03939093166004840152602483019390935290945084916044918391600091165af190811561292e5750612910575b50505b565b8161292692903d10610ca257610c928183612469565b50388061290b565b513d6000823e3d90fd5b855163a9059cbb60e01b81526001600160a01b039390931660048401526024830152509384915060449082906000905af190811561292e5750612910575050565b8581969295503d83116129a3575b6129918183612469565b810103126102805786935192386128bc565b503d612987565b85513d6000823e3d90fd5b904790818111156129ca575061290e91612ab6565b905061290e91612ab6565b6129dd612573565b60048110156110125760020361122057565b81156129f9570490565b634e487b7160e01b600052601260045260246000fd5b60ff60125460a81c1615612a1f57565b606460405162461bcd60e51b815260206004820152601f60248201527f43617049737375654d6f64656c3a206973207374696c6c2072756e6e696e67006044820152fd5b60ff60125460a81c16612a7257565b606460405162461bcd60e51b815260206004820152601660248201527f43617049737375654d6f64656c3a2073746f70706564000000000000000000006044820152fd5b60008080809481945af1903d15612b7e573d9067ffffffffffffffff8211612b6a5760405191612af0601f8201601f191660200184612469565b825260203d92013e5b15612b0057565b608460405162461bcd60e51b815260206004820152602560248201527f5472616e7366657248656c7065723a204d455449535f5452414e534645525f4660448201527f41494c45440000000000000000000000000000000000000000000000000000006064820152fd5b80634e487b7160e01b602492526041600452fd5b50612af956fea2646970667358221220f1bff7fe3c3e8fa88aedda457deec08bcdd1ea453be122e554d1a93aadf5923664736f6c634300081800336080806040523461001657612d9b908161001c8239f35b600080fdfe608080604052600436101561001357600080fd5b60003560e01c9081628f2abe1461214b575080630205ab5b1461212457806303dcaa5b14612088578063055ad42e1461205c57806307973ccf1461203e5780631a26af7a14611fa35780631b2b322b14611e245780631d14384814611dfd5780631dd19cb414611cfc578063240b39e314611cde5780633013ce2914611cb7578063325cd79614611c9957806335c1d34914611c685780633728ae9314611c4a578063417d845c14611c2357806341b3d18514611c055780634e862acc14611be757806355873ec014611b65578063590e1ae3146119df5780636386c1c71461197157806368027e431461188b5780636e984f471461175a57806375f12b2114611734578063790ca4131461171657806384d93a8c146116f8578063853b9ddf14611604578063856344291461151c57806386a61b24146113da57806390d976e2146113a4578063940a950e146113865780639a42081414611368578063a035b1fe1461134a578063b0e7073c146111a4578063b6b55f2514610ec4578063b920ade214610ea1578063c15fc68814610cd2578063c629b60914610c1d578063d223e23614610bf7578063d3f42d2414610a90578063d9c146de14610a72578063da89d56c14610989578063db2e21bc1461084c578063dfdf07cf14610821578063e2842d7914610759578063ea9988a2146102d3578063eb85342a146102a0578063f1a640f814610282578063f4cbdcfc146102645763f962f7fe1461023957600080fd5b3461025f57600036600319011261025f57602060ff60105460b01c166040519015158152f35b600080fd5b3461025f57600036600319011261025f576020600a54604051908152f35b3461025f57600036600319011261025f576020600c54604051908152f35b3461025f57600036600319011261025f5760806102bb612601565b91604051938452602084015260408301526060820152f35b3461025f5761018036600319011261025f576102ed6121bb565b6024356001600160a01b038116810361025f57604435916001600160a01b038316830361025f576101443592831515840361025f57610164351515610164350361025f576103396122f7565b6004811015610743576106ff576001546106bb57601054906001600160a01b03831615610651574260a43511156105e7577fffffffffffffffffffffffff00000000000000000000000000000000000000006001600160a01b0384168160005416176000556001600160a01b03851681600554161760055560ff60ff60b81b61016435151560b81b167fffffffffffffffff00ffffffffffffffffffffffffffffffffffffffffffffff33167fffffffffffffffff00ffffff00000000000000000000000000000000000000008616171760b81c16156105ce575b5060643560075560843560045560a43560015560c43560025560e43560035561010435600a55670de0b6b3a7640000600b55670de0b6b3a7640000600c55610460608435606435612c64565b9384670de0b6b3a7640000810204670de0b6b3a764000014851517156105b8577f79ab20a75096ab508edd6210099d050695ca273ae3288805f922b64645ba827f956001600160a01b0360ff9476ff00000000000000000000000000000000000000000000670de0b6b3a76400006104e16101809a82610104359102612c77565b04938460085561012435600955151560b01b16907fffffffffffffffff0000ffff00000000000000000000000000000000000000007fffffffffffffffff0000ffffffffffffffffffffffffffffffffffffffffffff331691161760ff60b81b61016435151560b81b161717938460105581600e5494816040519916895216602088015216604086015260a435606086015260c435608086015260e43560a086015260843560c086015260643560e08601526101008501526101243561012085015261014084015260b81c161515610160820152a1005b634e487b7160e01b600052601160045260246000fd5b6001600160a01b03821690600654161760065585610414565b608460405162461bcd60e51b815260206004820152603660248201527f4e6f43617049737375653a207374617274206f66206465706f736974696e672060448201527f63616e206e6f7420626520696e207468652070617374000000000000000000006064820152fd5b608460405162461bcd60e51b815260206004820152602760248201527f4e6f43617049737375653a20697373756572206d75737420626520616464726560448201527f7373207a65726f000000000000000000000000000000000000000000000000006064820152fd5b606460405162461bcd60e51b815260206004820152601f60248201527f4e6f43617049737375653a20616c726561647920696e697469616c697a6564006044820152fd5b606460405162461bcd60e51b815260206004820152601760248201527f4e6f43617049737375653a2077726f6e672070686173650000000000000000006044820152fd5b634e487b7160e01b600052602160045260246000fd5b3461025f57600036600319011261025f5760405180600f5480835260208093018091600f6000527f8d1108e10bcb7c27dddfc02ed9d693a074039d026cf4ea4240b40f7d581ac8029060005b868282106108045786866107bb828803836121ed565b604051928392818401908285525180915260408401929160005b8281106107e457505050500390f35b83516001600160a01b0316855286955093810193928101926001016107d5565b83546001600160a01b0316855290930192600192830192016107a5565b3461025f57602036600319011261025f57602061084461083f6121bb565b6125b7565b604051908152f35b3461025f57600036600319011261025f57610865612ba3565b3360005260126020526040600020600181019081549081156108f957600082935560ff6003820154166108e3575b826108a0816011546123c0565b6011556108ad8133612a42565b60115460405191825260208201527f1cc4296fc114fa1a2553da447457565b8322925197ec517347a55daee2de7b9d60403392a2005b6108f2925060020154906123c0565b8180610893565b60a460405162461bcd60e51b815260206004820152605060248201527f4e6f43617049737375653a206578706563746564207573657220746f2068617660448201527f65206e6f6e2d7a65726f2062616c616e636520746f20706572666f726d20656d60648201527f657267656e6379207769746864726177000000000000000000000000000000006084820152fd5b3461025f57602036600319011261025f576004356109a5612c4a565b6109ad612bf7565b6109c36001600160a01b03600054163314612418565b6109cb612601565b5050600d5491506109dc828461229f565b11610a2e576109eb908261229f565b600d556109f88133612a42565b600d5460405191825260208201527f26d39082d7f855ce2435a8386aa6c62dc14ae272e8ec397390d6ec2f57c141a060403392a2005b606460405162461bcd60e51b815260206004820152601460248201527f4e6f43617049737375653a204f766572666c6f770000000000000000000000006044820152fd5b3461025f57600036600319011261025f576020600154604051908152f35b3461025f57600036600319011261025f57600f54610aad8161258b565b90610abb60405192836121ed565b808252610ac78161258b565b60209190601f19018260005b828110610be15750505060005b818110610b5d57604080518481528551818601819052868601928201908660005b828110610b0e5784840385f35b9091928260a082610b4e6001948a516080809180518452602081015160208501526040810151604085015260608101511515606085015201511515910152565b01960191019492919094610b01565b806001600160a01b03610b7160019361216e565b919054600392831b1c166000526012855260406000209060405191610b95836121d1565b80548352848101548784015260028101546040840152015460ff908181161515606084015260081c1615156080820152610bcf82876125a3565b52610bda81866125a3565b5001610ae0565b610be9612560565b828288010152018390610ad3565b3461025f57600036600319011261025f57602060ff60105460b81c166040519015158152f35b3461025f57602036600319011261025f576001600160a01b03610c3e6121bb565b610c46612560565b5016600052601260205260a0604060002060ff600360405192610c68846121d1565b80548452600181015460208501526002810154604085015201548181161515606084015260081c1615156080820152610cd060405180926080809180518452602081015160208501526040810151604085015260608101511515606085015201511515910152565bf35b3461025f57600036600319011261025f57610ceb612c4a565b610cf3612bf7565b6010546001600160a01b0360405190638da5cb5b60e01b825260209182816004818588165afa908115610e9557600091610e68575b50163303610e255760ff8260a01c16610dbb577f55bb3cade9d43b798a4fe5ffdd05024b2d7870df53920673bfc7e68047cd0ab190740100000000000000000000000000000000000000007fffffffffffffffffffffff00ffffffffffffffffffffffffffffffffffffffff610d9c612601565b50969150501617601055610db08333612a42565b6040519283523392a2005b6084906040519062461bcd60e51b82526004820152602160248201527f4e6f43617049737375653a206665657320686173206265656e2063686172676560448201527f64000000000000000000000000000000000000000000000000000000000000006064820152fd5b6064906040519062461bcd60e51b825280600483015260248201527f4e6f43617049737375653a206e6f7420706164466163746f7279206f776e65726044820152fd5b610e889150833d8511610e8e575b610e8081836121ed565b81019061220f565b84610d28565b503d610e76565b6040513d6000823e3d90fd5b3461025f57602036600319011261025f576020610844610ebf6121bb565b6124fa565b60208060031936011261025f5760043590610edd612bf7565b610ee56122f7565b6004811015610743576001036111605760105460b81c60ff161561115057610f0e341515612489565b8134036110e6575b3360005260128152600160406000200180541561101b575b610f3983825461229f565b815560105460b81c60ff1661100757610f548360115461229f565b6011556006546040516323b872dd60e01b815233600482015230602482015260448101859052908390829060649082906000906001600160a01b03165af18015610e9557610fda575b505b546011549160405193845283015260408201527f44da1c981094396f5fd8a1b18690bdd6a625f76508fa8140c563f4af6508814560603392a2005b610ff990833d8511611000575b610ff181836121ed565b81019061235d565b5083610f9d565b503d610fe7565b6110133460115461229f565b601155610f9f565b600954831061107c57600f5468010000000000000000811015611066578060016110489201600f5561216e565b81549060031b906001600160a01b0333831b921b1916179055610f2e565b634e487b7160e01b600052604160045260246000fd5b6084826040519062461bcd60e51b82526004820152602260248201527f4e6f43617049737375653a206d757374207265616368206d696e206465706f7360448201527f69740000000000000000000000000000000000000000000000000000000000006064820152fd5b6084906040519062461bcd60e51b82526004820152603660248201527f4e6f43617049737375653a20706172616d20616d6f756e7420616e64206d736760448201527f2076616c75652073686f756c6420626520657175616c000000000000000000006064820152fd5b61115b821515612489565b610f16565b6064906040519062461bcd60e51b82526004820152601760248201527f4e6f43617049737375653a2077726f6e672070686173650000000000000000006044820152fd5b3461025f57600036600319011261025f576111bd612bf7565b6111c56122f7565b6004811015610743576003036106ff57336000526020601281526040600020906003820180549260ff8460081c1661130657549283156112c25761ff001916610100179055600e5491808311156112b7576112219080936123c0565b600e5560055460405163a9059cbb60e01b815233600482015260248101849052908290829060449082906000906001600160a01b03165af18015610e955761129a575b50600e54906040519283528201527ff02c6b636e42d3684de0fcefa1b1aa2c411de898387e21b1f63e4bfce570bb3a60403392a2005b6112b090823d841161100057610ff181836121ed565b5082611264565b5061122182806123c0565b6064836040519062461bcd60e51b82526004820152601760248201527f6e6f20616c6c6f636174696f6e20746f20636c61696d210000000000000000006044820152fd5b6064836040519062461bcd60e51b82526004820152601260248201527f68617320636c61696d656420746f6b656e2100000000000000000000000000006044820152fd5b3461025f57600036600319011261025f576020600454604051908152f35b3461025f57600036600319011261025f576020600d54604051908152f35b3461025f57600036600319011261025f576020600754604051908152f35b3461025f57602036600319011261025f5760206001600160a01b036113ca60043561216e565b9190546040519260031b1c168152f35b3461025f57604036600319011261025f576024356001600160a01b0390816010541691604051638da5cb5b60e01b815260208160048183975afa908115610e95576114329183916000916114fd575b5016331461222e565b61143a6122f7565b60048110156107435760021480156114e3575b611456906123cd565b6004355b82811061146357005b808261147060019361216e565b919054600392831b1c16600052601286527fb149fac85f173bbff866426acfb2743fba815e2b5b41cf508ace9f45e374420686856040600020936114c3826114b78861216e565b905490841b1c166124fa565b8095556114cf8661216e565b9054911b1c1692604051908152a20161145a565b506114ec6122f7565b60048110156107435760031461144d565b611516915060203d602011610e8e57610e8081836121ed565b86611429565b3461025f57600036600319011261025f57611535612ba3565b6001600160a01b0361154c81600054163314612418565b600554166040516370a0823160e01b81523060048201526020918282602481845afa8015610e955783926000916115d2575b506040516323b872dd60e01b815230600482015233602482015260448101919091529190829060649082906000905af18015610e95576115ba57005b816115d092903d1061100057610ff181836121ed565b005b83819492503d83116115fd575b6115e981836121ed565b8101031261025f579051829190600061157e565b503d6115df565b3461025f57600036600319011261025f57611620323314612375565b6001600160a01b03806010541660405180916312fde4b760e01b825281600460209384935afa918215610e95576000926116d6575b50806024929360055416604051938480926370a0823160e01b82523060048301525afa908115610e95576000916116a6575b506116969150600e54906123c0565b8061169d57005b6115d091612a42565b905081813d83116116cf575b6116bc81836121ed565b8101031261025f57611696905183611687565b503d6116b2565b602492506116f18291823d8411610e8e57610e8081836121ed565b9250611655565b3461025f57600036600319011261025f576020600e54604051908152f35b3461025f57600036600319011261025f576020600354604051908152f35b3461025f57600036600319011261025f57602060ff60105460a81c166040519015158152f35b3461025f57600036600319011261025f576001600160a01b03806010541690604051638da5cb5b60e01b815260208160048183965afa908115610e95576117ad91839160009161186c575016331461222e565b6117b56122f7565b6004811015610743576002148015611852575b6117d1906123cd565b60005b600f548110156115d05780826117eb60019361216e565b919054600392831b1c16600052601285527fb149fac85f173bbff866426acfb2743fba815e2b5b41cf508ace9f45e37442068585604060002093611832826114b78861216e565b80955561183e8661216e565b9054911b1c1692604051908152a2016117d4565b5061185b6122f7565b6004811015610743576003146117c8565b611885915060203d602011610e8e57610e8081836121ed565b85611429565b3461025f57602036600319011261025f576004356118a76122f7565b6004811015610743576002148015611957575b6118c3906123cd565b60046001600160a01b03916020836010541660405193848092638da5cb5b60e01b82525afa918215610e95577f513a654da6e21e3dd8eb8c911c92af7fb399e84e65de1fae839afb0213b84e469360209361192892600091611940575016331461222e565b6119334282116122ac565b80600355604051908152a1005b6115169150853d8711610e8e57610e8081836121ed565b506119606122f7565b6004811015610743576003146118ba565b3461025f57602036600319011261025f576001600160a01b036119926121bb565b16600052601260205260a0604060002060ff8154916001810154906003600282015491015491604051948552602085015260408401528181161515606084015260081c1615156080820152f35b3461025f57600036600319011261025f576119f8612601565b9250505015611b2157611a096122f7565b6004811015610743576002148015611b07575b611a25906123cd565b33600052601260205260406000206003810180549160ff8316611a9d5760019182611a4f336125b7565b9485600285015560ff1916179055611a678333612a42565b01549060405191825260208201527f541b685c22bfb3aa2045f81615f9afa1584049198118cd0e6b50ce7041d0888c60403392a2005b608460405162461bcd60e51b815260206004820152602360248201527f4e6f43617049737375653a20616c726561647920636c61696d6564207265667560448201527f6e647300000000000000000000000000000000000000000000000000000000006064820152fd5b50611b106122f7565b600481101561074357600314611a1c565b606460405162461bcd60e51b815260206004820152601660248201527f4e6f43617049737375653a206e6f20726566756e6473000000000000000000006044820152fd5b3461025f57600036600319011261025f576010546001600160a01b0390604051638da5cb5b60e01b81526020816004818686165afa928315610e955760ff60a81b1993611bbc9260009161186c575016331461222e565b166010557f08b16cfeab45b89edc067cbd4a68c81cfa75390ecbb33d8201a4f51facbbd4c5600080a1005b3461025f57600036600319011261025f576020601154604051908152f35b3461025f57600036600319011261025f576020600954604051908152f35b3461025f57600036600319011261025f5760206001600160a01b0360055416604051908152f35b3461025f57600036600319011261025f576020600254604051908152f35b3461025f57602036600319011261025f57600435600f5481101561025f576001600160a01b036113ca60209261216e565b3461025f57600036600319011261025f576020600b54604051908152f35b3461025f57600036600319011261025f5760206001600160a01b0360065416604051908152f35b3461025f57600036600319011261025f576020600854604051908152f35b3461025f57600036600319011261025f57611d18323314612375565b6010546001600160a01b03604051916312fde4b760e01b835260209081846004818685165afa938415610e9557600094611ddb575b5060b81c60ff16611dc7578060249260065416604051938480926370a0823160e01b82523060048301525afa908115610e9557600091611d97575b506116969150601154906123c0565b905081813d8311611dc0575b611dad81836121ed565b8101031261025f57611696905183611d88565b503d611da3565b5050611dd647601154906123c0565b611696565b60ff919450611df690833d8511610e8e57610e8081836121ed565b9390611d4d565b3461025f57600036600319011261025f5760206001600160a01b0360005416604051908152f35b3461025f5760208060031936011261025f57600435906007548210611f3957601080547fffffffffffffffffff00ffffffffffffffffffffffffffffffffffffffffffff16760100000000000000000000000000000000000000000000179055600554600080546040516323b872dd60e01b81526001600160a01b03918216600482015230602482015260448101869052949284928692606492849291165af1918215610e95577f029697fa99f575a35ec1ca6b06cdcfc85829448d8b2817f73452254f735899bd93606093611f1c575b50611f04600754600e5461229f565b9081600e5560405192835233908301526040820152a1005b611f3290823d841161100057610ff181836121ed565b5084611ef5565b6084906040519062461bcd60e51b82526004820152602660248201527f616d6f756e74206e6f74206c657373207468616e20697373756564546f6b656e60448201527f416d6f756e7400000000000000000000000000000000000000000000000000006064820152fd5b3461025f57600036600319011261025f57601054604051638da5cb5b60e01b81526001600160a01b03916020826004818685165afa918215610e955775010000000000000000000000000000000000000000009360ff60a81b1993612012926000916114fd575016331461222e565b16176010557f7acc84e34091ae817647a4c49116f5cc07f319078ba80f8f5fde37ea7e25cbd6600080a1005b3461025f57600036600319011261025f576020600f54604051908152f35b3461025f57600036600319011261025f576120756122f7565b6040516004821015610743576020918152f35b3461025f57602036600319011261025f5760043560046001600160a01b03916020836010541660405193848092638da5cb5b60e01b82525afa918215610e95577f61b871a906dd1307e7b80a111a52a0a69e93ed6f272c419de95ede09a554d8a89360209361210192600091611940575016331461222e565b6121176121108260015461229f565b42106122ac565b80600255604051908152a1005b3461025f57600036600319011261025f5760206001600160a01b0360105416604051908152f35b3461025f57600036600319011261025f5760209060ff60105460a01c1615158152f35b600f548110156121a557600f6000527f8d1108e10bcb7c27dddfc02ed9d693a074039d026cf4ea4240b40f7d581ac8020190600090565b634e487b7160e01b600052603260045260246000fd5b600435906001600160a01b038216820361025f57565b60a0810190811067ffffffffffffffff82111761106657604052565b90601f8019910116810190811067ffffffffffffffff82111761106657604052565b9081602091031261025f57516001600160a01b038116810361025f5790565b1561223557565b608460405162461bcd60e51b815260206004820152602a60248201527f4e6f43617049737375653a2063616c6c6572206973206e6f742050616446616360448201527f746f7279206f776e6572000000000000000000000000000000000000000000006064820152fd5b919082018092116105b857565b156122b357565b606460405162461bcd60e51b815260206004820152600760248201527f696e76616c6964000000000000000000000000000000000000000000000000006044820152fd5b60015480158015612354575b1561230e5750600090565b60025461231b818361229f565b421015612329575050600190565b6123329161229f565b42101580612349575b61234457600390565b600290565b50600354421061233b565b50804210612303565b9081602091031261025f5751801515810361025f5790565b1561237c57565b606460405162461bcd60e51b815260206004820152601460248201527f4e6f43617049737375653a20454f41206f6e6c790000000000000000000000006044820152fd5b919082039182116105b857565b156123d457565b606460405162461bcd60e51b815260206004820152601760248201527f4e6f43617049737375653a2057726f6e672070686173650000000000000000006044820152fd5b1561241f57565b608460405162461bcd60e51b815260206004820152602360248201527f4e6f43617049737375653a206f6e6c79206973737565722063616e20646f207460448201527f68697300000000000000000000000000000000000000000000000000000000006064820152fd5b1561249057565b608460405162461bcd60e51b815260206004820152603660248201527f4e6f43617049737375653a206578706563746564206e6f6e2d7a65726f20706160448201527f796d656e7420746f6b656e20746f206465706f736974000000000000000000006064820152fd5b6001600160a01b03166000526012602052604060002061253361252a61251e612601565b50509050600754612c64565b60085490612c77565b601154909181156125585761255592600161255092015490612c64565b612c77565b90565b505050600090565b6040519061256d826121d1565b60006080838281528260208201528260408201528260608201520152565b67ffffffffffffffff81116110665760051b60200190565b80518210156121a55760209160051b010190565b6001600160a01b0316600052601260205260406000206125d5612601565b92505050600091816125e657505090565b6001015461255592506125f891612c64565b60115490612c77565b601154906001600160a01b0360105416906040918251927f40490a9000000000000000000000000000000000000000000000000000000000845260049160c0858481845afa948515612a375760009561299a575b5081517fb851f5b4000000000000000000000000000000000000000000000000000000009384825260008183015260209160249083818381885afa90811561298f57600091612962575b50956008549860a0810190600a806126b98d855190612c64565b048d111561278a575050849596975051958751968794859384528301525afa9283156127805750600092612752575b50505b61271090816126fa8286612c64565b0485612706868361229f565b111561274957506127179085612c64565b04905b61272482856123c0565b92808411612741575b506125558261273c85876123c0565b6123c0565b92503861272d565b9150509061271a565b90809250813d8311612779575b61276981836121ed565b8101031261025f575138806126e8565b503d61275f565b513d6000823e3d90fd5b90915060808201918161279f8d855190612c64565b048d1115612803575050849596975051958751968794859384528301525afa92831561278057506000926127d5575b50506126eb565b90809250813d83116127fc575b6127ec81836121ed565b8101031261025f575138806127ce565b503d6127e2565b9091506060810191806128188d855190612c64565b048d111561284d575050849596975051958751968794859384528301525afa92831561278057506000926127d55750506126eb565b90915087820191816128618d855190612c64565b048d1115612896575050849596975051958751968794859384528301525afa92831561278057506000926127d55750506126eb565b90915085810191806128aa8d855190612c64565b048d11156128df575050849596975051958751968794859384528301525afa92831561278057506000926127d55750506126eb565b9091506128ed82518c612c64565b048b11612901575b505050505050506126eb565b849596975051958751968794859384528301525afa9283156127805750600092612934575b5050388080808080806128f5565b90809250813d831161295b575b61294b81836121ed565b8101031261025f57513880612926565b503d612941565b90508381813d8311612988575b61297981836121ed565b8101031261025f57513861269f565b503d61296f565b86513d6000823e3d90fd5b60c0959195813d60c011612a2f575b816129b660c093836121ed565b81010312612a2b5782519160c083019083821067ffffffffffffffff831117612a1857509060a0918452805183526020810151602084015283810151848401526060810151606084015260808101516080840152015160a08201529338612655565b80604187634e487b7160e01b6024945252fd5b5080fd5b3d91506129a9565b82513d6000823e3d90fd5b60105460b81c60ff16612b83576001600160a01b03908160065416916040918251916370a0823160e01b83523060048401526020958684602481895afa938415612b7857908794939291600094612b47575b5083811115612b065750600654855163a9059cbb60e01b81526001600160a01b03939093166004840152602483019390935290945084916044918391600091165af19081156127805750612ae8575b50505b565b81612afe92903d1061100057610ff181836121ed565b503880612ae3565b855163a9059cbb60e01b81526001600160a01b039390931660048401526024830152509384915060449082906000905af19081156127805750612ae8575050565b8581969295503d8311612b71575b612b5f81836121ed565b8101031261025f578693519238612a94565b503d612b55565b85513d6000823e3d90fd5b90479081811115612b985750612ae691612c97565b9050612ae691612c97565b60ff60105460a81c1615612bb357565b606460405162461bcd60e51b815260206004820152601c60248201527f4e6f43617049737375653a206973207374696c6c2072756e6e696e67000000006044820152fd5b60ff60105460a81c16612c0657565b606460405162461bcd60e51b815260206004820152601360248201527f4e6f43617049737375653a2073746f70706564000000000000000000000000006044820152fd5b612c526122f7565b6004811015610743576002036106ff57565b818102929181159184041417156105b857565b8115612c81570490565b634e487b7160e01b600052601260045260246000fd5b60008080809481945af1903d15612d5f573d9067ffffffffffffffff8211612d4b5760405191612cd1601f8201601f1916602001846121ed565b825260203d92013e5b15612ce157565b608460405162461bcd60e51b815260206004820152602560248201527f5472616e7366657248656c7065723a204d455449535f5452414e534645525f4660448201527f41494c45440000000000000000000000000000000000000000000000000000006064820152fd5b80634e487b7160e01b602492526041600452fd5b50612cda56fea2646970667358221220409c6c96fcacd711c49d47b2c9f9a6cdebd6f0486627c10b2480ee6b7fbe9d9664736f6c63430008180033a2646970667358221220e08f697b084f5f9b383c38a9f83eb84ffa069139be917616bd780b888ce59ec664736f6c63430008180033",
  "linkReferences": {},
  "deployedLinkReferences": {}
}