{
  "_format": "hh-sol-artifact-1",
  "contractName": "NoCapIssueModel",
  "sourceName": "contracts/NoCapIssueModel.sol",
  "abi": [
    {
      "anonymous": false,
      "inputs": [
        {
          "indexed": true,
          "internalType": "address",
          "name": "user",
          "type": "address"
        },
        {
          "indexed": false,
          "internalType": "uint256",
          "name": "fees",
          "type": "uint256"
        }
      ],
      "name": "FeeCharged",
      "type": "event"
    },
    {
      "anonymous": false,
      "inputs": [
        {
          "indexed": false,
          "internalType": "uint256",
          "name": "tokenAmount",
          "type": "uint256"
        },
        {
          "indexed": false,
          "internalType": "address",
          "name": "sender",
          "type": "address"
        },
        {
          "indexed": false,
          "internalType": "uint256",
          "name": "storageAmount",
          "type": "uint256"
        }
      ],
      "name": "IssuedTokenCharge",
      "type": "event"
    },
    {
      "anonymous": false,
      "inputs": [
        {
          "indexed": true,
          "internalType": "address",
          "name": "issuer",
          "type": "address"
        },
        {
          "indexed": false,
          "internalType": "uint256",
          "name": "amount",
          "type": "uint256"
        },
        {
          "indexed": false,
          "internalType": "uint256",
          "name": "accAmount",
          "type": "uint256"
        }
      ],
      "name": "IssuerChargedRaised",
      "type": "event"
    },
    {
      "anonymous": false,
      "inputs": [
        {
          "indexed": false,
          "internalType": "address",
          "name": "issuer",
          "type": "address"
        },
        {
          "indexed": false,
          "internalType": "address",
          "name": "issueToken",
          "type": "address"
        },
        {
          "indexed": false,
          "internalType": "address",
          "name": "paymentToken",
          "type": "address"
        },
        {
          "indexed": false,
          "internalType": "uint256",
          "name": "depositStart",
          "type": "uint256"
        },
        {
          "indexed": false,
          "internalType": "uint256",
          "name": "duration",
          "type": "uint256"
        },
        {
          "indexed": false,
          "internalType": "uint256",
          "name": "launchTime",
          "type": "uint256"
        },
        {
          "indexed": false,
          "internalType": "uint256",
          "name": "price",
          "type": "uint256"
        },
        {
          "indexed": false,
          "internalType": "uint256",
          "name": "issuedTokenAmount",
          "type": "uint256"
        },
        {
          "indexed": false,
          "internalType": "uint256",
          "name": "targetRaised",
          "type": "uint256"
        },
        {
          "indexed": false,
          "internalType": "uint256",
          "name": "minDeposit",
          "type": "uint256"
        },
        {
          "indexed": false,
          "internalType": "uint256",
          "name": "storageIssuedTokenAmount",
          "type": "uint256"
        },
        {
          "indexed": false,
          "internalType": "bool",
          "name": "isPaymentNative",
          "type": "bool"
        }
      ],
      "name": "NoCapIssueEventInitialized",
      "type": "event"
    },
    {
      "anonymous": false,
      "inputs": [
        {
          "indexed": true,
          "internalType": "address",
          "name": "user",
          "type": "address"
        },
        {
          "indexed": false,
          "internalType": "uint256",
          "name": "amount",
          "type": "uint256"
        },
        {
          "indexed": false,
          "internalType": "uint256",
          "name": "paymentTokenReserve",
          "type": "uint256"
        }
      ],
      "name": "PaymentTokenEmergencyWithdraw",
      "type": "event"
    },
    {
      "anonymous": false,
      "inputs": [],
      "name": "RecoverStopped",
      "type": "event"
    },
    {
      "anonymous": false,
      "inputs": [
        {
          "indexed": true,
          "internalType": "address",
          "name": "user",
          "type": "address"
        },
        {
          "indexed": false,
          "internalType": "uint256",
          "name": "allocation",
          "type": "uint256"
        }
      ],
      "name": "SetUserAlocation",
      "type": "event"
    },
    {
      "anonymous": false,
      "inputs": [],
      "name": "Stopped",
      "type": "event"
    },
    {
      "anonymous": false,
      "inputs": [
        {
          "indexed": false,
          "internalType": "uint256",
          "name": "newDuration",
          "type": "uint256"
        }
      ],
      "name": "UpdateDepositDurationEvent",
      "type": "event"
    },
    {
      "anonymous": false,
      "inputs": [
        {
          "indexed": false,
          "internalType": "uint256",
          "name": "newLuanchTime",
          "type": "uint256"
        }
      ],
      "name": "UpdateLaunchTimeEvent",
      "type": "event"
    },
    {
      "anonymous": false,
      "inputs": [
        {
          "indexed": true,
          "internalType": "address",
          "name": "user",
          "type": "address"
        },
        {
          "indexed": false,
          "internalType": "uint256",
          "name": "paidAmount",
          "type": "uint256"
        },
        {
          "indexed": false,
          "internalType": "uint256",
          "name": "balance",
          "type": "uint256"
        },
        {
          "indexed": false,
          "internalType": "uint256",
          "name": "paymentTokenReserve",
          "type": "uint256"
        }
      ],
      "name": "UserParticipated",
      "type": "event"
    },
    {
      "anonymous": false,
      "inputs": [
        {
          "indexed": true,
          "internalType": "address",
          "name": "user",
          "type": "address"
        },
        {
          "indexed": false,
          "internalType": "uint256",
          "name": "paidAmount",
          "type": "uint256"
        },
        {
          "indexed": false,
          "internalType": "uint256",
          "name": "refunds",
          "type": "uint256"
        }
      ],
      "name": "UserRefunds",
      "type": "event"
    },
    {
      "anonymous": false,
      "inputs": [
        {
          "indexed": true,
          "internalType": "address",
          "name": "user",
          "type": "address"
        },
        {
          "indexed": false,
          "internalType": "uint256",
          "name": "claimAmount",
          "type": "uint256"
        },
        {
          "indexed": false,
          "internalType": "uint256",
          "name": "storageIssuedTokenAmount",
          "type": "uint256"
        }
      ],
      "name": "claimIssuedTokenEvent",
      "type": "event"
    },
    {
      "inputs": [],
      "name": "DEPOSIT_DURATION",
      "outputs": [
        {
          "internalType": "uint256",
          "name": "",
          "type": "uint256"
        }
      ],
      "stateMutability": "view",
      "type": "function"
    },
    {
      "inputs": [],
      "name": "PRICE_DECIMALS",
      "outputs": [
        {
          "internalType": "uint256",
          "name": "",
          "type": "uint256"
        }
      ],
      "stateMutability": "view",
      "type": "function"
    },
    {
      "inputs": [],
      "name": "accIssuerCharged",
      "outputs": [
        {
          "internalType": "uint256",
          "name": "",
          "type": "uint256"
        }
      ],
      "stateMutability": "view",
      "type": "function"
    },
    {
      "inputs": [],
      "name": "allowEmergencyWithdraw",
      "outputs": [],
      "stateMutability": "nonpayable",
      "type": "function"
    },
    {
      "inputs": [],
      "name": "autoSetAlloc",
      "outputs": [],
      "stateMutability": "nonpayable",
      "type": "function"
    },
    {
      "inputs": [],
      "name": "chargeFees",
      "outputs": [],
      "stateMutability": "nonpayable",
      "type": "function"
    },
    {
      "inputs": [
        {
          "internalType": "uint256",
          "name": "_amount",
          "type": "uint256"
        }
      ],
      "name": "chargeRaised",
      "outputs": [],
      "stateMutability": "nonpayable",
      "type": "function"
    },
    {
      "inputs": [],
      "name": "claimIssuedToken",
      "outputs": [],
      "stateMutability": "nonpayable",
      "type": "function"
    },
    {
      "inputs": [],
      "name": "currentPhase",
      "outputs": [
        {
          "internalType": "enum NoCapIssueModel.Phase",
          "name": "",
          "type": "uint8"
        }
      ],
      "stateMutability": "view",
      "type": "function"
    },
    {
      "inputs": [
        {
          "internalType": "uint256",
          "name": "amount",
          "type": "uint256"
        }
      ],
      "name": "deposit",
      "outputs": [],
      "stateMutability": "payable",
      "type": "function"
    },
    {
      "inputs": [],
      "name": "depositStart",
      "outputs": [
        {
          "internalType": "uint256",
          "name": "",
          "type": "uint256"
        }
      ],
      "stateMutability": "view",
      "type": "function"
    },
    {
      "inputs": [],
      "name": "emergencyWithdraw",
      "outputs": [],
      "stateMutability": "nonpayable",
      "type": "function"
    },
    {
      "inputs": [],
      "name": "emergencyWithdrawIssuedToken",
      "outputs": [],
      "stateMutability": "nonpayable",
      "type": "function"
    },
    {
      "inputs": [],
      "name": "getAllUserInfo",
      "outputs": [
        {
          "components": [
            {
              "internalType": "uint256",
              "name": "allocation",
              "type": "uint256"
            },
            {
              "internalType": "uint256",
              "name": "balance",
              "type": "uint256"
            },
            {
              "internalType": "uint256",
              "name": "refunds",
              "type": "uint256"
            },
            {
              "internalType": "bool",
              "name": "hasClaimedRefunds",
              "type": "bool"
            },
            {
              "internalType": "bool",
              "name": "hasClaimedIssuedToken",
              "type": "bool"
            }
          ],
          "internalType": "struct IIssueModel.UserInfo[]",
          "name": "",
          "type": "tuple[]"
        }
      ],
      "stateMutability": "view",
      "type": "function"
    },
    {
      "inputs": [],
      "name": "getAllUsers",
      "outputs": [
        {
          "internalType": "address[]",
          "name": "",
          "type": "address[]"
        }
      ],
      "stateMutability": "view",
      "type": "function"
    },
    {
      "inputs": [],
      "name": "getFundsDistribution",
      "outputs": [
        {
          "internalType": "uint256",
          "name": "totalRaised",
          "type": "uint256"
        },
        {
          "internalType": "uint256",
          "name": "issuerCharged",
          "type": "uint256"
        },
        {
          "internalType": "uint256",
          "name": "fees",
          "type": "uint256"
        },
        {
          "internalType": "uint256",
          "name": "refunds",
          "type": "uint256"
        }
      ],
      "stateMutability": "view",
      "type": "function"
    },
    {
      "inputs": [
        {
          "internalType": "uint256",
          "name": "_index",
          "type": "uint256"
        }
      ],
      "name": "getUserAddress",
      "outputs": [
        {
          "internalType": "address",
          "name": "",
          "type": "address"
        }
      ],
      "stateMutability": "view",
      "type": "function"
    },
    {
      "inputs": [
        {
          "internalType": "address",
          "name": "_user",
          "type": "address"
        }
      ],
      "name": "getUserAllocation",
      "outputs": [
        {
          "internalType": "uint256",
          "name": "",
          "type": "uint256"
        }
      ],
      "stateMutability": "view",
      "type": "function"
    },
    {
      "inputs": [
        {
          "internalType": "address",
          "name": "",
          "type": "address"
        }
      ],
      "name": "getUserInfo",
      "outputs": [
        {
          "internalType": "uint256",
          "name": "allocation",
          "type": "uint256"
        },
        {
          "internalType": "uint256",
          "name": "balance",
          "type": "uint256"
        },
        {
          "internalType": "uint256",
          "name": "refunds",
          "type": "uint256"
        },
        {
          "internalType": "bool",
          "name": "hasClaimedRefunds",
          "type": "bool"
        },
        {
          "internalType": "bool",
          "name": "hasClaimedIssuedToken",
          "type": "bool"
        }
      ],
      "stateMutability": "view",
      "type": "function"
    },
    {
      "inputs": [
        {
          "internalType": "address",
          "name": "_user",
          "type": "address"
        }
      ],
      "name": "getUserInfoFromMapping",
      "outputs": [
        {
          "components": [
            {
              "internalType": "uint256",
              "name": "allocation",
              "type": "uint256"
            },
            {
              "internalType": "uint256",
              "name": "balance",
              "type": "uint256"
            },
            {
              "internalType": "uint256",
              "name": "refunds",
              "type": "uint256"
            },
            {
              "internalType": "bool",
              "name": "hasClaimedRefunds",
              "type": "bool"
            },
            {
              "internalType": "bool",
              "name": "hasClaimedIssuedToken",
              "type": "bool"
            }
          ],
          "internalType": "struct IIssueModel.UserInfo",
          "name": "",
          "type": "tuple"
        }
      ],
      "stateMutability": "view",
      "type": "function"
    },
    {
      "inputs": [
        {
          "internalType": "address",
          "name": "_user",
          "type": "address"
        }
      ],
      "name": "getUserRefunds",
      "outputs": [
        {
          "internalType": "uint256",
          "name": "",
          "type": "uint256"
        }
      ],
      "stateMutability": "view",
      "type": "function"
    },
    {
      "inputs": [],
      "name": "hasFeeCharged",
      "outputs": [
        {
          "internalType": "bool",
          "name": "",
          "type": "bool"
        }
      ],
      "stateMutability": "view",
      "type": "function"
    },
    {
      "inputs": [
        {
          "internalType": "address",
          "name": "_issuer",
          "type": "address"
        },
        {
          "internalType": "address",
          "name": "_issuedToken",
          "type": "address"
        },
        {
          "internalType": "address",
          "name": "_paymentToken",
          "type": "address"
        },
        {
          "internalType": "uint256",
          "name": "_issuedTokenAmount",
          "type": "uint256"
        },
        {
          "internalType": "uint256",
          "name": "_price",
          "type": "uint256"
        },
        {
          "internalType": "uint256",
          "name": "_depositStartTime",
          "type": "uint256"
        },
        {
          "internalType": "uint256",
          "name": "_depositDuration",
          "type": "uint256"
        },
        {
          "internalType": "uint256",
          "name": "_launchTime",
          "type": "uint256"
        },
        {
          "internalType": "uint256",
          "name": "_decimals",
          "type": "uint256"
        },
        {
          "internalType": "uint256",
          "name": "_minDeposit",
          "type": "uint256"
        },
        {
          "internalType": "bool",
          "name": "_needAutoDistribution",
          "type": "bool"
        },
        {
          "internalType": "bool",
          "name": "_isPaymentNative",
          "type": "bool"
        }
      ],
      "name": "initialize",
      "outputs": [],
      "stateMutability": "nonpayable",
      "type": "function"
    },
    {
      "inputs": [],
      "name": "isPaymentNative",
      "outputs": [
        {
          "internalType": "bool",
          "name": "",
          "type": "bool"
        }
      ],
      "stateMutability": "view",
      "type": "function"
    },
    {
      "inputs": [],
      "name": "issuedToken",
      "outputs": [
        {
          "internalType": "contract IERC20MetadataUpgradeable",
          "name": "",
          "type": "address"
        }
      ],
      "stateMutability": "view",
      "type": "function"
    },
    {
      "inputs": [],
      "name": "issuedTokenAmount",
      "outputs": [
        {
          "internalType": "uint256",
          "name": "",
          "type": "uint256"
        }
      ],
      "stateMutability": "view",
      "type": "function"
    },
    {
      "inputs": [],
      "name": "issuedTokenDecimals",
      "outputs": [
        {
          "internalType": "uint256",
          "name": "",
          "type": "uint256"
        }
      ],
      "stateMutability": "view",
      "type": "function"
    },
    {
      "inputs": [],
      "name": "issuer",
      "outputs": [
        {
          "internalType": "address",
          "name": "",
          "type": "address"
        }
      ],
      "stateMutability": "view",
      "type": "function"
    },
    {
      "inputs": [],
      "name": "launchTime",
      "outputs": [
        {
          "internalType": "uint256",
          "name": "",
          "type": "uint256"
        }
      ],
      "stateMutability": "view",
      "type": "function"
    },
    {
      "inputs": [
        {
          "internalType": "uint256",
          "name": "_start",
          "type": "uint256"
        },
        {
          "internalType": "uint256",
          "name": "_end",
          "type": "uint256"
        }
      ],
      "name": "manullySetAlloc",
      "outputs": [],
      "stateMutability": "nonpayable",
      "type": "function"
    },
    {
      "inputs": [],
      "name": "minDeposit",
      "outputs": [
        {
          "internalType": "uint256",
          "name": "",
          "type": "uint256"
        }
      ],
      "stateMutability": "view",
      "type": "function"
    },
    {
      "inputs": [],
      "name": "needAutoDistribution",
      "outputs": [
        {
          "internalType": "bool",
          "name": "",
          "type": "bool"
        }
      ],
      "stateMutability": "view",
      "type": "function"
    },
    {
      "inputs": [],
      "name": "padFactory",
      "outputs": [
        {
          "internalType": "contract LaunchPadFactory",
          "name": "",
          "type": "address"
        }
      ],
      "stateMutability": "view",
      "type": "function"
    },
    {
      "inputs": [
        {
          "internalType": "uint256",
          "name": "",
          "type": "uint256"
        }
      ],
      "name": "participants",
      "outputs": [
        {
          "internalType": "address",
          "name": "",
          "type": "address"
        }
      ],
      "stateMutability": "view",
      "type": "function"
    },
    {
      "inputs": [],
      "name": "paymentToken",
      "outputs": [
        {
          "internalType": "contract IERC20MetadataUpgradeable",
          "name": "",
          "type": "address"
        }
      ],
      "stateMutability": "view",
      "type": "function"
    },
    {
      "inputs": [],
      "name": "paymentTokenDecimals",
      "outputs": [
        {
          "internalType": "uint256",
          "name": "",
          "type": "uint256"
        }
      ],
      "stateMutability": "view",
      "type": "function"
    },
    {
      "inputs": [],
      "name": "paymentTokenReserve",
      "outputs": [
        {
          "internalType": "uint256",
          "name": "",
          "type": "uint256"
        }
      ],
      "stateMutability": "view",
      "type": "function"
    },
    {
      "inputs": [],
      "name": "price",
      "outputs": [
        {
          "internalType": "uint256",
          "name": "",
          "type": "uint256"
        }
      ],
      "stateMutability": "view",
      "type": "function"
    },
    {
      "inputs": [],
      "name": "recoverStop",
      "outputs": [],
      "stateMutability": "nonpayable",
      "type": "function"
    },
    {
      "inputs": [],
      "name": "refund",
      "outputs": [],
      "stateMutability": "nonpayable",
      "type": "function"
    },
    {
      "inputs": [],
      "name": "skim",
      "outputs": [],
      "stateMutability": "nonpayable",
      "type": "function"
    },
    {
      "inputs": [],
      "name": "skimIssuedToken",
      "outputs": [],
      "stateMutability": "nonpayable",
      "type": "function"
    },
    {
      "inputs": [],
      "name": "stopped",
      "outputs": [
        {
          "internalType": "bool",
          "name": "",
          "type": "bool"
        }
      ],
      "stateMutability": "view",
      "type": "function"
    },
    {
      "inputs": [],
      "name": "storageIssuedTokenAmount",
      "outputs": [
        {
          "internalType": "uint256",
          "name": "",
          "type": "uint256"
        }
      ],
      "stateMutability": "view",
      "type": "function"
    },
    {
      "inputs": [],
      "name": "targetRaised",
      "outputs": [
        {
          "internalType": "uint256",
          "name": "",
          "type": "uint256"
        }
      ],
      "stateMutability": "view",
      "type": "function"
    },
    {
      "inputs": [
        {
          "internalType": "uint256",
          "name": "amount",
          "type": "uint256"
        }
      ],
      "name": "transferIssuedToken",
      "outputs": [],
      "stateMutability": "nonpayable",
      "type": "function"
    },
    {
      "inputs": [
        {
          "internalType": "uint256",
          "name": "_newDuration",
          "type": "uint256"
        }
      ],
      "name": "updateDepositDuration",
      "outputs": [],
      "stateMutability": "nonpayable",
      "type": "function"
    },
    {
      "inputs": [
        {
          "internalType": "uint256",
          "name": "_newLaunchTime",
          "type": "uint256"
        }
      ],
      "name": "updateLaunchTime",
      "outputs": [],
      "stateMutability": "nonpayable",
      "type": "function"
    },
    {
      "inputs": [],
      "name": "userCount",
      "outputs": [
        {
          "internalType": "uint256",
          "name": "",
          "type": "uint256"
        }
      ],
      "stateMutability": "view",
      "type": "function"
    }
  ],
  "bytecode": "0x6080806040523461001657612d95908161001c8239f35b600080fdfe608080604052600436101561001357600080fd5b60003560e01c9081628f2abe14612145575080630205ab5b1461211e57806303dcaa5b14612082578063055ad42e1461205657806307973ccf146120385780631a26af7a14611f9d5780631b2b322b14611e1e5780631d14384814611df75780631dd19cb414611cf6578063240b39e314611cd85780633013ce2914611cb1578063325cd79614611c9357806335c1d34914611c625780633728ae9314611c44578063417d845c14611c1d57806341b3d18514611bff5780634e862acc14611be157806355873ec014611b5f578063590e1ae3146119d95780636386c1c71461196b57806368027e43146118855780636e984f471461175457806375f12b211461172e578063790ca4131461171057806384d93a8c146116f2578063853b9ddf146115fe578063856344291461151c57806386a61b24146113da57806390d976e2146113a4578063940a950e146113865780639a42081414611368578063a035b1fe1461134a578063b0e7073c146111a4578063b6b55f2514610ec4578063b920ade214610ea1578063c15fc68814610cd2578063c629b60914610c1d578063d223e23614610bf7578063d3f42d2414610a90578063d9c146de14610a72578063da89d56c14610989578063db2e21bc1461084c578063dfdf07cf14610821578063e2842d7914610759578063ea9988a2146102d3578063eb85342a146102a0578063f1a640f814610282578063f4cbdcfc146102645763f962f7fe1461023957600080fd5b3461025f57600036600319011261025f57602060ff60105460b01c166040519015158152f35b600080fd5b3461025f57600036600319011261025f576020600a54604051908152f35b3461025f57600036600319011261025f576020600c54604051908152f35b3461025f57600036600319011261025f5760806102bb6125fb565b91604051938452602084015260408301526060820152f35b3461025f5761018036600319011261025f576102ed6121b5565b6024356001600160a01b038116810361025f57604435916001600160a01b038316830361025f576101443592831515840361025f57610164351515610164350361025f576103396122f1565b6004811015610743576106ff576001546106bb57601054906001600160a01b03831615610651574260a43511156105e7577fffffffffffffffffffffffff00000000000000000000000000000000000000006001600160a01b0384168160005416176000556001600160a01b03851681600554161760055560ff60ff60b81b61016435151560b81b167fffffffffffffffff00ffffffffffffffffffffffffffffffffffffffffffffff33167fffffffffffffffff00ffffff00000000000000000000000000000000000000008616171760b81c16156105ce575b5060643560075560843560045560a43560015560c43560025560e43560035561010435600a55670de0b6b3a7640000600b55670de0b6b3a7640000600c55610460608435606435612c5e565b9384670de0b6b3a7640000810204670de0b6b3a764000014851517156105b8577f79ab20a75096ab508edd6210099d050695ca273ae3288805f922b64645ba827f956001600160a01b0360ff9476ff00000000000000000000000000000000000000000000670de0b6b3a76400006104e16101809a82610104359102612c71565b04938460085561012435600955151560b01b16907fffffffffffffffff0000ffff00000000000000000000000000000000000000007fffffffffffffffff0000ffffffffffffffffffffffffffffffffffffffffffff331691161760ff60b81b61016435151560b81b161717938460105581600e5494816040519916895216602088015216604086015260a435606086015260c435608086015260e43560a086015260843560c086015260643560e08601526101008501526101243561012085015261014084015260b81c161515610160820152a1005b634e487b7160e01b600052601160045260246000fd5b6001600160a01b03821690600654161760065585610414565b608460405162461bcd60e51b815260206004820152603660248201527f4e6f43617049737375653a207374617274206f66206465706f736974696e672060448201527f63616e206e6f7420626520696e207468652070617374000000000000000000006064820152fd5b608460405162461bcd60e51b815260206004820152602760248201527f4e6f43617049737375653a20697373756572206d75737420626520616464726560448201527f7373207a65726f000000000000000000000000000000000000000000000000006064820152fd5b606460405162461bcd60e51b815260206004820152601f60248201527f4e6f43617049737375653a20616c726561647920696e697469616c697a6564006044820152fd5b606460405162461bcd60e51b815260206004820152601760248201527f4e6f43617049737375653a2077726f6e672070686173650000000000000000006044820152fd5b634e487b7160e01b600052602160045260246000fd5b3461025f57600036600319011261025f5760405180600f5480835260208093018091600f6000527f8d1108e10bcb7c27dddfc02ed9d693a074039d026cf4ea4240b40f7d581ac8029060005b868282106108045786866107bb828803836121e7565b604051928392818401908285525180915260408401929160005b8281106107e457505050500390f35b83516001600160a01b0316855286955093810193928101926001016107d5565b83546001600160a01b0316855290930192600192830192016107a5565b3461025f57602036600319011261025f57602061084461083f6121b5565b6125b1565b604051908152f35b3461025f57600036600319011261025f57610865612b9d565b3360005260126020526040600020600181019081549081156108f957600082935560ff6003820154166108e3575b826108a0816011546123ba565b6011556108ad8133612a3c565b60115460405191825260208201527f1cc4296fc114fa1a2553da447457565b8322925197ec517347a55daee2de7b9d60403392a2005b6108f2925060020154906123ba565b8180610893565b60a460405162461bcd60e51b815260206004820152605060248201527f4e6f43617049737375653a206578706563746564207573657220746f2068617660448201527f65206e6f6e2d7a65726f2062616c616e636520746f20706572666f726d20656d60648201527f657267656e6379207769746864726177000000000000000000000000000000006084820152fd5b3461025f57602036600319011261025f576004356109a5612c44565b6109ad612bf1565b6109c36001600160a01b03600054163314612412565b6109cb6125fb565b5050600d5491506109dc8284612299565b11610a2e576109eb9082612299565b600d556109f88133612a3c565b600d5460405191825260208201527f26d39082d7f855ce2435a8386aa6c62dc14ae272e8ec397390d6ec2f57c141a060403392a2005b606460405162461bcd60e51b815260206004820152601460248201527f4e6f43617049737375653a204f766572666c6f770000000000000000000000006044820152fd5b3461025f57600036600319011261025f576020600154604051908152f35b3461025f57600036600319011261025f57600f54610aad81612585565b90610abb60405192836121e7565b808252610ac781612585565b60209190601f19018260005b828110610be15750505060005b818110610b5d57604080518481528551818601819052868601928201908660005b828110610b0e5784840385f35b9091928260a082610b4e6001948a516080809180518452602081015160208501526040810151604085015260608101511515606085015201511515910152565b01960191019492919094610b01565b806001600160a01b03610b71600193612168565b919054600392831b1c166000526012855260406000209060405191610b95836121cb565b80548352848101548784015260028101546040840152015460ff908181161515606084015260081c1615156080820152610bcf828761259d565b52610bda818661259d565b5001610ae0565b610be961255a565b828288010152018390610ad3565b3461025f57600036600319011261025f57602060ff60105460b81c166040519015158152f35b3461025f57602036600319011261025f576001600160a01b03610c3e6121b5565b610c4661255a565b5016600052601260205260a0604060002060ff600360405192610c68846121cb565b80548452600181015460208501526002810154604085015201548181161515606084015260081c1615156080820152610cd060405180926080809180518452602081015160208501526040810151604085015260608101511515606085015201511515910152565bf35b3461025f57600036600319011261025f57610ceb612c44565b610cf3612bf1565b6010546001600160a01b0360405190638da5cb5b60e01b825260209182816004818588165afa908115610e9557600091610e68575b50163303610e255760ff8260a01c16610dbb577f55bb3cade9d43b798a4fe5ffdd05024b2d7870df53920673bfc7e68047cd0ab190740100000000000000000000000000000000000000007fffffffffffffffffffffff00ffffffffffffffffffffffffffffffffffffffff610d9c6125fb565b50969150501617601055610db08333612a3c565b6040519283523392a2005b6084906040519062461bcd60e51b82526004820152602160248201527f4e6f43617049737375653a206665657320686173206265656e2063686172676560448201527f64000000000000000000000000000000000000000000000000000000000000006064820152fd5b6064906040519062461bcd60e51b825280600483015260248201527f4e6f43617049737375653a206e6f7420706164466163746f7279206f776e65726044820152fd5b610e889150833d8511610e8e575b610e8081836121e7565b810190612209565b84610d28565b503d610e76565b6040513d6000823e3d90fd5b3461025f57602036600319011261025f576020610844610ebf6121b5565b6124f4565b60208060031936011261025f5760043590610edd612bf1565b610ee56122f1565b6004811015610743576001036111605760105460b81c60ff161561115057610f0e341515612483565b8134036110e6575b3360005260128152600160406000200180541561101b575b610f39838254612299565b815560105460b81c60ff1661100757610f5483601154612299565b6011556006546040516323b872dd60e01b815233600482015230602482015260448101859052908390829060649082906000906001600160a01b03165af18015610e9557610fda575b505b546011549160405193845283015260408201527f44da1c981094396f5fd8a1b18690bdd6a625f76508fa8140c563f4af6508814560603392a2005b610ff990833d8511611000575b610ff181836121e7565b810190612357565b5083610f9d565b503d610fe7565b61101334601154612299565b601155610f9f565b600954831061107c57600f5468010000000000000000811015611066578060016110489201600f55612168565b81549060031b906001600160a01b0333831b921b1916179055610f2e565b634e487b7160e01b600052604160045260246000fd5b6084826040519062461bcd60e51b82526004820152602260248201527f4e6f43617049737375653a206d757374207265616368206d696e206465706f7360448201527f69740000000000000000000000000000000000000000000000000000000000006064820152fd5b6084906040519062461bcd60e51b82526004820152603660248201527f4e6f43617049737375653a20706172616d20616d6f756e7420616e64206d736760448201527f2076616c75652073686f756c6420626520657175616c000000000000000000006064820152fd5b61115b821515612483565b610f16565b6064906040519062461bcd60e51b82526004820152601760248201527f4e6f43617049737375653a2077726f6e672070686173650000000000000000006044820152fd5b3461025f57600036600319011261025f576111bd612bf1565b6111c56122f1565b6004811015610743576003036106ff57336000526020601281526040600020906003820180549260ff8460081c1661130657549283156112c25761ff001916610100179055600e5491808311156112b7576112219080936123ba565b600e5560055460405163a9059cbb60e01b815233600482015260248101849052908290829060449082906000906001600160a01b03165af18015610e955761129a575b50600e54906040519283528201527ff02c6b636e42d3684de0fcefa1b1aa2c411de898387e21b1f63e4bfce570bb3a60403392a2005b6112b090823d841161100057610ff181836121e7565b5082611264565b5061122182806123ba565b6064836040519062461bcd60e51b82526004820152601760248201527f6e6f20616c6c6f636174696f6e20746f20636c61696d210000000000000000006044820152fd5b6064836040519062461bcd60e51b82526004820152601260248201527f68617320636c61696d656420746f6b656e2100000000000000000000000000006044820152fd5b3461025f57600036600319011261025f576020600454604051908152f35b3461025f57600036600319011261025f576020600d54604051908152f35b3461025f57600036600319011261025f576020600754604051908152f35b3461025f57602036600319011261025f5760206001600160a01b036113ca600435612168565b9190546040519260031b1c168152f35b3461025f57604036600319011261025f576024356001600160a01b0390816010541691604051638da5cb5b60e01b815260208160048183975afa908115610e95576114329183916000916114fd575b50163314612228565b61143a6122f1565b60048110156107435760021480156114e3575b611456906123c7565b6004355b82811061146357005b8082611470600193612168565b919054600392831b1c16600052601286527fb149fac85f173bbff866426acfb2743fba815e2b5b41cf508ace9f45e374420686856040600020936114c3826114b788612168565b905490841b1c166124f4565b8095556114cf86612168565b9054911b1c1692604051908152a20161145a565b506114ec6122f1565b60048110156107435760031461144d565b611516915060203d602011610e8e57610e8081836121e7565b86611429565b3461025f57600036600319011261025f57611535612b9d565b6001600160a01b0361154c81600054163314612412565b600554166040516370a0823160e01b81523060048201526020918282602481845afa8015610e955783926000916115cc575b5060405163a9059cbb60e01b815233600482015260248101919091529190829060449082906000905af18015610e95576115b457005b816115ca92903d1061100057610ff181836121e7565b005b83819492503d83116115f7575b6115e381836121e7565b8101031261025f579051829190600061157e565b503d6115d9565b3461025f57600036600319011261025f5761161a32331461236f565b6001600160a01b03806010541660405180916312fde4b760e01b825281600460209384935afa918215610e95576000926116d0575b50806024929360055416604051938480926370a0823160e01b82523060048301525afa908115610e95576000916116a0575b506116909150600e54906123ba565b8061169757005b6115ca91612a3c565b905081813d83116116c9575b6116b681836121e7565b8101031261025f57611690905183611681565b503d6116ac565b602492506116eb8291823d8411610e8e57610e8081836121e7565b925061164f565b3461025f57600036600319011261025f576020600e54604051908152f35b3461025f57600036600319011261025f576020600354604051908152f35b3461025f57600036600319011261025f57602060ff60105460a81c166040519015158152f35b3461025f57600036600319011261025f576001600160a01b03806010541690604051638da5cb5b60e01b815260208160048183965afa908115610e95576117a79183916000916118665750163314612228565b6117af6122f1565b600481101561074357600214801561184c575b6117cb906123c7565b60005b600f548110156115ca5780826117e5600193612168565b919054600392831b1c16600052601285527fb149fac85f173bbff866426acfb2743fba815e2b5b41cf508ace9f45e3744206858560406000209361182c826114b788612168565b80955561183886612168565b9054911b1c1692604051908152a2016117ce565b506118556122f1565b6004811015610743576003146117c2565b61187f915060203d602011610e8e57610e8081836121e7565b85611429565b3461025f57602036600319011261025f576004356118a16122f1565b6004811015610743576002148015611951575b6118bd906123c7565b60046001600160a01b03916020836010541660405193848092638da5cb5b60e01b82525afa918215610e95577f513a654da6e21e3dd8eb8c911c92af7fb399e84e65de1fae839afb0213b84e46936020936119229260009161193a5750163314612228565b61192d4282116122a6565b80600355604051908152a1005b6115169150853d8711610e8e57610e8081836121e7565b5061195a6122f1565b6004811015610743576003146118b4565b3461025f57602036600319011261025f576001600160a01b0361198c6121b5565b16600052601260205260a0604060002060ff8154916001810154906003600282015491015491604051948552602085015260408401528181161515606084015260081c1615156080820152f35b3461025f57600036600319011261025f576119f26125fb565b9250505015611b1b57611a036122f1565b6004811015610743576002148015611b01575b611a1f906123c7565b33600052601260205260406000206003810180549160ff8316611a975760019182611a49336125b1565b9485600285015560ff1916179055611a618333612a3c565b01549060405191825260208201527f541b685c22bfb3aa2045f81615f9afa1584049198118cd0e6b50ce7041d0888c60403392a2005b608460405162461bcd60e51b815260206004820152602360248201527f4e6f43617049737375653a20616c726561647920636c61696d6564207265667560448201527f6e647300000000000000000000000000000000000000000000000000000000006064820152fd5b50611b0a6122f1565b600481101561074357600314611a16565b606460405162461bcd60e51b815260206004820152601660248201527f4e6f43617049737375653a206e6f20726566756e6473000000000000000000006044820152fd5b3461025f57600036600319011261025f576010546001600160a01b0390604051638da5cb5b60e01b81526020816004818686165afa928315610e955760ff60a81b1993611bb6926000916118665750163314612228565b166010557f08b16cfeab45b89edc067cbd4a68c81cfa75390ecbb33d8201a4f51facbbd4c5600080a1005b3461025f57600036600319011261025f576020601154604051908152f35b3461025f57600036600319011261025f576020600954604051908152f35b3461025f57600036600319011261025f5760206001600160a01b0360055416604051908152f35b3461025f57600036600319011261025f576020600254604051908152f35b3461025f57602036600319011261025f57600435600f5481101561025f576001600160a01b036113ca602092612168565b3461025f57600036600319011261025f576020600b54604051908152f35b3461025f57600036600319011261025f5760206001600160a01b0360065416604051908152f35b3461025f57600036600319011261025f576020600854604051908152f35b3461025f57600036600319011261025f57611d1232331461236f565b6010546001600160a01b03604051916312fde4b760e01b835260209081846004818685165afa938415610e9557600094611dd5575b5060b81c60ff16611dc1578060249260065416604051938480926370a0823160e01b82523060048301525afa908115610e9557600091611d91575b506116909150601154906123ba565b905081813d8311611dba575b611da781836121e7565b8101031261025f57611690905183611d82565b503d611d9d565b5050611dd047601154906123ba565b611690565b60ff919450611df090833d8511610e8e57610e8081836121e7565b9390611d47565b3461025f57600036600319011261025f5760206001600160a01b0360005416604051908152f35b3461025f5760208060031936011261025f57600435906007548210611f3357601080547fffffffffffffffffff00ffffffffffffffffffffffffffffffffffffffffffff16760100000000000000000000000000000000000000000000179055600554600080546040516323b872dd60e01b81526001600160a01b03918216600482015230602482015260448101869052949284928692606492849291165af1918215610e95577f029697fa99f575a35ec1ca6b06cdcfc85829448d8b2817f73452254f735899bd93606093611f16575b50611efe600754600e54612299565b9081600e5560405192835233908301526040820152a1005b611f2c90823d841161100057610ff181836121e7565b5084611eef565b6084906040519062461bcd60e51b82526004820152602660248201527f616d6f756e74206e6f74206c657373207468616e20697373756564546f6b656e60448201527f416d6f756e7400000000000000000000000000000000000000000000000000006064820152fd5b3461025f57600036600319011261025f57601054604051638da5cb5b60e01b81526001600160a01b03916020826004818685165afa918215610e955775010000000000000000000000000000000000000000009360ff60a81b199361200c926000916114fd5750163314612228565b16176010557f7acc84e34091ae817647a4c49116f5cc07f319078ba80f8f5fde37ea7e25cbd6600080a1005b3461025f57600036600319011261025f576020600f54604051908152f35b3461025f57600036600319011261025f5761206f6122f1565b6040516004821015610743576020918152f35b3461025f57602036600319011261025f5760043560046001600160a01b03916020836010541660405193848092638da5cb5b60e01b82525afa918215610e95577f61b871a906dd1307e7b80a111a52a0a69e93ed6f272c419de95ede09a554d8a8936020936120fb9260009161193a5750163314612228565b61211161210a82600154612299565b42106122a6565b80600255604051908152a1005b3461025f57600036600319011261025f5760206001600160a01b0360105416604051908152f35b3461025f57600036600319011261025f5760209060ff60105460a01c1615158152f35b600f5481101561219f57600f6000527f8d1108e10bcb7c27dddfc02ed9d693a074039d026cf4ea4240b40f7d581ac8020190600090565b634e487b7160e01b600052603260045260246000fd5b600435906001600160a01b038216820361025f57565b60a0810190811067ffffffffffffffff82111761106657604052565b90601f8019910116810190811067ffffffffffffffff82111761106657604052565b9081602091031261025f57516001600160a01b038116810361025f5790565b1561222f57565b608460405162461bcd60e51b815260206004820152602a60248201527f4e6f43617049737375653a2063616c6c6572206973206e6f742050616446616360448201527f746f7279206f776e6572000000000000000000000000000000000000000000006064820152fd5b919082018092116105b857565b156122ad57565b606460405162461bcd60e51b815260206004820152600760248201527f696e76616c6964000000000000000000000000000000000000000000000000006044820152fd5b6001548015801561234e575b156123085750600090565b6002546123158183612299565b421015612323575050600190565b61232c91612299565b42101580612343575b61233e57600390565b600290565b506003544210612335565b508042106122fd565b9081602091031261025f5751801515810361025f5790565b1561237657565b606460405162461bcd60e51b815260206004820152601460248201527f4e6f43617049737375653a20454f41206f6e6c790000000000000000000000006044820152fd5b919082039182116105b857565b156123ce57565b606460405162461bcd60e51b815260206004820152601760248201527f4e6f43617049737375653a2057726f6e672070686173650000000000000000006044820152fd5b1561241957565b608460405162461bcd60e51b815260206004820152602360248201527f4e6f43617049737375653a206f6e6c79206973737565722063616e20646f207460448201527f68697300000000000000000000000000000000000000000000000000000000006064820152fd5b1561248a57565b608460405162461bcd60e51b815260206004820152603660248201527f4e6f43617049737375653a206578706563746564206e6f6e2d7a65726f20706160448201527f796d656e7420746f6b656e20746f206465706f736974000000000000000000006064820152fd5b6001600160a01b03166000526012602052604060002061252d6125246125186125fb565b50509050600754612c5e565b60085490612c71565b601154909181156125525761254f92600161254a92015490612c5e565b612c71565b90565b505050600090565b60405190612567826121cb565b60006080838281528260208201528260408201528260608201520152565b67ffffffffffffffff81116110665760051b60200190565b805182101561219f5760209160051b010190565b6001600160a01b0316600052601260205260406000206125cf6125fb565b92505050600091816125e057505090565b6001015461254f92506125f291612c5e565b60115490612c71565b601154906001600160a01b0360105416906040918251927f40490a9000000000000000000000000000000000000000000000000000000000845260049160c0858481845afa948515612a3157600095612994575b5081517fb851f5b4000000000000000000000000000000000000000000000000000000009384825260008183015260209160249083818381885afa9081156129895760009161295c575b50956008549860a0810190600a806126b38d855190612c5e565b048d1115612784575050849596975051958751968794859384528301525afa92831561277a575060009261274c575b50505b61271090816126f48286612c5e565b04856127008683612299565b111561274357506127119085612c5e565b04905b61271e82856123ba565b9280841161273b575b5061254f8261273685876123ba565b6123ba565b925038612727565b91505090612714565b90809250813d8311612773575b61276381836121e7565b8101031261025f575138806126e2565b503d612759565b513d6000823e3d90fd5b9091506080820191816127998d855190612c5e565b048d11156127fd575050849596975051958751968794859384528301525afa92831561277a57506000926127cf575b50506126e5565b90809250813d83116127f6575b6127e681836121e7565b8101031261025f575138806127c8565b503d6127dc565b9091506060810191806128128d855190612c5e565b048d1115612847575050849596975051958751968794859384528301525afa92831561277a57506000926127cf5750506126e5565b909150878201918161285b8d855190612c5e565b048d1115612890575050849596975051958751968794859384528301525afa92831561277a57506000926127cf5750506126e5565b90915085810191806128a48d855190612c5e565b048d11156128d9575050849596975051958751968794859384528301525afa92831561277a57506000926127cf5750506126e5565b9091506128e782518c612c5e565b048b116128fb575b505050505050506126e5565b849596975051958751968794859384528301525afa92831561277a575060009261292e575b5050388080808080806128ef565b90809250813d8311612955575b61294581836121e7565b8101031261025f57513880612920565b503d61293b565b90508381813d8311612982575b61297381836121e7565b8101031261025f575138612699565b503d612969565b86513d6000823e3d90fd5b60c0959195813d60c011612a29575b816129b060c093836121e7565b81010312612a255782519160c083019083821067ffffffffffffffff831117612a1257509060a0918452805183526020810151602084015283810151848401526060810151606084015260808101516080840152015160a0820152933861264f565b80604187634e487b7160e01b6024945252fd5b5080fd5b3d91506129a3565b82513d6000823e3d90fd5b60105460b81c60ff16612b7d576001600160a01b03908160065416916040918251916370a0823160e01b83523060048401526020958684602481895afa938415612b7257908794939291600094612b41575b5083811115612b005750600654855163a9059cbb60e01b81526001600160a01b03939093166004840152602483019390935290945084916044918391600091165af190811561277a5750612ae2575b50505b565b81612af892903d1061100057610ff181836121e7565b503880612add565b855163a9059cbb60e01b81526001600160a01b039390931660048401526024830152509384915060449082906000905af190811561277a5750612ae2575050565b8581969295503d8311612b6b575b612b5981836121e7565b8101031261025f578693519238612a8e565b503d612b4f565b85513d6000823e3d90fd5b90479081811115612b925750612ae091612c91565b9050612ae091612c91565b60ff60105460a81c1615612bad57565b606460405162461bcd60e51b815260206004820152601c60248201527f4e6f43617049737375653a206973207374696c6c2072756e6e696e67000000006044820152fd5b60ff60105460a81c16612c0057565b606460405162461bcd60e51b815260206004820152601360248201527f4e6f43617049737375653a2073746f70706564000000000000000000000000006044820152fd5b612c4c6122f1565b6004811015610743576002036106ff57565b818102929181159184041417156105b857565b8115612c7b570490565b634e487b7160e01b600052601260045260246000fd5b60008080809481945af1903d15612d59573d9067ffffffffffffffff8211612d455760405191612ccb601f8201601f1916602001846121e7565b825260203d92013e5b15612cdb57565b608460405162461bcd60e51b815260206004820152602560248201527f5472616e7366657248656c7065723a204d455449535f5452414e534645525f4660448201527f41494c45440000000000000000000000000000000000000000000000000000006064820152fd5b80634e487b7160e01b602492526041600452fd5b50612cd456fea2646970667358221220f26b70af58aa30f11effc04ae1d5bcfcb5c3b9db12856b4d3a327caa3c6830b464736f6c63430008180033",
  "linkReferences": {},
  "deployedLinkReferences": {}
}